:0400000080315128D2
:100008007E1480312000911D45282400141D2028CD
:10001800941A16287008203E86008701010891006E
:10002800F00A1516941E20287008203E86008701C5
:1000380001089100F00A151614194328941A282863
:10004800F101F10A11081516941E432871080319C5
:1000580031281108F000F1013E282B3070020318F6
:100068003D287008203E8600870111088100F00AAB
:100078003E281108951F42289513110815162000CF
:100088009111921D4F28240011082000921124007C
:100098001516200091117E10090080315328013077
:1000A800F1002030F0018400003085002B308031D1
:1000B800DE2080317E1020006128F0302100990078
:1000C8008D2080311E3021008C0023008C012400FB
:1000D8008C002100951322001D140C108030240080
:1000E800940036309500161417169715171520002A
:1000F80021082400920020009111921121009215EC
:1001080091150B1748308B003430200098008B175E
:100118008C28F3302000A0004830A100A201013053
:10012800A3000530A400A501A6019630A700A801E8
:100138002A30A900AA010430AC00B030AB0004306A
:10014800AE007E30AD000030B200B1001530B00016
:10015800B330AF003D30B600CC30B500B400CD3080
:10016800B3003C30BA002330B900D730B8000A30A9
:10017800B7003D30BE002330BD00D730BC000A3088
:10018800BB003E30C2001930C1009930C0009A301F
:10019800BF003D30C600A330C500D730C4000A30C8
:1001A800C3003C30CA00F530C900C230C8008F30E7
:1001B800C7000800640080010131890BDF28003482
:020000040001F9
:04000E00C4CFFFDF7D
:00000001FF
