:020000040000FA
:040000008031BE2865
:100008007E1480310B1C21282700131E21288B11F8
:100018002100CF0A0319D00A22000C181728FF3034
:100028002100AF071B2801302100AF070030B03D89
:10003800B13DB23D270013128B152000111C5C281E
:100048008B11181021002808F7002708F60050081F
:10005800F1004F08F0002C30F2000130F300863137
:10006800BC2680317108F9007008F800863197269F
:1000780080317708AC007608AB00CF01D0012200B0
:100088000C18582821002B092000A00021002C0959
:100098002000A100A00A0319A10A20082100AB0032
:1000A800200021082100AC008B1520001110181425
:1000B800911DB1288B11210011102400141D8028D6
:1000C800941A722821005108A03E86008701010871
:1000D800240091002100D10A24001516941E8028BE
:1000E80021005108A03E86008701010824009100E4
:1000F8002100D10A240015161419AC28941A8A284C
:100108002100EF01EF0A240011081516941EAC28EF
:1001180021006F0803199628240011082100D10036
:10012800EF01A6282B3051020318A4285108A03E3D
:10013800860087012400110881002100D10AA62821
:10014800240011082400951FAB28951311081516D3
:10015800200091118B15210011142000921DBC283C
:100168002400110820009211240015162000911176
:100178007E10090088311C282100AB30E601E70118
:10018800E801E90186008701403F20006502A600DA
:10019800413F663BA700A801A71BA8032808A900A0
:1001A80001308E317E26803129082100E5002000AB
:1001B80028082100E400200027082100E30020008F
:1001C80026082100E20065082000AD00210064082F
:1001D8002000AC00210063082000AB002100620869
:1001E8002000AA001330A03E86008701403FAE00E1
:1001F800413FAF00423FB000433FB100732280311E
:100208002D082100E90020002C082100E80020002A
:100218002B082100E70020002A082100E6006508D5
:100228002000C600210064082000C50021006308E2
:100238002000C400210062082000C30022002F080B
:100248002000CA0022002E082000C90022002D0824
:100258002000C80022002C082000C7008431912407
:10026800803146082200AF00200045082200AE0079
:10027800200044082200AD00200043082200AC0002
:100288001B30A03E86008701403F2000AE00413F62
:10029800AF00423FB000433FB10022002F082000CA
:1002A800AD0022002E082000AC0022002D082000FE
:1002B800AB0022002C082000AA0073222D08C600DB
:1002C8002C08C5002B08C4002A08C30021006908AF
:1002D8002000CA00210068082000C9002100670822
:1002E8002000C800210066082000C700843191243E
:1002F800803146082100E900200045082100E80077
:10030800200044082100E700200043082100E600FF
:1003180065082000DE00210064082000DD002100BF
:1003280063082000DC00210062082000DB002200B6
:100338002B082000DA0022002A082000D900220019
:1003480029082000D800220028082000D7008F3173
:10035800CE2780315A08B1005908B0005808AF00BC
:100368005708AE001730A03E86008701403FAA001C
:10037800413FAB00423FAC00433FAD0073228031A8
:100388002D082100E10020002C082100E0002000B9
:100398002B082100DF0020002A082100DE00610868
:1003A8002000C600210060082000C50021005F0869
:1003B8002000C40021005E082000C3002100690855
:1003C8002000CA00210068082000C9002100670831
:1003D8002000C800210066082000C700843191244D
:1003E800803146082100E900200045082100E80086
:1003F800200044082100E700200043082100E6000F
:1004080065082200AB00210064082200AA00210030
:1004180063082200A900210062082200A800210028
:1004280069082000B700210068082000B6002100F4
:1004380067082000B500210066082000B400443099
:10044800BB007F30BA00C030B900B8018F316027D7
:100458008031031C372A44302100E9007F30E8004E
:10046800C030E700E601C4302000B7007F30B60096
:10047800C030B500B401210069082000BB0021008C
:1004880068082000BA00210067082000B900210090
:1004980066082000B8008F3160278031031C5C2A71
:1004A800C4302100E9007F30E800C030E700E601F1
:1004B800210069082000A500210068082000A40088
:1004C800210067082000A300210066082000A20080
:1004D8003E242308AD002208AC008E31472E2D089B
:1004E800B6008030B6052D35B800AC1B3814380876
:1004F8000319862A380F842AAA01AB01AC01AD0181
:10050800AC178A2AAA01AB01AC01AD0131088039C8
:10051800B6063135B700B01B3714370803199C2AC3
:10052800370F9A2AAE01AF01B001B101B017A02A66
:10053800AE01AF01B001B1013708031D3808031D32
:10054800AA2AAA01AB01AC01AD0108002A08A20041
:100558003008F52380312308C2002208C100B90001
:10056800BA01BB01BC014208BD00BE01BF01C00108
:100578002B08A2002F08F52380312308C200220887
:10058800C100B90701300318BA070318BB070318DD
:10059800BC074208BD0701300318BE070318BF0790
:1005A8000318C0072C08A2002E08F5238031230861
:1005B800C2002208C100B90701300318BA0703189E
:1005C800BB070318BC074208BD0701300318BE0764
:1005D8000318BF070318C0073B08BC003A08BB0054
:1005E8003908BA00B9012B08A2002E08F52380317A
:1005F8002308C2002208C100B9074208BA3D0030EA
:10060800BB3DBC3D2A08A2002F08F52380312308F2
:10061800C2002208C100B9074208BA3D0030BB3DFC
:10062800BC3D3B08BC003A08BB003908BA00B90118
:100638002A08A2002E08F52380312308C2002208C8
:10064800C100B9074208BA3D0030BB3DBC3D2B088C
:10065800A2003008F52380312308C2002208C10017
:10066800BD074208BE3D0030BF3DC03D2C08A2007A
:100678002F08F52380312308C2002208C100BD07D6
:100688004208BE3D0030BF3DC03D2C08A2003008E6
:10069800F52380312308C2002208C100B2004208B5
:1006A800B300B401B5013408B5003308B40032080A
:1006B800B300B2013208BD073308BE3D3408BF3D60
:1006C8003508C03D3C08BD0701300318BE070318B4
:1006D800BF070318C0073B08BC003A08BB0039082D
:1006E800BA00B9013808C100C2013708C1070318A8
:1006F800C20A8230C107031CC203BF1B8F2BBD3542
:10070800BE0DBF0DC00DBC1B3D14FF30B935BA0D71
:10071800BB0DBC0D7E2BB701BC1FA42B3908B20042
:100728003A08B3003B08B4007F303C05B5003404F8
:100738003304320403193D18A22BA42BB701B70ABE
:1007480037080319B62B0130BD070030BE3DBF3D49
:10075800C03D401CB62BC037BF0CBE0CBD0CC10A37
:100768000319C20A4208803AB20080303202031DDF
:10077800BF2BFF304102031CC92B7F302000C00073
:100788008030BF00BE01BD01EA2B20004208803A3C
:10079800B20080303202031DD32B0130410203180E
:1007A800DC2B2000BD01BE01BF01C001B601EA2B50
:1007B80020004108B800FF30BD05BE057F30BF05E9
:1007C8000030C0013818BF173836C0003608C004DA
:1007D8004008AD003F08AC003E08AB003D08AA0049
:1007E8000800A700A501A6012208A800A901271C46
:1007F800012C2808A5072908A63DA835A90DA71C7E
:10080800092C2808A5072908A63DA835A90D271DE4
:10081800112C2808A5072908A63DA835A90DA71D4C
:10082800192C2808A5072908A63DA835A90D271EB3
:10083800212C2808A5072908A63DA835A90DA71E1B
:10084800292C2808A5072908A63DA835A90D271F82
:10085800312C2808A5072908A63DA835A90DA71FEA
:10086800392C2808A5072908A63D2608A30025082D
:10087800A20008002208A6002308A7002408A80050
:100888002508A9000310280D290DAB002B08031D0E
:10089800522CA201A301A401A50108002208A60068
:1008A8002308A7002408A8002508A9001F30A93696
:1008B800A80CA70CA60C890B5B2C2608AA0096305E
:1008C800A417A501AB02AB1F752C2B08803A973EE5
:1008D800031C4D2CA536A40CA30CA20CAB0F6E2C3C
:1008E800822C20302B0203184D2C2B080319822C44
:1008F800A235A30DA40DA50DAB03792C2A08031965
:100908000800A209A309A409A509A20A0319A30AB0
:100918000319A40A0319A50A08004608D300803061
:10092800D3054635D500C51B551455080319A42C05
:10093800550FA22CC301C401C501C601C517A72CB8
:10094800C301C401C501C6014A08D4008030D405DA
:1009580054085306031D53174A35D400C91B5414B1
:1009680054080319BF2C540FBD2CC701C801C90175
:10097800CA01C917C22CC701C801C901CA01550853
:1009880054020318E92C531FCB2C8030D30655088A
:10099800D6005408D5005608D4004308D6004708A6
:1009A800C3005608C7004408D6004808C4005608C3
:1009B800C8004508D6004908C5005608C9004608B9
:1009C800D6004A08C6005608CA00D6015408CB000B
:1009D800CC014C08CE0055084B02CD00031CCE03B9
:1009E8004E08803ACF0080304F02031DFD2C1A308C
:1009F8004D02031C1F2D20004608450444044304EF
:100A08000319082D0130092D0030D600C301C40197
:100A1800C501C6015408D500242D561C172D56367D
:100A28000138D600182DD6364318D617C637C50C48
:100A3800C40CC30CD50A200054085502031C112D00
:100A4800531B472D5508031D2E2DC301C401C50195
:100A5800C60108004708C3074808C43D4908C53D02
:100A68004A08C63D461CAF2D561C3E2D5636013849
:100A7800D6003F2DD6364318D617C637C50CC40C3A
:100A8800C30CD50AAF2D4608803ACB004A08803AF5
:100A98004B02031D592D49084502031D592D4808CD
:100AA8004402031D592D470843020318882DFF30BF
:100AB800CB00CC00CD00CE0043084702CF0044084D
:100AC800483BD0004508493BD10046084A3BD20084
:100AD8004F08CB075008CC3D5108CD3D5208CE3DBC
:100AE8004E08C6004D08C5004C08C4004B08C3009A
:100AF8008030D306D609D60F902D0130C3070030B9
:100B0800C43DC53DC63D902D4708C3024808C43BB7
:100B18004908C53B4A08C63B460845044404430403
:100B2800031DAD2D5608031DAD2DC301C401C5011C
:100B3800C6010800C335C40DC50DC60DD61B431428
:100B4800561CA92D0314D60DAA2DD6355508031DFC
:100B5800D503C51F9E2DD401D61FBA2D56087F393F
:100B680003194318B82DBA2DD401D40A540803190F
:100B7800CB2D0130C3070030C43DC53DC63D461CE2
:100B8800CB2DC637C50CC40CC30C550FD50A550A56
:100B9800031D5508031DD72DC301C401C501C60196
:100BA80055080319D301551CDB2DC517DC2DC513BA
:100BB8005536C600D31BC6170800F330A000003016
:100BC800852685312100A100A201013085268531C5
:100BD8002100A300A401A501A601023085268531C4
:100BE8002100A7000330852685312100A8000430A4
:100BF800852685312100A90005308526853121000B
:100C0800AA00AB01AC01AD01AE01AF01B001B10169
:100C1800B2010830852685312100B30009308526C8
:100C280085312100B4000A30852685312100B500C0
:100C38000B30852685312100B6000C30852685319C
:100C48002100B7000D30852685312100B8000E300F
:100C5800852685312100B9000F3085268531210090
:100C6800BA001030852685312100BB001130852659
:100C780085312100BC001230852685312100BD0058
:100C88001330852685312100BE0014308526853134
:100C98002100BF001530852685312100C00016309F
:100CA800852685312100C100173085268531210030
:100CB800C2001830852685312100C30019308526E9
:100CC80085312100C4001A30852685312100C500F0
:100CD8001B30852685312100C6001C3085268531CC
:100CE8002100C7001D30852685312100C8001E302F
:100CF800852685312100C9001F3085262100CA00BC
:100D080008002000A200892E200064002300951806
:100D1800882E200022082300910092013F3095057B
:100D2800151413080800FB01FC0176087704031961
:100D3800B72EFA01FA0AF71BA42EF635F70D9E2EE8
:100D4800FB35FC0D77087902031DAC2E7608780276
:100D5800031CB32E7608F8027708F93B7B14F736A4
:100D6800F60CFA0BA42E7C08F7007B08F6000800A6
:100D7800F401F501701CC42E7208F4077308F53DE0
:100D8800F235F30DF136F00C70087104031DBE2E18
:100D98007508F1007408F00008008831952888313A
:100DA8009B288831A5288831B02889312B29893199
:100DB8009B298931A5298A31442A6400800101319F
:060DC800890BE22E00344D
:1010380021000130EF00FD012000A030EF01EB019D
:10104800EC01ED01EE01840000308500323086317C
:10105800E126883120308400013085001030863147
:10106800E12688317E1020003928F03021009900CF
:101078008531E12588311E308C0023008C01240045
:101088008C00210023184B28210095174D2821009A
:10109800951322001D140C10803024009400363063
:1010A80095001614171697151715210021352400D9
:1010B80092002000911192112100921591150B17A1
:1010C800C2278831A201A3014127883127001216BF
:1010D80048308B0034302000980021001114200083
:1010E80018148B1734302100EA00F130890B7A2864
:1010F800EA0B7A28003220008C1990282430A200AC
:1011080000302A26883134302100EA00F130890B7A
:101118008B28EA0B8B28003264002100220BF22A6C
:10112800DE2A2000AC01AD0147268831E82A2E08C6
:101138002000AD0021002D082000AC004726883192
:10114800E82A2E082000E60021002D082000E500EE
:101158008031C0208831E82A3208310430042F0455
:10116800031D7D18C5280F307D14A03E8600870119
:10117800403F2000EB00413FEC00423FED00433F81
:10118800B9292000EE1B0A296E08031DD5286D0811
:10119800031DD5286C08031DD52801306B02031CDC
:1011A8000A2921002E082000A30021002D08200074
:1011B800A200EC232308E6002208E5008031C020C5
:1011C800883121003208803AEA0020006E08803A0F
:1011D80021006A02031D002920006D082100310248
:1011E800031D002920006C0821003002031D00297E
:1011F80020006B0821002F02031C0A297D10200003
:10120800AC01AD01472688312100A2012000EE1F64
:10121800E82A21002E082000A30021002D08200024
:10122800A200EC2322092100EA0020002309210062
:10123800EB00EA0A0319EB0A6A082000E50021001E
:101248006B082000E6008031C0208831252A32084A
:10125800310430042F04031D7D1849290F307D14F3
:10126800A03E86008701403F2000EB00413FEC0094
:10127800423FED00433FEE002100AF01B001B10154
:10128800B2012100CB01CC01E82A20006E08E2005F
:101298006D08E1006C08E0006B08DF00FA236008C5
:1012A800E6005F08E5008031C0208831F630210073
:1012B800EA00FF30EB00EC00ED00AF30860087015C
:1012C800403FEA07413FEB3D423FEC3D433FED3DA8
:1012D80020006E08803A2100EE006D08803A6E0208
:1012E8002000031D872921006C0820006D02031DC2
:1012F800872921006B0820006C02031D8729210023
:101308006A0820006B02031C45290A302100EA0004
:101318000F30EB01EC01ED01A03E86008701403F54
:10132800EA07413FEB3D423FEC3D433FAA2A2E08E6
:101338002000E80021002D082000E700EB26883176
:10134800E82A3208310430042F04031D7D18C0290F
:101358000F307D14A03E86008701403F2000EB003F
:10136800413FEC00423FED00433FEE002100AF015A
:10137800B001B101B201E82A2000EE1B052A6E086F
:10138800031DD0296D08031DD0296C08031DD02921
:1013980001306B02031C052A21002E082000A3003F
:1013A80021002D082000A200EC2388312308E80042
:1013B8002208E700EB26883121003208803AEA004B
:1013C80020006E08803A21006A02031DFB292000D4
:1013D8006D0821003102031DFB2920006C08210043
:1013E8003002031DFB2920006B0821002F02031C7B
:1013F800052A7D102000AC01AD0147268831210067
:10140800A2012000EE1FE82A21002E082000A300D8
:1014180021002D082000A200EC2388312209210098
:10142800EA00200023092100EB00EA0A0319EB0A6D
:101438006A082000E70021006B082000E800EB267E
:10144800883120006E08803A2100EA003208803A8C
:101458006A022000031D402A2100310820006D0285
:10146800031D402A2100300820006C02031D402A79
:1014780021002F0820006B02031CE82A7D10D72AC0
:101488003208310430042F04031D7D18592A0F3007
:101498007D14A03E86008701403F2000EB00413FBD
:1014A800EC00423FED00433F3F2920006E08E20078
:1014B8006D08E1006C08E0006B08DF00FA23883152
:1014C8006008E8005F08E700EB268831F630210065
:1014D800EA00FF30EB00EC00ED00AF30860087013A
:1014E800403FEA07413FEB3D423FEC3D433FED3D86
:1014F80020006E08803A2100EE006D08803A6E02E6
:101508002000031D972A21006C0820006D02031D8E
:10151800972A21006B0820006C02031D972A2100DE
:101528006A0820006B02031C45290A302100EA00E2
:101538000F30EB01EC01ED01A03E86008701403F32
:10154800EA07413FEB3D423FEC3D433FED3D6D082F
:10155800803AEE0020006E08803A21006E02031DDA
:10156800C52A20006D0821006C02031DC52A200031
:101578006C0821006B02031DC52A20006B0821009E
:101588006A02031C4529CB0A0319CC0A4C08803A85
:10159800EA0080306A02031DD32A33304B02031C51
:1015A800E82A7D102000AC01AD01472688312100D2
:1015B800A201E82A240884000830040203189528A8
:1015C80086310435D13E820034302100EA00F13002
:1015D800890BEC2AEA0BEC2A0032082B2000AC011C
:1015E800AD01472688312200AC01AD01AE01AF0143
:1015F800A801A901AA01AB01A401A501A601A7019F
:10160800A001A101A201A3012100260B0C2B0100BE
:101618002100250B902821082000A20000302A264E
:101628008831210023082000A20001302A268831B1
:10163800210027082000A20002302A268831210034
:1016480028082000A20003302A2688312100290812
:101658002000A20004302A26883121002A08200010
:10166800A20005302A268831210033082000A20074
:1016780008302A268831210034082000A2000930C9
:101688002A268831210035082000A2000A302A269F
:101698008831210036082000A2000B302A26883124
:1016A800210037082000A2000C302A2688312100AA
:1016B80038082000A2000D302A2688312100390878
:1016C8002000A2000E302A26883121003A08200086
:1016D800A2000F302A26883121003B082000A200F2
:1016E80010302A26883121003C082000A200113041
:1016F8002A26883121003D082000A20012302A261F
:10170800883121003E082000A20013302A268831A3
:1017180021003F082000A20014302A268831210029
:1017280040082000A20015302A26883121004108EF
:101738002000A20016302A26883121004208200005
:10174800A20017302A268831210043082000A20071
:1017580018302A268831210044082000A2001930B8
:101768002A268831210045082000A2001A302A269E
:101778008831210046082000A2001B302A26883123
:10178800210047082000A2001C302A2688312100A9
:1017980048082000A2001D302A2688312100490867
:1017A8002000A2001E302A26883121004A08200085
:1017B800A2001F302A26883134302100EA00F13097
:1017C800890BE42BEA0BE42B00322100A5019028B9
:1017D800A31F08002209A4002309A500A40A0319CD
:1017E800A50A2408A2002508A30008002100DA01A0
:1017F800DB01DC01DD0120006208A9006108A80006
:101808006008A7005F08A60021002F082000A60294
:10181800210030082000A73B210031082000A83B08
:10182800210032082000A93B01307E268831290892
:101838002100D900200028082100D800200027080E
:101848002100D700200026082100D60059082000D2
:10185800AD00210058082000AC00210057082000E6
:10186800AB00210056082000AA001F30A03E8600C9
:101878008701403FAE00413FAF00423FB000433FC9
:10188800B1008231732288312D082100DD0020004B
:101898002C082100DC0020002B082100DB002000A0
:1018A8002A082100DA0059082000C600210058083B
:1018B8002000C500210057082000C4002100560858
:1018C8002000C300220027082000CA0022002608A2
:1018D8002000C900220025082000C8002200240892
:1018E8002000C70084319124883146082200A700CF
:1018F800200045082200A600200044082200A50078
:10190800200043082200A4002730A03E860087015B
:10191800403F2000AE00413FAF00423FB000433F90
:10192800B100220027082000AD0022002608200070
:10193800AC00220025082000AB002200240820006B
:10194800AA008231732288312D08C6002C08C500F0
:101958002B08C4002A08C30021005D082000CA0023
:1019680021005C082000C90021005B082000C80095
:1019780021005A082000C700843191248831460884
:101988002100DD00200045082100DC00200044087B
:101998002100DB00200043082100DA00590820005C
:1019A800DE00210058082000DD0021005708200033
:1019B800DC00210056082000DB002200230820005C
:1019C800DA00220022082000D90022002108200085
:1019D800D800220020082000D700CE275A08B100DE
:1019E8005908B0005808AF005708AE002330A03E91
:1019F80086008701403FAA00413FAB00423FAC0050
:101A0800433FAD008231732288312D082100D50073
:101A180020002C082100D40020002B082100D3002E
:101A280020002A082100D20055082000C600210005
:101A380054082000C500210053082000C4002100DC
:101A480052082000C30021005D082000CA002100C0
:101A58005C082000C90021005B082000C8002100A4
:101A68005A082000C7008431912488314608210093
:101A7800DD00200045082100DC002000440821008A
:101A8800DB00200043082100DA0059082200A300E7
:101A9800210058082200A200210057082200A100B6
:101AA800210056082200A00021005D082000B70090
:101AB80021005C082000B60021005B082000B5006A
:101AC80021005A082000B40021002E082000A3009D
:101AD80021002D082000A200EC2388312208A6004E
:101AE8002308A700890D893B8909A800A9000130AE
:101AF8007E2688312908BB002808BA002708B900C3
:101B08002608B80060278831031CAF2D21002E0855
:101B18002000A30021002D082000A200EC2388311A
:101B28002208A6002308A700890D893B8909A80077
:101B3800A90001307E26883129082100DD00200017
:101B480028082100DC00200027082100DB002000F5
:101B580026082100DA0021002E082000A300210019
:101B68002D082000A200EC2388312209E300230974
:101B7800E400E30A0319E40A6308A6006408A7005E
:101B8800890D893B8909A800A90001307E26883182
:101B98002908B7002808B6002708B5002608B400A9
:101BA80021005D082000BB0021005C082000BA006D
:101BB80021005B082000B90021005A082000B80065
:101BC80060278831031C132E21002E082000A30053
:101BD80021002D082000A200EC2388312209E3000F
:101BE8002309E400E30A0319E40A6308A600640869
:101BF800A700890D893B8909A800A90001307E2624
:101C080029082100DD00200028082100DC00200030
:101C180027082100DB00200026082100DA00210027
:101C28005D082000A50021005C082000A400210018
:101C38005B082000A30021005A082000A20084317C
:101C48003E242308E0002208DF000800A300230048
:101C580095182B2E200023082300910092012000C4
:101C68002208230093003F30950503108B1B0314B3
:101C78008B13151555309600AA309600951415113A
:101C880003188B1708002C082D04031D512E2D084E
:101C9800A3002C08A2004127883120002D08803A93
:101CA800AE0080302E02031D5B2E01302C02031C77
:101CB800662E22000C1420002D08A3002C08A20078
:101CC800412788312000AD1F080022000C10FF308A
:101CD8002000A200A3002D08A5002C08A400EB27D3
:101CE80088312308AD002208AC002D08A3002C0879
:101CF800A200412FAE002E08031DA91F932E26090E
:101D0800B0002709B1002809B2002909B300B00AB8
:101D18000319B10A0319B20A0319B30A9B2E290839
:101D2800B3002808B2002708B1002608B000290827
:101D3800280427042604031DA62EA601A701A8012E
:101D4800A90108009630AF00FE3033050319BD2EF7
:101D5800AF0AB336B20CB10CB00CA82E0130AF0AE2
:101D6800B0070030B13DB23DB33DB336B20CB10C53
:101D7800B00CFF3033050319CB2EB22E02302F02E0
:101D8800031CCD2EAF03B035B10DB20DB30DB21F8C
:101D9800C22E2F1CB213AF362F08AD00AC01AB0119
:101DA800AA012A08B0042B08B1042C08B2042D0893
:101DB800B3042E08031DA91FE22EB3173308A90088
:101DC8003208A8003108A7003008A60008006708F4
:101DD80021004D062000E900680821004E06200079
:101DE800EA00EA1FFA2E20006F14FC2E20006F1064
:101DF8006808803AE90080306902031D052F013028
:101E0800670203181A2F20006F1C1A2F21004E0892
:101E1800803A2000E90080306902031D162F013046
:101E280021004D0203181A2F20006F1020006F1C8C
:101E3800322F2000E501E6018031C020883164009E
:101E480034302000E900F130890B282FE90B282FC6
:101E5800003221002B082C04031D1D2F20006808C8
:101E68002100CE00200067082100CD00200068086E
:101E7800E6006708E5008031C0282308803AA400FE
:101E880084302402031D4A2F003022020318080060
:101E980020002308A5002208A400A536A40CA53616
:101EA800A40C2408250091002000220EF0393039B6
:101EB8000C382500930008008030BC01BD013605B0
:101EC800BE007F303705BF003E043D043C04031DBF
:101ED800712FB401B501B601B7018030BC01BD0155
:101EE8003A05BE007F303B05BF003E043D043C047C
:101EF800031D822FB801B901BA01BB01B71F992F81
:101F08008030BC01BD01BE01BF003408BC023508E9
:101F1800BD3B3608BE3B3708BF3B3F08B7003E080D
:101F2800B6003D08B5003C08B400BB1FB02F803098
:101F3800BC01BD01BE01BF003808BC023908BD3B69
:101F48003A08BE3B3B08BF3B3F08BB003E08BA000F
:101F58003D08B9003C08B8008030B706BB063B080E
:101F68003702031D08003A083602031D0800390825
:101F78003502031D0800380834020800FF3020002D
:101F88009B000C3025009300910120009110043033
:101F98009C0008008030DA065E08C6005D08C500AF
:101FA8005C08C4005B08C3005A08CA005908C90085
:101FB8005808C8005708C700843191244608DA0039
:101FC8004508D9004408D8004308D7000800A601EE
:101FD800A701221CF32F2408A6072508A73DA4352E
:101FE800A50DA336A20C22082304031DED2F2708F4
:081FF800A3002608A200080066
:020000040001F9
:04000E009CCFFFDFA5
:10E00000240001000100000001000000FF00FF00EB
:10E010000000000000000000000000000000000000
:10E0200000000000000000000000000000000000F0
:10E0300000000000000000000000000000000000E0
:00000001FF
