:02000000C12E0F
:1000080070082000AB007108AA007208A9007308E4
:10001800A8007408A7007508A6007808A500790844
:10002800A4007A08A3007B08A2007C08A100803104
:100038000B1C27282700131E27288B112000BA0A1B
:10004800270013128B152000111C53288B11181030
:100058003A08F000F1012C30F4000130F5008D2051
:100068003B08F4003C08F500A5267008B4007108A8
:10007800B500BA0122000C184F2820003408F000FF
:100088003508F100FF30F400FF30F5008D207008CE
:10009800B4007108B50020008B15111018142B0836
:1000A800F0002A08F1002908F2002808F3002708C0
:1000B800F4002608F5002508F8002408F9002308AC
:0C00C800FA002208FB002108FC000900DF
:0E00D400F201F101F001F801F3010030080023
:1000E2007B15FB1F7B280130F300F201F101F001C7
:0800F200FA0DF20CFF300800CA
:0800FA00FA1FF21300300800A8
:10010200FB14FB1F8B28FF30F300F200F100F0001C
:08011200FA0DF20CFF300800A9
:10011A002000FB01FA01F9018030F800F10CF00C23
:10012A00031CA0287408F90775080318750FFA0745
:10013A000318FB0A0310F01FA8287408FA077508A9
:10014A000318750FFB07FB0CFA0CF90CF80C031CCF
:10015A0093287B08F3007A08F2007908F1007808FE
:04016A00F000080099
:10016E007C18ED28FC18BE287C190C29B728A00194
:10017E007208031DDE287108F2007008F10078087D
:10018E00F000F801A0157208031DDE287108F200B8
:10019E007008F100F001A01120167208031DDE2870
:1001AE007108F200F101A015720803190029200848
:1001BE00F302031D031C04290310F21BED28F80D96
:1001CE00F00DF10DF20DF30BE42804297B1B701CCE
:1001DE000829F81F0829F00A0319F10A0319F20A6F
:1001EE00031D0829F20CF10CF00CF30A03190C296B
:1001FE0008290130FC006A200F290230FC00712012
:10020E000F290430FC007D200F290830FC008120CE
:04021E0000000800D4
:10022200A0017208031D26297108F2007008F1006E
:10023200F001A0157208031D26297108F200F101D0
:10024200A01120167208031934292008F302031D95
:10025200031C38290310F21B3C29F00DF10DF20D9D
:10026200F30B2C2938290130FC006A203F29023087
:0E027200FC0071203F290430FC007D200800B4
:1002800020001B08013EF000F1010030F13D5E0846
:10029000F400F5018D200630F2007008F4007108BA
:1002A000F500720803195829F536F40CFF3E52295F
:1002B0000430F1007408F000710803196229F03568
:1002C000FF3E5D2930307005F3007408F0007508BA
:1002D000F100F136F00CF136F00C700825009100B9
:0A02E0000F30930573089304080023
:1002EA007B14FB1F8029F201FA1FFF30F200F10094
:0A02FA00F000FA0DF20CFF300800CE
:10030400200072087606A000F801F901730877024C
:10031400031CA4297708FD007308F7007D08F30087
:100324007608FD007208F6007D08F2007508FD00ED
:100334007108F5007D08F1007408FD007008F400F0
:100344007D08F000770803191D2A7208FA00F217D5
:10035400F61777087302F7000319D72908307702D4
:10036400031CCD29F7007408F9007508F400760819
:10037400F500F60108307702031CCD29F700740854
:10038400F9007508F400F50108307702031CCD2943
:100394007A08F2001D2A77080319D7290310F60CEE
:1003A400F50CF40CF90CF70BD029A01FE429F9097A
:1003B400F409F509F609F90A0319F40A0319F50A07
:1003C4000319F60A7908F80774080318740FF0077C
:1003D40075080318750FF10776080318760FF207EE
:1003E400A01BFD29031C0D2AF20CF10CF00CF80CD7
:1003F400F30F0D2A192A0318112AF809F009F10933
:10040400F209F80A0319F00A0319F10A0319F20AA6
:100414008030FA06152A0130FC00B7201F2A02306A
:10042400FC00B7201F2A0430FC0011211F2A0830C9
:0E043400FC0081201F2A0030FC0000000800A0
:0A0442008530FD00FD0B232A0800A1
:06044C00FB15FF30080063
:100452000630FC002B30FD00FD0B2D2AFC0B2D2A53
:02046200080090
:0E046400CF30FD00FD0B342A00000000080020
:100472002000FB0173080319752A7208FA00F217AB
:100482008E30F302F31F782AF309F30A083073025D
:10049200031C5B2AF300F10D7208F100F20108302F
:1004A2007302031C5B2AF300F10DF1017308031DB3
:1004B2000310632A73080319632A0310F20CF10C68
:1004C200F30B5E2A7B1B711C6D2A031C6D2AF10A39
:1004D2000319F20AF21B842AFA1F872AF209F10988
:1004E200F10A0319F20A872AF201F101872A7B1421
:1004F200FB1F8A2AF201FA1F8A2AFF30F200F1005A
:10050200FA0DF20C8A2A0130FC008C2A0030FC0021
:100512008C2AFF30FC00FC080319902A752171080F
:08052200F0007208F10008006E
:10052A0020005908F1000130F00071080319A02ACF
:10053A00F035FF3E9B2A7008DB00F009570884005B
:10054A005808850070088005803084077008800587
:10055A0029225B0880048030840232225B0800056D
:10056A00DA005A08003A013003190030DA00292269
:06057A005A08F000080021
:100580007408003A031DD92A7508003A031DD92AB8
:100590007608003A031DD92A7708003A031DD92AA4
:1005A000FF30F000FF30F1007F30F200FF30F30049
:1005B000732B200077080319672B730803196A2B24
:1005C000720876068039FA00F217F617A001720851
:1005D000F8007108FC007008FD007408FD02750841
:1005E000031C750FFC027608031C760FF802F80155
:1005F000FC01FD01031C032B0310F20CF10CF00CA9
:10060000F80C0130A0007708F302031C0D2B7E309C
:100610002007F30703186D2B122B7E302007F307FA
:10062000031C702B1830FA07FD0DFC0DF80DF00DB2
:10063000F10DF20DA00D7408F0027508031C750F82
:10064000F1027608031C760FF202760DA004201C3E
:100650002B2B7D14362B7408F00775080318750FC3
:10066000F10776080318760AF2077D10FA031F30A7
:100670007A05031D142B7B1B7D1C5D2B0310F00DD5
:10068000F10DF20DA00D7408F0027508031C750F32
:10069000F1027608031C760FF202760D2004013970
:1006A000FD070318FC0A0319F80A031D5D2BF80C5B
:1006B000FC0CFD0CF30A03196D2BFA1FF8137808D4
:1006C000F2007C08F1007D08F0000030722B013050
:1006D0002622722B02306A20722B04308120722B6A
:0806E000083071200000080041
:1006E8002000FA017308031D7A147708031DFA1411
:1006F8007A080319BF2B033A03198A2B7A18872B18
:10070800F61FBD2BBB2BF21FBB2BBD2B72088039EC
:10071800FA00F21376088039F6137A060319982B33
:100728007A080319BB2BBD2B7708730203199F2B7B
:10073800031CB32BB72B760872020319A62B031CD4
:10074800B32BB72B750871020319AD2B031CB32B00
:10075800B72B740870020319BF2B0318B72BFA08BC
:100768000319BD2BBB2BFA080319BB2BBD2B031494
:0E077800080003100800031403150800080011
:100786002000FB017308031D77080319192C720852
:100796007606FA007708F3077E30031CD62BF302A1
:1007A60003181C2CD92BF302031C1F2C7208F8000B
:1007B6007108FC007008FD00F817F6170310F20127
:1007C600F101F0011830A0007D1CF32B7408F0072E
:1007D60075080318750FF10776080318760FF207E8
:1007E600F20CF10CF00CF80CFC0CFD0C0310A00B39
:1007F600E72BF21B032CF80DF00DF10DF20DF303B0
:100806007B1B701C152CF81F152CF00A0319F10A16
:100816000319F20A031D152CF20CF10CF00CF30A65
:1008260003191C2CFA1FF2130030212C01306A2008
:10083600212C02308120212C043071200000080078
:1008460020007008F8007108F000F101F201F301D0
:10085600FB01FC019630F300FA01F01F382CF80971
:10086600F009F80A0319F00AFA177008F100780877
:0A087600F000F801F2011121080062
:0A08800020008030F60682210800F7
:10088A00003020005806031D4C2C00305706031D6B
:10089A00512C5708DE0040218030F00080302000C3
:1008AA0058067002031D5B2C5708003C0318632C82
:1008BA0022000C1420005708DE004021803020005E
:1008CA005806F00080307002031D6D2C003057026C
:1008DA000318822C22000C1020005708F000580838
:1008EA00F100FF30F400FF30F5008D207008D700CA
:0C08FA007108D8007008DE0040210800E2
:1009060020005908F1000130F000710803198E2CFF
:10091600F035FF3E892C7008DD00F0097008DC0018
:1009260057088400580885007008800580308407C1
:10093600DB015B08073C031CB52C5B08F0005A087A
:10094600F10070080319AA2CF136FF3EA52C5C08AD
:100956008005711CB02C5D08800432225D0880047D
:0E096600DB0A9C2C8030840221222122080012
:100974002000CB01CC01CD01CE0158303407F20068
:100984000230353DF3007208C9007308CA005830BC
:100994004707F0000230483DF1007008C7007108B5
:1009A400C8007208F0027308F13B23247008D300D6
:1009B4007108D4007208D5007308D6005308F000FB
:1009C4005408F1005508F2005608F3003608F40004
:1009D4003708F5003808F6003908F700C323700813
:1009E400CF007108D0007208D1007308D2004F08FC
:1009F400CB005008CC005108CD005208CE002C0882
:100A0400F0002D08F1002E08F2002F08F30053081F
:100A1400F4005408F5005508F6005608F700822142
:100A24007008AC007108AD007208AE007308AF0026
:100A34003008F4003108F5003208F6003308F700F6
:100A4400C3234F08F4005008F5005108F60052087B
:100A5400F70082217008CF007108D0007208D1001D
:100A64007308D2004F08CB005008CC005108CD00C9
:100A74005208CE004108F4004208F5004308F6008D
:100A84004408F7005308F0005408F1005508F20038
:100A94005608F30040243D08F4003E08F5003F08E2
:100AA400F6004008F700C3234F08F4005008F5008F
:100AB4005108F6005208F70082217008CB00710833
:100AC400CC007208CD007308CE005308C10054084E
:100AD400C2005508C3005608C4000030F40080303A
:100AE400F5007F30F6008730F70074230130031CD3
:100AF4000030F00070080319872D0030CB008030DF
:100B0400CC007F30CD008730CE004B08F4004C0879
:100B1400F5004D08F6004E08F700F001F101F2016E
:100B2400F30174230130031C0030F0007008031932
:100B34009F2DCB01CC01CD01CE010030F4008030DB
:100B4400F5007F30F6008730F7004B08F0004C08C2
:100B5400F1004D08F2004E08F300C0220030F4000A
:100B64000030F5007F30F6008730F700C3230030F3
:100B7400F4000030F500FF30F6008630F7008221E3
:100B84007008CB007108CC007208CD007308CE0049
:100B940080304806F0008030023A7002031DD42DE4
:100BA400583047020318EE2D4B08F4004C08F500AA
:100BB4004D08F6004E08F700F001F101F201F301CF
:100BC4007423013003180030F00070080319EE2D6F
:100BD400CB01CC01CD01CE018030023AF00080304F
:100BE40048067002031DF82D4708583C0318122EBE
:100BF400F401F501F601F7014B08F0004C08F1008F
:100C04004D08F2004E08F30074230130031800303D
:100C1400F00070080319122ECB01CC01CD01CE01D6
:100C24004B08F0004C08F1004D08F2004E08F300A8
:100C340039227008D7007108D80045240C302000F0
:100C4400D7000030D8000130D90095220C30D700ED
:100C54000030D8000130D900CC30DA0083240C30C5
:100C6400D7000030D8000130D9004808F000003027
:100C7400C81BFF30F1007008DA0083240C30D70061
:100C84000030D8000130D900FF304705DA00832452
:100C94000C30D7000030D8000130D9004A08F000E9
:100CA4000030CA1BFF30F1007008DA0083240C30D6
:100CB400D7000030D8000130D900FF304905DA00F0
:100CC40083240C30D7000030D8000130D9004B0801
:100CD400F0004C08F1004D08F2004E08F3003922F0
:100CE4007108F2000030F11BFF30F3007208DA00E3
:100CF40083240C30D7000030D8000130D9004B08D1
:100D0400F0004C08F1004D08F2004E08F3003922BF
:0A0D1400FF307005DA0083240800A8
:100D1E0021000C1120001C150C3025009304080036
:0A0D2E002500910113129312080032
:100D380012001E00F003031D9C2EF103031D9C2EC0
:020D48000800A1
:100D4A002000F801F9011030FC00710DF80DF90DC1
:100D5A007408F8027508031C750FF9020318BC2EF3
:100D6A007408F80775080318750FF9070310F00DD2
:080D7A00F10DFC0BAA2E08008C
:100D82008627F0302100990018308C0023008C0156
:100D92001E3024008C002100951322001D140C101B
:100DA20020001C109C109F309B0097268F2620004D
:100DB200DE0140212700121648308B00343020001B
:100DC200980021001114200018148B17D701D801A4
:100DD20045242000C501C601C501C6018030460672
:100DE200F0008030033A7002031DF92EE83045020C
:100DF20003180C2F9630C700C801BA246830FC00D3
:100E0200E430FD00FD0B032FFC0B032F0000C50A8D
:100E12000319C60AEF2EC501C60180304606F0004E
:100E22008030013A7002031D182FF4304502031876
:100E32002A2FC701C801BA246830FC00E430FD0043
:100E4200FD0B212FFC0B212F0000C50A0319C60A36
:100E52000E2FC501C60180304606F0008030033AED
:100E62007002031D362FE830450203184A2F6A30FC
:100E7200C700FF30C800BA246830FC00E430FD002F
:100E8200FD0B412FFC0B412F0000C50A0319C60AB6
:100E92002C2FC501C60180304606F0008030013A91
:100EA2007002031D562FF43045020318682FC70144
:100EB200C801BA246830FC00E430FD00FD0B5F2F4E
:100EC200FC0B5F2F0000C50A0319C60A4C2FEA2E3D
:020ED200692F86
:100F0C006D308400873085001930F0000130F1001D
:0C0F1C002C308600003087009C26080066
:080EDA00003400340034003440
:080EE2000A34D73423347934BB
:040EEA00003400349C
:080EEE00CD34CC344C347D34CA
:020EF6000034C6
:040EF80096340034F8
:080EFC001734B734513471348E
:080F0400003400340034003415
:020000040001F9
:04000E00C40F1317F1
:00000001FF
