:02000000502886
:100008007E1480312000911D43282400141D2028CF
:10001800941A16287008403E86008701010891004E
:10002800F00A1516941E20287008403E86008701A5
:1000380001089100F00A151614194328941A282863
:10004800F101F10A11081516941E432871080319C5
:1000580031281108F000F1013E2820307002031801
:100068003D287008403E8600870111088100F00A8B
:100078003E281108951F42289513110815162000CF
:10008800921D4C28240011082000921124001516F6
:10009800200091117E10090051280130F1008D30A7
:1000A8008400803085004030860000308700203092
:1000B800AD202030F0018400003085002030B320CE
:1000C8007E1020006728F030210099001E308C0037
:1000D80023008C0124008C002100951322001D149C
:1000E8000C10803024009400363095001614171632
:1000F8009715171548309200200091119211210090
:10010800921591150B178B003430200098008B172F
:100118008C284834613463346B346134643461341A
:10012800793420345034723469347A346534203464
:100138003234303431343834203452346F34623409
:100148006F34743469346334733420343A34293462
:100158002034FE0012001E00FE0BAE28003464009E
:0A01680080010131890BB428003436
:020000040001F9
:04000E00C4CFFFDF7D
:00000001FF
