:020000004B288B
:100008007E14803120007F08A0000B1C17282700D1
:10001800131E17288B1101302100A8070030A93DB5
:10002800270013128B152000111C47288B1118105C
:100038002130840087308500003FF600013FF7003B
:1000480021002908F1002808F0002C30F2000130C6
:10005800F300E8267108F9007008F8003E267708D2
:100068002100AB007608AA00A801A90122000C18FB
:1000780043282100AA09AB09AA0A0319AB0A8B1560
:100088002000111018142008FF007E1009004C28C9
:100098002000EE012100A001A101A201A301A401F9
:1000A800A501A601A701A801A901AA01AB017E101B
:1000B8002000D12C00302000DF000030E0000030AC
:1000C800E1000030E2000030E3000030E4002100ED
:1000D8002A08583E2000DD00023021002B3D200078
:1000E800DE005608583ED6000230573DD7005D095D
:1000F800D8005E09D900D80A0319D90A5608580742
:10010800A9005708593DAA00C72620002908DF0082
:100118002A08E0002B08E1001E30840087308500A3
:10012800003FB900013FBA00023FBB005F08BC00B6
:100138006008BD006108BE00EF2220003908E20017
:100148003A08E3003B08E4005F08C9006008CA00F9
:100158006108CB00210023082000CC0021002408DE
:100168002000CD00210025082000CE00FA21200023
:1001780049082100A30020004A082100A40020000B
:100188004B082100A5001830840087308500003F07
:100198002000BC00013FBD00023FBE002100230833
:1001A8002000B900210024082000BA0021002508F9
:1001B8002000BB00EF2220003908C9003A08CA0015
:1001C8003B08CB006208CC006308CD006408CE0071
:1001D800FA2120004908E2004A08E3004B08E4003D
:1001E800210020082000A100210021082000A200F1
:1001F800210022082000A3000F2720002108CC009E
:100208002208CD002308CE005F08C9006008CA0094
:100218006108CB00FA2120004908BC004A08BD004B
:100228004B08BE001B30840087308500003FB900B2
:10023800013FBA00023FBB00EF2220003908DA0074
:100248003A08DB003B08DC005A08C9005B08CA0012
:100258005C08CB006208CC006308CD006408CE00BF
:10026800FA2120004908E2004A08E3004B08E400AC
:100278005F082100A000200060082100A1002000E4
:1002880061082100A20020006208A1006308A20002
:100298006408A300E030A400FF30A5004430A600A5
:1002A8000226031C5E29E0302000E200FF30E30054
:1002B8004430E40000302000A1000030A2000030EB
:1002C800A3006208A4006308A5006408A60002262B
:1002D800031C752900302000E2000030E3000030E4
:1002E800E400C0302000C9007F30CA00C430CB0011
:1002F800C030B900FF30BA004430BB00E030A9007C
:10030800FF30AA004430AB006208AC006308AD00BF
:100318006408AE00A22320002908BC002A08BD00FA
:100328002B08BE00EF2220003908CC003A08CD0087
:100338003B08CE00FA2120004908E2004A08E30001
:100348004B08E4005708803AD80082305802031D51
:10035800AF29583056020318C82900302000A100E0
:100368000030A2000030A3006208A4006308A500C2
:100378006408A60002260318C82900302000E200FD
:100388000030E3000030E40020005708803AD8002D
:1003980082305802031DD22959305602031CEB291A
:1003A80020006208A1006308A2006408A3000030CE
:1003B800A4000030A5000030A60002260318EB298F
:1003C80000302000E2000030E3000030E4002000AC
:1003D8006208A1006308A2006408A3004A24200060
:1003E8002208B0002108AF00722608002000490842
:1003F800CF004A08D0004B08D1000310500D510D12
:10040800D2005208D5004C08CF004D08D0004E0845
:10041800D1000310500D510DD2005208D4005508D8
:100428000319222A540855020318292A5503FF3AAA
:100438005407CF0019304F02031C292A4C08C90061
:100448004D08CA004E08CB000800540803190800DC
:10045800550854020318382A5403FF3A5507CF00A9
:1004680019304F02031808000630CF004F08D30098
:10047800CB1BD317CE1B5317CA17FF30C905FF3044
:10048800CA050030CB05CD17FF30CC05FF30CD05B0
:100498000030CE05540855020318742A0130CC35B3
:1004A800CD0DCE0D890B532A0130D40254085506C0
:1004B80003196F2A0130D3025308073903196F2A29
:1004C800522A0130CB36CA0CC90C890B662A013076
:1004D800CF004F08D507550854060319992A652AED
:1004E800550854020318992A0130C935CA0DCB0D95
:1004F800890B792A0130D502540855060319952A23
:100508000130D302530807390319952A782A013094
:10051800CE36CD0CCC0C890B8C2A0130CF004F087D
:10052800D40755085406031D8B2AD31FAB2AFF3066
:10053800C906FF30CA06FF30CB060130C9070030B4
:1005480003180130CA07003003180130CB07531FC6
:10055800BD2AFF30CC06FF30CD06FF30CE06013075
:10056800CC07003003180130CD07003003180130E4
:10057800CE07D3014908CC074A08CD3D4B08CE3DEC
:10058800CE1FD82AFF30CC06FF30CD06FF30CE066E
:100598000130CC07003003180130CD0700300318B4
:1005A8000130CE07D301D30A4C08A1004D08A200A0
:1005B8004E08A3005508CF004F08A4005308D000E8
:1005C8005008A500482520002108C9002208CA00B3
:1005D8002308CB00080020003908BF003A08C000F3
:1005E8003B08C1000310400D410DC2004208C30082
:1005F8004308031D062B0030B9000030BA00003054
:10060800BB0008003C08BF003D08C0003E08C10010
:100618000310400D410DC2004208C8004808031DE0
:100628001C2B0030B9000030BA000030BB000800B5
:1006380048087B3EBF003F08C3073908BF003A0897
:10064800C0003B08C1001030C136C00CBF0C890B7C
:10065800282B3F08C2004208C8003C08BF003D08DC
:10066800C0003E08C1001030C136C00CBF0C890B59
:10067800382B3F08C2004208C8068030BF003F0838
:10068800C805BA17BD17FF30BC05FF30BD050030DF
:10069800BE050030C4000030C5000030C600073079
:1006A800BF003F08C700391C5F2B3C08C4073D0842
:1006B800C53D3E08C63D0130BB36BA0CB90C890BA6
:1006C800602B0130BC35BD0DBE0D890B662B01308A
:1006D800C702031D572B0930BF003F08C700391C4C
:1006E8007B2B3C08C4073D08C53D3E08C63D01308C
:1006F800BB36BA0CB90C890B7C2B0130C636C50C3D
:10070800C40C890B822B0130C702031D732B4408CC
:10071800A1004508A2004608A3004308BF003F08FF
:10072800A4004808C0004008A5004825200021086A
:10073800B9002208BA002308BB00080020002C08D2
:10074800AF002D08B0002E08B1000310300D310D98
:10075800B2003208B7003708031DB92B0030A900D2
:100768000030AA000030AB0008002908AF002A08B2
:10077800B0002B08B1000310300D310DB200320863
:10078800B8003808031DCF2B0030A9000030AA009C
:100798000030AB0008000030B4000030B500003075
:1007A800B60089303807AF002F08B7022C08AF0011
:1007B8002D08B0002E08B1001030B136B00CAF0CC7
:1007C800890BE12B2F08B2003208B8002908AF00C6
:1007D8002A08B0002B08B1001030B136B00CAF0CAD
:1007E800890BF12B2F08B2003208B8068030AF0011
:1007F8002F08B805AD17FF30AC05FF30AD05003048
:10080800AE05AA17FF30A905FF30AA050030AB05D1
:100818001830AF002F08B3000130B435B50DB60D50
:10082800890B112C2B082E02031D202C2A082D02BF
:10083800031D202C29082C02031C292C2908AC0292
:100848002A08AD3B2B08AE3B34140130AC35AD0D56
:10085800AE0D890B2A2C0130B302031D102C34086D
:10086800A1003508A2003608A3003708AF002F08FA
:10087800A4003808B0003008A50048252000210849
:10088800A9002208AA002308AB00080020002108BC
:10089800A5002208A6002308A7000310260D270D8F
:1008A800A8002808AE002E08031D632C0030A40001
:1008B8000030A3000030A2000030A1000800210889
:1008C800A5002208A6002308A7001730A736A60C03
:1008D800A50C890B6A2C2508A8002808A900A217CE
:1008E800FF30A105FF30A2050030A3052108AA00AA
:1008F8002208AB002308AC00AD018E30AE02AE1F5B
:10090800A12C2E08803A8F3E0318932C0030A400A7
:100918000030A3000030A2000030A1000800013020
:10092800AD36AC0CAB0CAA0C890B942C0130A5008D
:100938002508AE070319BA2C932C18302E02031C75
:10094800B72C0030A4000030A3000030A200003013
:10095800A10008000130AA35AB0DAC0DAD0D890B17
:10096800AF2C0130AE022E08031DAE2C2908031946
:10097800C82CAA09AB09AC09AD09AA0A0319AB0A24
:100988000319AC0A0319AD0A2D08A4002C08A3000A
:100998002B08A2002A08A1000800F03021009900C5
:1009A80018308C0023008C011E3024008C0021009C
:1009B800951322001D140C10032700302000A100FD
:1009C800A200A1262700121648308B0034302000E0
:1009D800980021001114200018148B172100AC0175
:1009E800AD012D08803A2000ED0083306D02031D13
:1009F800002DE83021002C020318232D963020000A
:100A0800E5000030E600AD2568302000ED00E43058
:100A1800890B0C2DED0B0C2D000001302100AC07CB
:100A28000030AD3D2D08803A2000ED0083306D0286
:100A3800031D212DE83021002C02031C022D21006A
:100A4800AE01AF012F08803A2000ED0083306D021F
:100A5800031D312DE83021002E020318F22C6A30D4
:100A68002000E500FF30E600AD2568302000ED00ED
:100A7800E430890B3D2DED0B3D2D000001302100A8
:100A8800AE070030AF3D262D200024080319512D54
:100A9800230822042104031D622D0030A100003028
:100AA800A2000030A30008000130A6002608A40711
:100AB8000130A336A20CA10C890B5D2DFE30230555
:100AC80003197B2D582D0130A6002608A4070130F4
:100AD800A107003003180130A207003003180130C5
:100AE800A3070130A336A20CA10C890B762DFF3089
:100AF80023050319882D672D0130A4020130A13583
:100B0800A20DA30D890B832DA21B8E2D023024026A
:100B18000318802D2418962DFF30A1057F30A205DB
:100B2800FF30A3050310A40C2408A600A701A80100
:100B38001030A635A70DA80D890B9D2D2608A104F8
:100B48002708A2042808A304250803190800A317E6
:100B5800080020006508210026062000E700660836
:100B6800210027062000E800E81FBD2D20006E1494
:100B7800BF2D20006E106608803AE70080306702BB
:100B8800031DC82D013065020318DD2D20006E1CE1
:100B9800DD2D21002708803A2000E7008030670219
:100BA800031DD92D0130210026020318DD2D200058
:100BB8006E1020006E1CF32D00302000D600D700E8
:100BC8005E2068302000E700E430890BE92DE70B50
:100BD800E92D000021002A082B04031DE02D200028
:100BE80066082100A700200065082100A600200053
:100BF8006608D7006508D6005E2008002000A31FFD
:100C0800192E2109A7002209A8002309A900A70A6B
:100C18000319A80A0319A90A00302707A100003000
:100C2800283DA2008030293DA300A61F2F2E2409AD
:100C3800A7002509A8002609A900A70A0319A80AD8
:100C48000319A90A00302707A4000030283DA50091
:100C58008030293DA6008030A3068030A6062608ED
:100C68002302031D080025082202031D080024088A
:100C780021020800FB01FC017608770403196D2E98
:100C8800FD01FD0AF71B522E0130F635F70D890BD1
:100C9800492E0130FA007A08FD07462E0130FB354F
:100CA800FC0D890B532E77087902031D5D2E7608FB
:100CB8007802031C642E7608F8027708F93B7B1447
:100CC8000130F736F60C890B652E0130FD02031D45
:100CD800522E7C08F7007B08F600080020002F0839
:100CE8003004031D7C2E3008A2002F08A100A12685
:100CF80020003008803AB10080303102031D862E72
:100D080001302F02031C902E22000C142000300802
:100D1800A2002F08A100A1262000B01F0800220071
:100D28000C102000AF09B009AF0A0319B00A300847
:100D3800A2002F08A100A126080020002208803A5E
:100D4800A30084302302031DAB2E003021020318B8
:100D5800080020002208A4002108A300A436A30C40
:100D6800A436A30C23082500910020002108A30025
:100D78000330A335FF3E031DBD2E233530390C3813
:100D88002500930008002000AE01AA1FD22EA90951
:100D9800AA09A90A0319AA0AAE01AE0A2908A100DC
:100DA8002A08A200A3018E30AC002C08A4002E084B
:100DB800AD002D08A500482520002108A90022081B
:100DC800AA002308AB000800F401F501701CF02EFE
:100DD8007208F4077308F53D0130F235F30D890BFD
:100DE800F12E0130F136F00C890BF62E70087104E3
:100DF800031DEA2E7508F1007408F0000800FF30A2
:100E080020009B000C3025009300910120009110D8
:100E180004309C0008002000230822042104031940
:100E280008008030A3060800D73423343D34D73473
:0E0E380023343C34CD34CC343D349634003475
:020000040001F9
:04000E00C4CFFFDF7D
:00000001FF
