:0200000048288E
:100008007E14803120007F08A0000B1C17282700D1
:10001800131E17288B1101302100B1070030B23DA3
:10002800270013128B152000111C44288B1118105F
:1000380021002A08F7002908F6003208F1003108E3
:10004800F0002C30F2000130F30095267108F90019
:100058007008F800EB2577082000EB007608EA0026
:100068002100B101B20122000C1840282000EA0941
:10007800EB09EA0A0319EB0A8B1520001110181472
:100088002008FF007E1009004928BC308400863013
:100098008500A0308600003087000B30D026EA01AA
:1000A800EB012100AB01AC01AD01AE01AF01B00124
:1000B800B101B2017E102000D42C00302000DF00F6
:1000C8000030E0000030E1000030E2000030E300E2
:1000D8000030E4006A08583EDD0002306B3DDE0067
:1000E8005608583ED6000230573DD7005D09D80063
:1000F8005E09D900D80A0319D90A56085807A90071
:100108005708593DAA00742620002908DF002A084C
:10011800E0002B08E100210026082000B90021009A
:1001280027082000BA00210028082000BB005F082B
:10013800BC006008BD006108BE00F222200039083A
:10014800E2003A08E3003B08E4005F08C9006008E1
:10015800CA006108CB0021002E082000CC00210035
:100168002F082000CD00210030082000CE00FD21FE
:10017800200049082100AE0020004A082100AF00F5
:1001880020004B082100B00020082000BC002100FE
:1001980021082000BD00210022082000BE00210007
:1001A8002E082000B90021002F082000BA002100E5
:1001B80030082000BB00F22220003908C9003A08A4
:1001C800CA003B08CB006208CC006308CD00640875
:1001D800CE00FD2120004908E2004A08E3004B0850
:1001E800E40021002B082000A10021002C08200099
:1001F800A20021002D082000A300C7262000210806
:10020800CC002208CD002308CE005F08C900600892
:10021800CA006108CB00FD2120004908BC004A083B
:10022800BD004B08BE00210023082000B9002100B2
:1002380024082000BA00210025082000BB00F22273
:1002480020003908DA003A08DB003B08DC005A08CD
:10025800C9005B08CA005C08CB006208CC006308D0
:10026800CD006408CE00FD2120004908E2004A08BC
:10027800E3004B08E4005F082100AB0020006008A1
:100288002100AC00200061082100AD0020006208B8
:10029800A1006308A2006408A300E030A400FF30B6
:1002A800A5004430A600AF25031C6129E0302000DA
:1002B800E200FF30E3004430E40000302000A100F9
:1002C8000030A2000030A3006208A4006308A50063
:1002D8006408A600AF25031C782900302000E2003E
:1002E8000030E3000030E400C0302000C9007F3057
:1002F800CA00C430CB00C030B900FF30BA00443067
:10030800BB00E030A900FF30AA004430AB0062080F
:10031800AC006308AD006408AE00A52320002908DE
:10032800BC002A08BD002B08BE00F22220003908B4
:10033800CC003A08CD003B08CE00FD21200049083A
:10034800E2004A08E3004B08E4005708803AD80066
:1003580082305802031DB229583056020318CB299F
:1003680000302000A1000030A2000030A300620885
:10037800A4006308A5006408A600AF250318CB29CC
:1003880000302000E2000030E3000030E4002000EC
:100398005708803AD80082305802031DD5295930B1
:1003A8005602031CEE2920006208A1006308A2007F
:1003B8006408A3000030A4000030A5000030A600A7
:1003C800AF250318EE2900302000E2000030E300DA
:1003D8000030E40020006208A1006308A20064085D
:1003E800A3004D2420002208B0002108AF001F26DA
:1003F800080020004908CF004A08D0004B08D10067
:100408000310500D510DD2005208D5004C08CF00F2
:100418004D08D0004E08D1000310500D510DD200E8
:100428005208D40055080319252A54085502031800
:100438002C2A5503FF3A5407CF0019304F02031CEA
:100448002C2A4C08C9004D08CA004E08CB000800E9
:100458005408031908005508540203183B2A54038A
:10046800FF3A5507CF0019304F020318080006302D
:10047800CF004F08D300CB1BD317CE1B5317CA1777
:10048800FF30C905FF30CA050030CB05CD17FF3056
:10049800CC05FF30CD050030CE05540855020318B1
:1004A800772A0130CC35CD0DCE0D890B562A013077
:1004B800D402540855060319722A0130D30253088E
:1004C80007390319722A552A0130CB36CA0CC90CD0
:1004D800890B692A0130CF004F08D5075508540603
:1004E80003199C2A682A5508540203189C2A0130CB
:1004F800C935CA0DCB0D890B7C2A0130D5025408A9
:1005080055060319982A0130D302530807390319ED
:10051800982A7B2A0130CE36CD0CCC0C890B8F2A39
:100528000130CF004F08D40755085406031D8E2A02
:10053800D31FAE2AFF30C906FF30CA06FF30CB06EC
:100548000130C907003003180130CA07003003180A
:100558000130CB07531FC02AFF30CC06FF30CD0631
:10056800FF30CE060130CC07003003180130CD072C
:10057800003003180130CE07D3014908CC074A08D8
:10058800CD3D4B08CE3DCE1FDB2AFF30CC06FF30D9
:10059800CD06FF30CE060130CC07003003180130FD
:1005A800CD07003003180130CE07D301D30A4C0819
:1005B800A1004D08A2004E08A3005508CF004F081F
:1005C800A4005308D0005008A5004A25200021089F
:1005D800C9002208CA002308CB00080020003908F7
:1005E800BF003A08C0003B08C1000310400D410D90
:1005F800C2004208C3004308031D092B0030B9009C
:100608000030BA000030BB0008003C08BF003D08BD
:10061800C0003E08C1000310400D410DC200420851
:10062800C8004808031D1F2B0030B9000030BA006D
:100638000030BB00080048087B3EBF003F08C307E6
:100648003908BF003A08C0003B08C1001030C13665
:10065800C00CBF0C890B2B2B3F08C2004208C800F6
:100668003C08BF003D08C0003E08C1001030C1363C
:10067800C00CBF0C890B3B2B3F08C2004208C806C0
:100688008030BF003F08C805BA17BD17FF30BC054A
:10069800FF30BD050030BE050030C4000030C50085
:1006A8000030C6000730BF003F08C700391C622B66
:1006B8003C08C4073D08C53D3E08C63D0130BB3671
:1006C800BA0CB90C890B632B0130BC35BD0DBE0DBE
:1006D800890B692B0130C702031D5A2B0930BF0053
:1006E8003F08C700391C7E2B3C08C4073D08C53DA0
:1006F8003E08C63D0130BB36BA0CB90C890B7F2BBE
:100708000130C636C50CC40C890B852B0130C702D5
:10071800031D762B4408A1004508A2004608A30043
:100728004308BF003F08A4004808C0004008A500CF
:100738004A2520002108B9002208BA002308BB0076
:10074800080020002C08AF002D08B0002E08B100CA
:100758000310300D310DB2003208B7003708031D01
:10076800BC2B0030A9000030AA000030AB00080004
:100778002908AF002A08B0002B08B1000310300D7B
:10078800310DB2003208B8003808031DD22B0030F2
:10079800A9000030AA000030AB0008000030B40007
:1007A8000030B5000030B60089303807AF002F0898
:1007B800B7022C08AF002D08B0002E08B100103089
:1007C800B136B00CAF0C890BE42B2F08B2003208FD
:1007D800B8002908AF002A08B0002B08B100103073
:1007E800B136B00CAF0C890BF42B2F08B2003208CD
:1007F800B8068030AF002F08B805AD17FF30AC053C
:10080800FF30AD050030AE05AA17FF30A905FF304F
:10081800AA050030AB051830AF002F08B30001302F
:10082800B435B50DB60D890B142C2B082E02031DFB
:10083800232C2A082D02031D232C29082C02031C13
:100848002C2C2908AC022A08AD3B2B08AE3B3414EB
:100858000130AC35AD0DAE0D890B2D2C0130B30236
:10086800031D132C3408A1003508A2003608A30084
:100878003708AF002F08A4003808B0003008A500DA
:100888004A2520002108A9002208AA002308AB0055
:10089800080020002108A5002208A6002308A700B8
:1008A8000310260D270DA8002808AE002E08031DEA
:1008B800662C0030A4000030A3000030A2000030F5
:1008C800A10008002108A5002208A6002308A70007
:1008D8001730A736A60CA50C890B6D2C2508A80087
:1008E8002808A900A217FF30A105FF30A205003093
:1008F800A3052108AA002208AB002308AC00AD011B
:100908008E30AE02AE1FA42C2E08803A8F3E0318FC
:10091800962C0030A4000030A3000030A200003064
:10092800A10008000130AD36AC0CAB0CAA0C890B49
:10093800972C0130A5002508AE070319BD2C962C6D
:1009480018302E02031CBA2C0030A4000030A3007B
:100958000030A2000030A10008000130AA35AB0D1C
:10096800AC0DAD0D890BB22C0130AE022E08031D63
:10097800B12C29080319CB2CAA09AB09AC09AD097C
:10098800AA0A0319AB0A0319AC0A0319AD0A2D0800
:10099800A4002C08A3002B08A2002A08A100080024
:1009A800F0302100990018308C0023008C011E3093
:1009B80024008C002100951322001D140C10B02671
:1009C80000302000A100A2004E2627001216483051
:1009D8008B003430200098002100111420001814D6
:1009E8008B172100B301B4013408803A2000E900D4
:1009F80083306902031D032DE830210033020318F8
:100A0800262D64302000D6000030D70061206830E1
:100A18002000E900E430890B0F2DE90B0F2D0000B1
:100A280001302100B3070030B43D3408803A20007B
:100A3800E90083306902031D242DE83021003302C8
:100A4800031C052D2100B501B6013608803A2000A7
:100A5800E90083306902031D342DE8302100350296
:100A68000318F52C00302000D600D700612068302C
:100A78002000E900E430890B3F2DE90B3F2D0000F1
:100A880001302100B5070030B63D292D200024088B
:100A98000319532D230822042104031D642D00305B
:100AA800A1000030A2000030A30008000130A60019
:100AB8002608A4070130A336A20CA10C890B5F2DD0
:100AC800FE30230503197D2D5A2D0130A600260876
:100AD800A4070130A107003003180130A207003035
:100AE80003180130A3070130A336A20CA10C890B0F
:100AF800782DFF30230503198A2D692D0130A402B2
:100B08000130A135A20DA30D890B852DA21B902DB7
:100B1800023024020318822D2418982DFF30A105D5
:100B28007F30A205FF30A3050310A40C2408A600FB
:100B3800A701A8011030A635A70DA80D890B9F2D78
:100B48002608A1042708A2042808A30425080319D5
:100B58000800A31708002000A31FC62D2109A7001D
:100B68002209A8002309A900A70A0319A80A03193A
:100B7800A90A00302707A1000030283DA2008030D4
:100B8800293DA300A61FDC2D2409A7002509A800DC
:100B98002609A900A70A0319A80A0319A90A0030F7
:100BA8002707A4000030283DA5008030293DA60075
:100BB8008030A3068030A60626082302031D0800FD
:100BC80025082202031D0800240821020800FB0151
:100BD800FC017608770403191A2EFD01FD0AF71B9C
:100BE800FF2D0130F635F70D890BF62D0130FA008F
:100BF8007A08FD07F32D0130FB35FC0D890B002E1B
:100C080077087902031D0A2E76087802031C112E34
:100C18007608F8027708F93B7B140130F736F60CB2
:100C2800890B122E0130FD02031DFF2D7C08F700F1
:100C38007B08F600080020002F083004031D292E29
:100C48003008A2002F08A1004E2620003008803A64
:100C5800B10080303102031D332E01302F02031CF6
:100C68003D2E22000C1420003008A2002F08A100FD
:100C78004E262000B01F080022000C102000AF09EB
:100C8800B009AF0A0319B00A3008A2002F08A10062
:100C98004E26080020002208803AA3008430230250
:100CA800031D582E003021020318080020002208D6
:100CB800A4002108A300A436A30CA436A30C23087F
:100CC8002500910020002108A3000330A335FF3E32
:100CD800031D6A2E233530390C382500930008008F
:100CE8002000AE01AA1F7F2EA909AA09A90A031983
:100CF800AA0AAE01AE0A2908A1002A08A200A30187
:100D08008E30AC002C08A4002E08AD002D08A500DC
:100D18004A2520002108A9002208AA002308AB00C0
:100D28000800F401F501701C9D2E7208F407730881
:100D3800F53D0130F235F30D890B9E2E0130F13669
:100D4800F00C890BA32E70087104031D972E7508EB
:100D5800F1007408F0000800FF3020009B000C3000
:100D68002500930091012000911004309C00080098
:100D7800CD34CC343D34123483343A349A349934F3
:100D88003E34963400342000230822042104031939
:100D980008008030A3060800FE0012001E00FE0BAB
:040DA800D12E003414
:020000040001F9
:04000E00C4CFFFDF7D
:00000001FF
