:040000008031BE2865
:100008007E1480310B1C21282700131E21288B11F8
:100018002100D50A0319D60A22000C181728FF3028
:100028002100AF071B2801302100AF070030B03D89
:10003800B13DB23D270013128B152000111C5C281E
:100048008B11181021002808F7002708F600560819
:10005800F1005508F0002C30F2000130F300873130
:10006800E52780317108F9007008F8008D31912575
:1000780080317708AC007608AB00D501D6012200A4
:100088000C18582821002B092000A00021002C0959
:100098002000A100A00A0319A10A20082100AB0032
:1000A800200021082100AC008B1520001110181425
:1000B800911DB1288B11210011102400141D8028D6
:1000C800941A722820006C08A03E86008701010857
:1000D800240091002000EC0A24001516941E8028A4
:1000E80020006C08A03E86008701010824009100CA
:1000F8002000EC0A240015161419AC28941A8A2832
:100108002000ED01ED0A240011081516941EAC28F4
:1001180020006D0803199628240011082000EC001F
:10012800ED01A6282B306C020318A4286C08A03E09
:10013800860087012400110881002000EC0AA62807
:10014800240011082400951FAB28951311081516D3
:10015800200091118B15210011142000921DBC283C
:100168002400110820009211240015162000911176
:100178007E1009008031C0280130ED00A030FD015B
:10018800EB01EC0184000030850037308731FA2715
:1001980080317E102000D028F03021009900EB211A
:1001A80080311E308C0023008C0124008C0021003B
:1001B800951322001D140C10803024009400363052
:1001C80095001614171697151715210021082400F5
:1001D80092002000911192112100921591150B1790
:1001E800DF218031A201A3014E21803127001216A0
:1001F80048308B0034302000980021001114200072
:1002080018148B1721002E08EE002D08ED0082210E
:10021800803168302100EF00E430890B1129EF0BA1
:100228001129000006292C082D04031D21292D0859
:10023800A3002C08A2004E21803120002D08803A0E
:10024800AE0080302E02031D2B2901302C02031C26
:10025800362922000C1420002D08A3002C08A20027
:100268004E2180312000AD1F080022000C10FF3005
:100278002000A200A3002D08A5002C08A4006D21D1
:1002880080312308AD002208AC002D08A3002C08FB
:10029800A2004E292308803AA40084302402031DBA
:1002A8005729003022020318080020002308A5005F
:1002B8002208A400A536A40CA536A40C2408250001
:1002C80091002000220EF03930390C3825009300B7
:1002D8000800A601A701221C75292408A6072508DD
:1002E800A73DA435A50DA336A20C22082304031D9F
:1002F8006F292708A3002608A20008007D1889296D
:100308006D086E04031989297D146D0853062200AF
:10031800A00021006E0854062200A100A11F972901
:1003280020006B14992920006B1021006E08803A78
:100338002200A00080302002031DA52901302100E1
:100348006D020318BA2920006B1CBA292100540831
:10035800803A2200A00080302002031DB629013017
:10036800210053020318BA2920006B1020006B1CCF
:10037800D1292000E801E901823134228031683036
:100388002200A000E430890BC729A00BC729000070
:1003980021002B082C04031DBD2921006E08D40060
:1003A8006D08D3006E082000E90021006D082000C8
:1003B800E8008231342AFF3020009B000C302500F1
:1003C800930091012000911004309C000800F33044
:1003D800A0004830A100A2010130A3000530A4000C
:1003E800A501A6019630A700A8012A30A900AA01F4
:1003F800AB01AC01AD01AE01AF01B001B101B20179
:100408003D30B600CC30B500B400CD30B3003C3040
:10041800BA002330B900D730B8000A30B7003D30F1
:10042800BE002330BD00D730BC000A30BB003E30D0
:10043800C2001930C1009930C0009A30BF003D3069
:10044800C600A330C500D730C4000A30C3003C3012
:10045800CA00F530C900C230C8008F30C700080094
:100468002100E901EA01EB01EC012C08E4002B086A
:10047800E3005830E3070230E43D58302000E80735
:100488000230E93D2100630820006802A200210033
:1004980064082000693BA300A401A31BA40324084B
:1004A800A50001308E310926823125082100E80097
:1004B800200024082100E700200023082100E6008E
:1004C800200022082100E50068082000BE00210065
:1004D80067082000BD00210066082000BC0021003C
:1004E80065082000BB001330A03E86008701403F0E
:1004F800BF00413FC000423FC100433FC2008631B8
:100508001A2682313E082100EC0020003D08210017
:10051800EB0020003C082100EA0020003B082100F5
:10052800E90068082000D700210067082000D600ED
:10053800210066082000D500210065082000D400AD
:10054800210052082000DB00210051082000DA00B9
:10055800210050082000D90021004F082000D800B1
:100568008E31AF26823157082100D200200056086C
:100578002100D100200055082100D0002000540897
:100588002100CF001B30A03E86008701403F20009D
:10059800BF00413FC000423FC100433FC2002100AD
:1005A80052082000BE00210051082000BD00210093
:1005B80050082000BC0021004F082000BB008631F5
:1005C8001A2682313E08D7003D08D6003C08D500DF
:1005D8003B08D40021006C082000DB0021006B08D8
:1005E8002000DA0021006A082000D90021006908EB
:1005F8002000D8008E31AF26823157082100EC0048
:10060800200056082100EB00200055082100EA00D0
:10061800200054082100E9006808DE006708DD00B2
:100628006608DC006508DB004E08DA004D08D900D2
:100638004C08D8004B08D7008E317D2682315A08E5
:100648002000C200210059082000C10021005808DC
:100658002000C000210057082000BF001730A03E2E
:1006680086008701403FBB00413FBC00423FBD00C0
:10067800433FBE0086311A2682313E082100E2003F
:1006880020003D082100E10020003C082100E00096
:1006980020003B082100DF0062082000D70021006D
:1006A80061082000D600210060082000D500210044
:1006B8005F082000D40021006C082000DB00210026
:1006C8006B082000DA0021006A082000D900210008
:1006D80069082000D8008E31AF26823157082100E2
:1006E800EC00200056082100EB00200055082100EE
:1006F800EA00200054082100E9006808CE006708D5
:10070800CD006608CC006508CB006C082000A50069
:1007180021006B082000A40021006A082000A30023
:10072800210069082000A2004430A900FF30A80079
:10073800E030A700A601A6248231031CAB2B44306D
:100748002100EC00FF30EB00E030EA00E901200076
:10075800A201A301A401A50121006C082000A900A1
:1007680021006B082000A80021006A082000A700CB
:10077800210069082000A600A6248231031CC92B89
:100788002100E901EA01EB01EC01C4302000D700A7
:100798007F30D600C030D5004430D401BE00FF30D1
:1007A800BD00C030BC004430BB01A500FF30A40030
:1007B800E030A300A20121006C082000A90021005C
:1007C8006B082000A80021006A082000A70021006B
:1007D80069082000A60008252508C2002408C100D1
:1007E8002308C0002208BF0086311A2682313E083D
:1007F800DB003D08DA003C08D9003B08D8008E3100
:10080800AF26823157082100EC002000560821004D
:10081800EB00200055082100EA00200054082100C0
:10082800E90020006908803AEA0082306A02031D64
:100838001F2C5830680203183F2C2000A201A30186
:10084800A401A50121006C082000A90021006B0863
:100858002000A80021006A082000A70021006908DC
:100868002000A600A624823103183F2C2100E901AC
:10087800EA01EB01EC0120006908803AEA008230C5
:100888006A02031D492C59306802031C682C210098
:100898006C082000A50021006B082000A40021009E
:1008A8006A082000A300210069082000A200A60110
:1008B800A701A801A901A62482310318682C2100E8
:1008C800E901EA01EB01EC0158302000680602302A
:1008D8000319690603197D188E2C21006C08200065
:1008E800A50021006B082000A40021006A08200050
:1008F800A300210069082000A200A601A701A80101
:10090800A901A624823103188E2C2100E901EA01ED
:10091800EB01EC0121006C082000A50021006B0808
:100928002000A40021006A082000A3002100690813
:100938002000A2008D31B6252308AD002208AC00A6
:10094800813117298030AA01AB012405AC007F3022
:100958002505AD002C042B042A04031DB72CA20185
:10096800A301A401A5018030AA01AB012805AC00B0
:100978007F302905AD002C042B042A04031DC82C44
:10098800A601A701A801A901A51FDF2C8030AA0193
:10099800AB01AC01AD002208AA022308AB3B240836
:1009A800AC3B2508AD3B2D08A5002C08A4002B085E
:1009B800A3002A08A200A91FF62C8030AA01AB01C7
:1009C800AC01AD002608AA022708AB3B2808AC3BBF
:1009D8002908AD3B2D08A9002C08A8002B08A70062
:1009E8002A08A6008030A506A90629082502031DA5
:1009F800080028082402031D080027082302031DF5
:100A080008002608220208002908AE008030AE053A
:100A18002935B900A81B3914390803191B2D390FBA
:100A2800192DA601A701A801A901A8171E2DA60125
:100A3800A701A801A90125088039AE062535BA0005
:100A4800A41B3A143A080319312D3A0F2F2DA2018D
:100A5800A301A401A501A417342DA201A301A40197
:100A6800A5012508240423042204031D4C2D8030ED
:100A7800A601A701A801A901A8047F30A904290893
:100A8800A5002808A4002708A3002608A20008003B
:100A98003908031D542DA201A301A401A5010800D2
:100AA8003908B300B4013A08B302031CB4037F3019
:100AB800B3070318B40A2908B2002808B1002708A8
:100AC800B0002608AF00A601A701A801A901B50139
:100AD800B601B701B801BA011A303A020318A02DBD
:100AE8003A080319852DAF35B00DB10DB20DA635F5
:100AF800A70DA80DA90DB81B2614B535B60DB70D51
:100B0800B80D25083202031D932D24083102031D58
:100B1800932D23083002031D932D22082F02031C56
:100B28009E2D38172208AF022308B03B2408B13B9A
:100B38002508B23BBA0A702D3208310430042F045C
:100B4800031D3514A81BB72DA635A70DA80DA90D93
:100B5800B81B2614FF30B535B60DB70DB80DB30761
:100B6800031CB403A62DBA01B81FCC2D3508AA0062
:100B78003608AB003708AC007F303805AD002C04D0
:100B88002B042A0403192618CA2DCC2DBA01BA0A37
:100B98003A080319DE2D0130A6070030A73DA83D0D
:100BA800A93D291CDE2DA937A80CA70CA60CB30A51
:100BB8000319B40A3408803AAA0080302A02031DB7
:100BC800E72DFF303302031CF12DFF302000B30066
:100BD800B401A601A701A801A90120003408803AA0
:100BE800AA0080302A02031DFB2D013033020318AE
:100BF800052E2000B301B401A601A701A801A9018F
:100C0800AE0120003308B900391C0C2EA8170D2E90
:100C1800A8133936A9002E08A9042908A500280810
:100C2800A4002708A3002608A20008003E08C70061
:100C38008030C7053E35C900BD1B49144908031952
:100C48002D2E490F2B2EBB01BC01BD01BE01BD17C6
:100C5800312EBB01BC01BD01BE0142088039C70667
:100C68004235C800C11B481448080319432E480FD1
:100C7800412EBF01C001C101C201C117472EBF01EA
:100C8800C001C101C2014808031D4908031D512EB6
:100C9800BB01BC01BD01BE0108003B08A200410820
:100CA8009C2786312308D3002208D200CA00CB0132
:100CB800CC01CD015308CE00CF01D001D1013C08B1
:100CC800A20040089C2786312308D3002208D200BE
:100CD800CA0701300318CB070318CC070318CD0740
:100CE8005308CE0701300318CF070318D00703189D
:100CF800D1073D08A2003F089C2786312308D3006E
:100D08002208D200CA0701300318CB070318CC0702
:100D18000318CD075308CE0701300318CF0703186F
:100D2800D0070318D1074C08CD004B08CC004A085F
:100D3800CB00CA013C08A2003F089C278631230843
:100D4800D3002208D200CA075308CB3D0030CC3D5F
:100D5800CD3D3B08A20040089C2786312308D300DC
:100D68002208D200CA075308CB3D0030CC3DCD3D08
:100D78004C08CD004B08CC004A08CB00CA013B0800
:100D8800A2003F089C2786312308D3002208D200FE
:100D9800CA075308CB3D0030CC3DCD3D3C08A200EE
:100DA80041089C2786312308D3002208D200CE07A9
:100DB8005308CF3D0030D03DD13D3D08A20040084A
:100DC8009C2786312308D3002208D200CE07530877
:100DD800CF3D0030D03DD13D3D08A20041089C27C1
:100DE80086312308D3002208D200C3005308C40068
:100DF800C501C6014508C6004408C5004308C4002B
:100E0800C3014308CE074408CF3D4508D03D4608F6
:100E1800D13D4D08CE0701300318CF070318D0077E
:100E28000318D1074C08CD004B08CC004A08CB006A
:100E3800CA014908D200D3014808D2070318D30AC7
:100E48008230D207031CD303D01B362FCE35CF0DEB
:100E5800D00DD10DCD1B4E14FF30CA35CB0DCC0DA6
:100E6800CD0D252FC801CD1F4B2F4A08C3004B08B5
:100E7800C4004C08C5007F304D05C6004504440435
:100E8800430403194E18492F4B2FC801C80A4808B4
:100E980003195D2F0130CE070030CF3DD03DD13D45
:100EA800511C5D2FD137D00CCF0CCE0CD20A0319B0
:100EB800D30A5308803AC30080304302031D662FCB
:100EC800FF305202031C702F7F302000D100803089
:100ED800D000CF01CE01912F20005308803AC300E3
:100EE80080304302031D7A2F013052020318832FEA
:100EF8002000CE01CF01D001D101C701912F2000E0
:100F08005208C900FF30CE05CF057F30D00500302C
:100F1800D1014918D0174936D1004708D1045108E2
:100F2800BE005008BD004F08BC004E08BB000800BA
:100F3800A700A501A6012208A800A901271CA82F1F
:100F48002808A5072908A63DA835A90DA71CB02F74
:100F58002808A5072908A63DA835A90D271DB82FDB
:100F68002808A5072908A63DA835A90DA71DC02F43
:100F78002808A5072908A63DA835A90D271EC82FAA
:100F88002808A5072908A63DA835A90DA71ED02F12
:100F98002808A5072908A63DA835A90D271FD82F79
:100FA8002808A5072908A63DA835A90DA71FE02FE1
:100FB8002808A5072908A63D2608A3002508A20099
:100FC8000800F401F501701CED2F7208F40773088E
:100FD800F53DF235F30DF136F00C70087104031D80
:100FE800E72F7508F1007408F0000800640080011C
:080FF8000131890BFB2F0034CD
:101B2200FA01FB01760877040319B12DFC01FC0AC6
:101B3200F71B9E2DF635F70D982DFA35FB0D77081C
:101B42007902031DA62D76087802031CAD2D7608B6
:101B5200F8027708F93B7A14F736F60CFC0B9E2D47
:101B62007B08F7007A08F60008002208A60023087E
:101B7200A7002408A8002508A9000310280D290D94
:101B8200AB002B08031DCA2DA201A301A401A501CC
:101B920008002208A6002308A7002408A800250898
:101BA200A9001F30A936A80CA70CA60C890BD32DAF
:101BB2002608AA009630A417A501AB02AB1FED2D93
:101BC2002B08803A973E031CC52DA536A40CA30C06
:101BD200A20CAB0FE62DFA2D20302B020318C52DD7
:101BE2002B080319FA2DA235A30DA40DA50DAB03E5
:101BF200F12D2A0803190800A209A309A409A509BD
:101C0200A20A0319A30A0319A40A0319A50A0800C0
:101C1200AA002A08031DA51F1E2E2209AC002309B3
:101C2200AD002409AE002509AF00AC0A0319AD0AC4
:101C32000319AE0A0319AF0A262E2508AF0024089D
:101C4200AE002308AD002208AC00250824042304BA
:101C52002204031D312EA201A301A401A501080043
:101C62009630AB00FE302F050319482EAB0AAF3673
:101C7200AE0CAD0CAC0C332E0130AB0AAC0700300D
:101C8200AD3DAE3DAF3DAF36AE0CAD0CAC0CFF3052
:101C92002F050319562E3D2E02302B02031C582EFF
:101CA200AB03AC35AD0DAE0DAF0DAE1F4D2E2B18E7
:101CB200612EFF30AC05AD057F30AE05FF30AF05BC
:101CC200AB362B08A900A801A701A6012608AC047F
:101CD2002708AD042808AE042908AF042A08031D0A
:101CE200A51F742EAF172F08A5002E08A4002D08DB
:101CF200A3002C08A20008008030DA065E0820004B
:101D0200D70021005D082000D60021005C082000D9
:101D1200D50021005B082000D40021005A082000D1
:101D2200DB00210059082000DA00210058082000B9
:101D3200D900210057082000D800AF2657082100FB
:101D4200DA00200056082100D900200055082100A1
:101D5200D800200054082100D70008005708E400EA
:101D62008030E4055735E600D61B66146608031971
:101D7200C22E660FC02ED401D501D601D701D617C7
:101D8200C52ED401D501D601D7015B08E50080300C
:101D9200E50565086406031D64175B35E500DA1B7B
:101DA200651465080319DD2E650FDB2ED801D901F4
:101DB200DA01DB01DA17E02ED801D901DA01DB0101
:101DC200660865020318072F641FE92E8030E406B7
:101DD2006608E7006508E6006708E5005408E700C2
:101DE2005808D4006708D8005508E7005908D500FC
:101DF2006708D9005608E7005A08D6006708DA00D3
:101E02005708E7005B08D7006708DB00E7016508B1
:101E1200DC00DD015D08DF0066085C02DE00031CF9
:101E2200DF035F08803AE00080306002031D1B2F51
:101E32001A305E02031C3D2F200057085604550439
:101E420054040319262F0130272F0030E700D40154
:101E5200D501D601D7016508E600422F671C352F50
:101E620067360138E700362FE7365418E717D737B9
:101E7200D60CD50CD40CE60A200065086602031CB9
:101E82002F2F641B662F6608031D4C2FD401D5012A
:101E9200D601D70108005808D4075908D53D5A0879
:101EA200D63D5B08D73D571CCE2F671C5D2FE7360A
:101EB20067080138E7005E2FE7365418E717D7376F
:101EC200D60CD50CD40CE60ACE2F5708803ADC008B
:101ED2005B08803A5C02031D782F5A085602031DE4
:101EE200782F59085502031D782F580854020318F9
:101EF200A72FFF30DC00DD00DE00DF0054085802AF
:101F0200E0005508593BE10056085A3BE2005708E9
:101F12005B3BE3006008DC076108DD3D6208DE3DF3
:101F22006308DF3D5F08D7005E08D6005D08D50074
:101F32005C08D4008030E406E709E70FAF2F0130D8
:101F4200D4070030D53DD63DD73DAF2F5808D40237
:101F52005908D53B5A08D63B5B08D73B570856046D
:101F620055045404031DCC2F6708031DCC2FD40144
:101F7200D501D601D7010800D435D50DD60DD70D20
:101F8200E71B5414671CC82F0314E70DC92FE7354C
:101F92006608031DE603D61FBD2FE501E71FD92FF3
:101FA20067087F3903195418D72FD92FE501E50A9D
:101FB20065080319EA2F0130D4070030D53DD63D1C
:101FC200D73D571CEA2FD737D60CD50CD40C660F49
:101FD200E60A660A031D6608031DF62FD401D50121
:101FE200D601D70166080319E401661CFA2FD61739
:0E1FF200FB2FD6136636D700E41BD717080066
:020000040001F9
:04000E00C4CFFFDF7D
:00000001FF
