:020000040000FA
:040000008031BE2865
:100008007E1480310B1C21282700131E21288B11F8
:100018002100D10A0319D20A22000C181728FF3030
:100028002100AF071B2801302100AF070030B03D89
:10003800B13DB23D270013128B152000111C5C281E
:100048008B11181021002808F7002708F60052081D
:10005800F1005108F0002C30F2000130F300853136
:10006800B52580317108F9007008F80085317B25C5
:1000780080317708AC007608AB00D101D2012200AC
:100088000C18582821002B092000A00021002C0959
:100098002000A100A00A0319A10A20082100AB0032
:1000A800200021082100AC008B1520001110181425
:1000B800911DB1288B11210011102400141D8028D6
:1000C800941A722821005308A03E8600870101086F
:1000D800240091002100D30A24001516941E8028BC
:1000E80021005308A03E86008701010824009100E2
:1000F8002100D30A240015161419AC28941A8A284A
:100108002100EC01EC0A240011081516941EAC28F5
:1001180021006C0803199628240011082100D30037
:10012800EC01A6282B3053020318A4285308A03E3C
:10013800860087012400110881002100D30AA6281F
:10014800240011082400951FAB28951311081516D3
:10015800200091118B15210011142000921DBC283C
:100168002400110820009211240015162000911176
:100178007E1009008031C02821000130EC00FD010B
:100188002000A030EC018400003085003430853137
:10019800F42580312030840001308500103085310D
:1001A800F4257E102000883106282D08B6008030FE
:1001B800B6052D35B800AC1B381438080319EC28DF
:1001C800380FEA28AA01AB01AC01AD01AC17F02841
:1001D800AA01AB01AC01AD0131088039B606313551
:1001E800B700B01B3714370803190229370F002945
:1001F800AE01AF01B001B101B0170629AE01AF01E0
:10020800B001B1013708031D3808031D1029AA01E0
:10021800AB01AC01AD0108002A08A20030085B223E
:1002280080312308C2002208C100B900BA01BB010D
:10023800BC014208BD00BE01BF01C0012B08A200DD
:100248002F085B2280312308C2002208C100B907A9
:1002580001300318BA070318BB070318BC07420884
:10026800BD0701300318BE070318BF070318C007EE
:100278002C08A2002E085B2280312308C200220825
:10028800C100B90701300318BA070318BB070318E0
:10029800BC074208BD0701300318BE070318BF0793
:1002A8000318C0073B08BC003A08BB003908BA006D
:1002B800B9012B08A2002E085B2280312308C20056
:1002C8002208C100B9074208BA3D0030BB3DBC3D19
:1002D8002A08A2002F085B2280312308C2002208C6
:1002E800C100B9074208BA3D0030BB3DBC3D3B08E0
:1002F800BC003A08BB003908BA00B9012A08A200B4
:100308002E085B2280312308C2002208C100B907E9
:100318004208BA3D0030BB3DBC3D2B08A200300866
:100328005B2280312308C2002208C100BD074208B1
:10033800BE3D0030BF3DC03D2C08A2002F085B2207
:1003480080312308C2002208C100BD074208BE3D13
:100358000030BF3DC03D2C08A20030085B22803130
:100368002308C2002208C100B2004208B300B40149
:10037800B5013408B5003308B4003208B300B2013F
:100388003208BD073308BE3D3408BF3D3508C03DBF
:100398003C08BD0701300318BE070318BF07031840
:1003A800C0073B08BC003A08BB003908BA00B901CD
:1003B8003808C100C2013708C1070318C20A8230D1
:1003C800C107031CC203BF1BF529BD35BE0DBF0DF8
:1003D800C00DBC1B3D14FF30B935BA0DBB0DBC0DAB
:1003E800E429B701BC1F0A2A3908B2003A08B30049
:1003F8003B08B4007F303C05B500340433043204B4
:1004080003193D18082A0A2AB701B70A3708031939
:100418001C2A0130BD070030BE3DBF3DC03D401C19
:100428001C2AC037BF0CBE0CBD0CC10A0319C20A76
:100438004208803AB20080303202031D252AFF307C
:100448004102031C2F2A7F302000C0008030BF00EB
:10045800BE01BD01502A20004208803AB200803017
:100468003202031D392A013041020318422A2000B2
:10047800BD01BE01BF01C001B601502A20004108DC
:10048800B800FF30BD05BE057F30BF050030C00194
:100498003818BF173836C0003608C0044008AD0009
:1004A8003F08AC003E08AB003D08AA000800A700C2
:1004B800A501A6012208A800A901271C672A280867
:1004C800A5072908A63DA835A90DA71C6F2A280845
:1004D800A5072908A63DA835A90D271D772A2808AC
:1004E800A5072908A63DA835A90DA71D7F2A280814
:1004F800A5072908A63DA835A90D271E872A28087B
:10050800A5072908A63DA835A90DA71E8F2A2808E2
:10051800A5072908A63DA835A90D271F972A280849
:10052800A5072908A63DA835A90DA71F9F2A2808B1
:10053800A5072908A63D2608A3002508A20008004B
:100548008030DA065E08C6005D08C5005C08C40095
:100558005B08C3005A08CA005908C9005808C800EF
:100568005708C700C0224608DA004508D9004408E1
:10057800D8004308D70008004608D3008030D305C8
:100588004635D500C51B551455080319D32A550FF0
:10059800D12AC301C401C501C601C517D62AC301A2
:1005A800C401C501C6014A08D4008030D4055408E6
:1005B8005306031D53174A35D400C91B5414540855
:1005C8000319EE2A540FEC2AC701C801C901CA0150
:1005D800C917F12AC701C801C901CA01550854023F
:1005E8000318182B531FFA2A8030D3065508D60053
:1005F8005408D5005608D4004308D6004708C3005D
:100608005608C7004408D6004808C4005608C80061
:100618004508D6004908C5005608C9004608D6004E
:100628004A08C6005608CA00D6015408CB00CC01B7
:100638004C08CE0055084B02CD00031CCE034E08D3
:10064800803ACF0080304F02031D2C2B1A304D0208
:10065800031C4E2B20004608450444044304031998
:10066800372B0130382B0030D600C301C401C50137
:10067800C6015408D500532B561C462B5636013854
:10068800D600472BD6364318D617C637C50CC40C28
:10069800C30CD50A200054085502031C402B531BD9
:1006A800762B5508031D5D2BC301C401C501C60186
:1006B80008004708C3074808C43D4908C53D4A081B
:1006C800C63D461CDE2B561C6D2B56360138D6000F
:1006D8006E2BD6364318D617C637C50CC40CC30CB8
:1006E800D50ADE2B4608803ACB004A08803A4B02EE
:1006F800031D882B49084502031D882B480844021E
:10070800031D882B470843020318B72BFF30CB0083
:10071800CC00CD00CE0043084702CF004408483B38
:10072800D0004508493BD10046084A3BD2004F0853
:10073800CB075008CC3D5108CD3D5208CE3D4E0860
:10074800C6004D08C5004C08C4004B08C3008030E3
:10075800D306D609D60FBF2B0130C3070030C43DDE
:10076800C53DC63DBF2B4708C3024808C43B4908DE
:10077800C53B4A08C63B4608450444044304031DD8
:10078800DC2B5608031DDC2BC301C401C501C601BF
:100798000800C335C40DC50DC60DD61B4314561C21
:1007A800D82B0314D60DD92BD6355508031DD503E0
:1007B800C51FCD2BD401D61FE92B56087F39031945
:1007C8004318E72BE92BD401D40A54080319FA2B50
:1007D8000130C3070030C43DC53DC63D461CFA2B59
:1007E800C637C50CC40CC30C550FD50A550A031DD2
:1007F8005508031D062CC301C401C501C6015508CF
:100808000319D301551C0A2CC5170B2CC5135536D3
:10081800C600D31BC6170800F330A0000030B4246C
:1008280084312100A100A2010130B42484312100C7
:10083800A300A401A501A6010230B424843121003B
:10084800A7000330B42484312100A8000430B42464
:1008580084312100A9000530B42484312100AA0084
:10086800AB01AC01AD01AE01AF01B001B101B20104
:100878000830B42484312100B3000930B424843111
:100888002100B4000A30B42484312100B5000B30B3
:10089800B42484312100B6000C30B4248431210002
:1008A800B7000D30B42484312100B8000E30B424D0
:1008B80084312100B9000F30B42484312100BA00FA
:1008C8001030B42484312100BB001130B4248431A9
:1008D8002100BC001230B42484312100BD00133043
:1008E800B42484312100BE001430B42484312100A2
:1008F800BF001530B42484312100C0001630B42460
:1009080084312100C1001730B42484312100C20091
:100918001830B42484312100C3001930B424843140
:100928002100C4001A30B42484312100C5001B30D2
:10093800B42484312100C6001C30B4248431210041
:10094800C7001D30B42484312100C8001E30B424EF
:1009580084312100C9001F30B4242100CA000800D6
:100968002000A200B82C2000640023009518B72CA2
:10097800200022082300910092013F3095051514AC
:10098800130808008030BC01BD013605BE007F3069
:100998003705BF003E043D043C04031DD72CB401B9
:1009A800B501B601B7018030BC01BD013A05BE00F2
:1009B8007F303B05BF003E043D043C04031DE82C8A
:1009C800B801B901BA01BB01B71FFF2C8030BC01C7
:1009D800BD01BE01BF003408BC023508BD3B360866
:1009E800BE3B3708BF3B3F08B7003E08B6003D088E
:1009F800B5003C08B400BB1F162D8030BC01BD01FA
:100A0800BE01BF003808BC023908BD3B3A08BE3BEE
:100A18003B08BF3B3F08BB003E08BA003D08B90091
:100A28003C08B8008030B706BB063B083702031DF8
:100A380008003A083602031D080039083502031D6C
:100A480008003808340208002208A6002308A70076
:100A58002408A8002508A9000310280D290DAB00BB
:100A68002B08031D3C2DA201A301A401A501080028
:100A78002208A6002308A7002408A8002508A90022
:100A88001F30A936A80CA70CA60C890B452D2608E3
:100A9800AA009630A417A501AB02AB1F5F2D2B0847
:100AA800803A973E031C372DA536A40CA30CA20C44
:100AB800AB0F582D6C2D20302B020318372D2B0827
:100AC80003196C2DA235A30DA40DA50DAB03632D41
:100AD8002A0803190800A209A309A409A509A20A5A
:100AE8000319A30A0319A40A0319A50A0800FA019D
:100AF800FB017608770403199B2DFC01FC0AF71B00
:100B0800882DF635F70D822DFA35FB0D7708790219
:100B1800031D902D76087802031C972D7608F8029D
:100B28007708F93B7A14F736F60CFC0B882D7B080E
:100B3800F7007A08F6000800A601A701221CA82DD4
:100B48002408A6072508A73DA435A50DA336A20CA1
:100B580022082304031DA22D2708A3002608A200AB
:100B68000800F401F501701CBD2D7208F407730824
:100B7800F53DF235F30DF136F00C70087104031DE4
:100B8800B72D7508F1007408F000080088315A285C
:100B98008831602888316A28883174288831EC289F
:100BA800893118298931222989319A29A31F0800F6
:100BB8002209A4002309A500A40A0319A50A2408E8
:100BC800A2002508A3000800FF3020009B000C307D
:100BD8002500930091012000911004309C0008002A
:0C0BE800640080010131890BF52D003400
:10100C00F030210099008431102488311E308C007E
:10101C0023008C0124008C002100231818282100A7
:10102C0095171A282100951322001D140C108030DE
:10103C0024009400363095001614171697151715C2
:10104C0021002135240092002000911192112100E1
:10105C00921591150B178531E8258831A201A30152
:10106C00882388312700121648308B00343020003A
:10107C00980021001114200018148B173430200014
:10108C00EB00F130890B4828EB0B4828003220008C
:10109C008C1955282430A2000030DF2288316400DE
:1010AC002100220BF829E4292000AC01AD01FC221F
:1010BC008831EE292E082000AD0021002D082000DB
:1010CC00AC00FC228831EE292E082000E60021001D
:1010DC002D082000E50049268831EE29320831041C
:1010EC0030042F04031D7D1888280F307D14A03E7A
:1010FC0086008701403FCB00413FCC00423FCD00F2
:10110C00433FAD29CE1BC1284E08031D97284D081F
:10111C00031D97284C08031D972801304B02031C14
:10112C00C1282E082000E60021002D082000E50033
:10113C004926883121003208803A2000EB0021003A
:10114C004E08803A20006B022100031DB7284D0881
:10115C003102031DB7284C083002031DB7284B0879
:10116C002F02031CC1287D102000AC01AD01FC2214
:10117C0088312100A201CE1FEE292E082000E600A6
:10118C0021002D082000E5004926883121004E0859
:10119C00803A2000EB0021003208803A20006B02DC
:1011AC002100031DE32831084D02031DE3283008FC
:1011BC004C02031DE3282F084B02031CEE297D1063
:1011CC002000AC01AD01FC228831E1293208310448
:1011DC0030042F04031D7D1800290F307D14A03E10
:1011EC0086008701403FCB00413FCC00423FCD0001
:1011FC00433FAD294E082000E20021004D0820009D
:10120C00E10021004C082000E00021004B082000E8
:10121C00DF00A72388316008E6005F08E500492657
:10122C008831CA292E082000E80021002D08200052
:10123C00E70034238831EE293208310430042F04BE
:10124C00031D7D1836290F307D14A03E86008701C2
:10125C00403FCB00413FCC00423FCD00433FAD2946
:10126C00CE1B6F294E08031D45294D08031D45292A
:10127C004C08031D452901304B02031C6F292E0815
:10128C002000E80021002D082000E70034238831DD
:10129C0021003208803A2000EB0021004E08803AF1
:1012AC0020006B022100031D65294D083102031D2E
:1012BC0065294C083002031D65294B082F02031CBD
:1012CC006F297D102000AC01AD01FC22883121007A
:1012DC00A201CE1FEE292E082000E80021002D08C7
:1012EC002000E7003423883121004E08803A20008A
:1012FC00EB0021003208803A20006B022100031D14
:10130C00912931084D02031D912930084C02031D0F
:10131C0091292F084B02031CEE297D102000AC01F3
:10132C00AD01FC228831E1293208310430042F044C
:10133C00031D7D18B3290F307D14A03E8600870154
:10134C00403FCB00413FCC00423FCD00433FCE005D
:10135C00AF01B001B101B201EE294E082000E2004C
:10136C0021004D082000E10021004C082000E00085
:10137C0021004B082000DF00A72388316008E8001B
:10138C005F08E7003423883121004E083206031D24
:10139C00D9294D083106031DD9294C083006031DE7
:1013AC00D9294B082F06031DEE297D102000AC0116
:1013BC00AD01FC2288312100A201EE292408840011
:1013CC000830040203185A2885310435CA3E8200BD
:1013DC0034302000EB00F130890BF229EB0BF229B1
:1013EC000032FD292000AC01AD01FC228831210026
:1013FC00260B012A01002100250B5528210820006D
:10140C00A2000030DF228831210023082000A20036
:10141C000130DF228831210027082000A200023091
:10142C00DF228831210028082000A2000330DF22AF
:10143C008831210029082000A2000430DF228831E5
:10144C0021002A082000A2000530DF22883121006B
:10145C0033082000A2000830DF2288312100340834
:10146C002000A2000930DF2288312100350820003D
:10147C00A2000A30DF228831210036082000A200A9
:10148C000B30DF228831210037082000A2000C30FD
:10149C00DF228831210038082000A2000D30DF2225
:1014AC008831210039082000A2000E30DF2288315B
:1014BC0021003A082000A2000F30DF2288312100E1
:1014CC003B082000A2001030DF22883121003C08AC
:1014DC002000A2001130DF22883121003D082000BD
:1014EC00A2001230DF22883121003E082000A20029
:1014FC001330DF22883121003F082000A200143075
:10150C00DF228831210040082000A2001530DF22A4
:10151C008831210041082000A2001630DF228831DA
:10152C00210042082000A2001730DF228831210060
:10153C0043082000A2001830DF2288312100440823
:10154C002000A2001930DF2288312100450820003C
:10155C00A2001A30DF228831210046082000A200A8
:10156C001B30DF228831210047082000A2001C30EC
:10157C00DF228831210048082000A2001D30DF2224
:10158C008831210049082000A2001E30DF2288315A
:10159C0021004A082000A2001F30DF22883134309D
:1015AC002000EB00F130890BD92AEB0BD92A003241
:1015BC005528A30023009518E02A200023082300B7
:1015CC009100920120002208230093003F309505E2
:1015DC0003108B1B03148B13151555309600AA3072
:1015EC0096009514151103188B1708002C082D0460
:1015FC00031D062B2D08A3002C08A200882388317C
:10160C0020002D08803AAE0080302E02031D102BD6
:10161C0001302C02031C1B2B22000C1420002D0863
:10162C00A3002C08A200882388312000AD1F0800DD
:10163C0022000C10FF302000A200A3002D08A500F2
:10164C002C08A4008531A02588312308AD00220880
:10165C00AC002D08A3002C08A200882B67082100E1
:10166C004F062000E9006808210050062000EA001F
:10167C00EA1F432B20006C14452B20006C106808CB
:10168C00803AE90080306902031D4E2B013067025D
:10169C000318632B20006C1C632B21005008803A2C
:1016AC002000E90080306902031D5F2B013021000E
:1016BC004F020318632B20006C1020006C1C7A2B3B
:1016CC002000E501E6014926883164003430200011
:1016DC00E900F130890B702BE90B702B00322100E3
:1016EC002B082C04031D662B200068082100D00059
:1016FC00200067082100CF0020006808E60067087A
:10170C00E500492E2308803AA40084302402031DEE
:10171C00912B003022020318080020002308A5009A
:10172C002208A400A536A40CA536A40C2408250078
:10173C0091002000220EF03930390C38250093002E
:10174C0008002100DC01DD01DE01DF012000620860
:10175C00A9006108A8006008A7005F08A600210086
:10176C002F082000A602210030082000A73B2100F2
:10177C0031082000A83B210032082000A93B013091
:10178C00DC25883129082100DB00200028082100F5
:10179C00DA00200027082100D900200026082100AB
:1017AC00D8005B082000AD0021005A082000AC00D6
:1017BC00210059082000AB00210058082000AA0085
:1017CC001F30A03E86008701403FAE00413FAF0076
:1017DC00423FB000433FB1008031D92088312D0801
:1017EC002100DF0020002C082100DE0020002B0847
:1017FC002100DD0020002A082100DC005B0820000D
:10180C00C60021005A082000C500210059082000FC
:10181C00C400210058082000C30022002708200023
:10182C00CA00220026082000C9002200250820003A
:10183C00C800220024082000C7008231C022883151
:10184C0046082200A700200045082200A600200020
:10185C0044082200A500200043082200A4002730E1
:10186C00A03E86008701403F2000AE00413FAF0004
:10187C00423FB000433FB100220027082000AD00DA
:10188C00220026082000AC00220025082000AB0016
:10189C00220024082000AA008031D92088312D088C
:1018AC00C6002C08C5002B08C4002A08C300210060
:1018BC005F082000CA0021005E082000C90021003A
:1018CC005D082000C80021005C082000C7008231A0
:1018DC00C022883146082100DF0020004508210085
:1018EC00DE00200044082100DD0020004308210018
:1018FC00DC005B082000DE0021005A082000DD001F
:10190C00210059082000DC00210058082000DB00D1
:10191C00220023082000DA00220022082000D9002F
:10192C00220021082000D800220020082000D70027
:10193C008231A42288315A08B1005908B0005808E5
:10194C00AF005708AE002330A03E86008701403F11
:10195C00AA00413FAB00423FAC00433FAD00803199
:10196C00D92088312D082100D70020002C08210017
:10197C00D60020002B082100D50020002A082100C9
:10198C00D40057082000C600210056082000C500CE
:10199C00210055082000C400210054082000C30079
:1019AC0021005F082000CA0021005E082000C90049
:1019BC0021005D082000C80021005C082000C70041
:1019CC008231C022883146082100DF002000450802
:1019DC002100DE00200044082100DD002000430827
:1019EC002100DC005B082200A30021005A08220021
:1019FC00A200210059082200A10021005808220051
:101A0C00A00021005F082000B70021005E08200024
:101A1C00B60021005D082000B50021005C08200004
:101A2C00B40021002E082000A30021002D08200066
:101A3C00A2008531DA2588312208A6002308A700E8
:101A4C00890D893B8909A800A9000130DC252908EA
:101A5C00BB002808BA002708B9002608B800843152
:101A6C00C6248831031C5F2D21002E082000A30002
:101A7C0021002D082000A2008531DA2588312208AA
:101A8C00A6002308A700890D893B8909A800A90095
:101A9C000130DC2529082100DF0020002808210066
:101AAC00DE00200027082100DD0020002608210090
:101ABC00DC0021002E082000A30021002D082000AE
:101ACC00A2008531DA2588312209E3002309E400DC
:101ADC00E30A0319E40A6308A6006408A700890D49
:101AEC00893B8909A800A9000130DC252908B70029
:101AFC002808B6002708B5002608B40021005F08A6
:101B0C002000BB0021005E082000BA0021005D0807
:101B1C002000B90021005C082000B8008431C624E4
:101B2C008831031CC52D21002E082000A3002100A4
:101B3C002D082000A2008531DA2588312209E30026
:101B4C002309E400E30A0319E40A6308A600640805
:101B5C00A700890D893B8909A800A9000130DC2563
:101B6C0029082100DF00200028082100DE002000C9
:101B7C0027082100DD00200026082100DC002100C0
:101B8C005F082000A50021005E082000A4002100B1
:101B9C005D082000A30021005C082000A200853114
:101BAC0028252308E0002208DF000800AE002E08DC
:101BBC00031DA91FF12D2609B0002709B100280922
:101BCC00B2002909B300B00A0319B10A0319B20A09
:101BDC000319B30AF92D2908B3002808B200270805
:101BEC00B1002608B0002908280427042604031D88
:101BFC00042EA601A701A801A90108009630AF0088
:101C0C00FE30330503191B2EAF0AB336B20CB10CE0
:101C1C00B00C062E0130AF0AB0070030B13DB23D1A
:101C2C00B33DB336B20CB10CB00CFF303305031915
:101C3C00292E102E02302F02031C2B2EAF03B03591
:101C4C00B10DB20DB30DB21F202E2F1CB213AF3637
:101C5C002F08AD00AC01AB01AA012A08B0042B0877
:101C6C00B1042C08B2042D08B3042E08031DA91FBF
:101C7C00402EB3173308A9003208A8003108A7007A
:101C8C003008A60008002100AB30E801E901EA01A8
:101C9C00EB0186008701403F20006502A600413F12
:101CAC00663BA700A801A71BA8032808A9000130C0
:101CBC00DC25883129082100E700200028082100B4
:101CCC00E600200027082100E5002000260821005E
:101CDC00E40067082000AD00210066082000AC007D
:101CEC00210065082000AB00210064082000AA0038
:101CFC001330A03E86008701403FAE00413FAF004D
:101D0C00423FB000433FB1008031D92088312D08CB
:101D1C002100EB0020002C082100EA0020002B08F9
:101D2C002100E90020002A082100E80067082000B3
:101D3C00C600210066082000C500210065082000AF
:101D4C00C400210064082000C30022002F082000DA
:101D5C00CA0022002E082000C90022002D082000F5
:101D6C00C80022002C082000C7008231C022883114
:101D7C0046082200AF00200045082200AE002000DB
:101D8C0044082200AD00200043082200AC001B30A8
:101D9C00A03E86008701403F2000AE00413FAF00CF
:101DAC00423FB000433FB10022002F082000AD009D
:101DBC0022002E082000AC0022002D082000AB00D1
:101DCC0022002C082000AA008031D92088312D084F
:101DDC00C6002C08C5002B08C4002A08C30021002B
:101DEC006B082000CA0021006A082000C9002100ED
:101DFC0069082000C800210068082000C700823153
:101E0C00C022883146082100EB0020004508210043
:101E1C00EA00200044082100E900200043082100CA
:101E2C00E80067082000DE00210066082000DD00C5
:101E3C00210065082000DC00210064082000DB0084
:101E4C0022002B082000DA0022002A082000D900EA
:101E5C00220029082000D800220028082000D700E2
:101E6C008231A42288315A08B1005908B0005808B0
:101E7C00AF005708AE001730A03E86008701403FE8
:101E8C00AA00413FAB00423FAC00433FAD00803164
:101E9C00D92088312D082100E30020002C082100D6
:101EAC00E20020002B082100E10020002A0821007C
:101EBC00E00063082000C600210062082000C50075
:101ECC00210061082000C400210060082000C3002C
:101EDC0021006B082000CA0021006A082000C900FC
:101EEC00210069082000C800210068082000C700F4
:101EFC008231C022883146082100EB0020004508C1
:101F0C002100EA00200044082100E90020004308D9
:101F1C002100E80067082200AB00210066082200BF
:101F2C00AA00210065082200A900210064082200F3
:101F3C00A80021006B082000B70021006A082000CF
:101F4C00B600210069082000B500210068082000B7
:101F5C00B4004430BB007F30BA00C030B900B801C7
:101F6C008431C6248831031CC32F44302100EB007C
:101F7C007F30EA00C030E900E801C4302000B7002F
:101F8C007F30B600C030B500B40121006B082000D2
:101F9C00BB0021006A082000BA002100690820005B
:101FAC00B900210068082000B8008431C6248831AB
:101FBC00031CE82FC4302100EB007F30EA00C03056
:101FCC00E900E80121006B082000A50021006A0847
:101FDC002000A400210069082000A300210068084B
:101FEC002000A2008531282588312308AD00220865
:041FFC00AC00FC2A0F
:020000040001F9
:04000E009CCFFFDFA5
:10E00000240001000000000000000000FF00FF00ED
:10E010000000000000000000000000000000000000
:10E0200000000000000000000000000000000000F0
:10E0300000000000000000000000000000000000E0
:00000001FF
