:020000004E2888
:100008007E1480310B1C1B282700131E1B288B1104
:100018002100AC0A0319AD0A2A082B040319182871
:100028000130AA020030AB3B270013128B152000C9
:10003800111C4C288B1118109630F600F70121007E
:100048002D08F1002C08F0002C30F2000130F300EC
:100058006F257108F9007008F800E0247708A900F6
:100068007608A800AC01AD0122000C184828FF3022
:10007800F000F10021002908F3002808F2006F259C
:100088007108A9007008A8008B1520001110181419
:100098007E1009004F282000A030EE0184000030B7
:1000A80085000E30A0257E102000172CE601E70100
:1000B800E80121002808583E2000E1000230210014
:1000C800293D2000E2005830DB070230DC3D5C08A7
:1000D800A9005B08A8006108A8026208A93B3F259F
:1000E8002808E3002908E4002A08E500CD30BA0012
:1000F800CC30BB003D30BC006308BD006408BE00C6
:100108006508BF005E223A08E6003B08E7003C08A5
:10011800E8006308C9006408CA006508CB0021002C
:1001280023082000CC00210024082000CD00210055
:1001380025082000CE00AA2149082100A30020009C
:100148004A082100A40020004B082100A50023082C
:100158002000BD00210024082000BE002100250841
:100168002000BF00D730BA002330BB003D30BC00B0
:100178005E223A08C9003B08CA003C08CB00660862
:10018800CC006708CD006808CE00AA214908E6001F
:100198004A08E7004B08E8006308D8006408D9005B
:1001A8006508DA00210020082000D5002100210878
:1001B8002000D600210022082000D7002425550859
:1001C800BD005608BE005708BF00D730BA0023301C
:1001D800BB003C30BC005E223A08DE003B08DF0072
:1001E8003C08E0005E08C9005F08CA006008CB0050
:1001F8006608CC006708CD006808CE00AA21490827
:10020800E6004A08E7004B08E80063082100A00060
:10021800200064082100A100200065082100A20038
:1002280020006608A0006708A1006808A200E03066
:10023800A300FF30A4004430A500B424031C2A29DD
:10024800E030E600FF30E7004430E800A001A101FB
:10025800A2016608A3006708A4006808A500B424E2
:10026800031C3929E601E701E801C030C9007F30E5
:10027800CA00C430CB00C030BA00FF30BB004430E5
:10028800BC00E030AB00FF30AC004430AD00660885
:10029800AE006708AF006808B000C8222B08BD0090
:1002A8002C08BE002D08BF005E223A08CC003B088F
:1002B800CD003C08CE00AA214908E6004A08E7001C
:1002C8004B08E8005C08803ADD0082305D02031DBF
:1002D8006F2958305B02031881292000A001A10171
:1002E800A2016608A3006708A4006808A500B42452
:1002F80003188129E601E701E80120005C08803A3B
:10030800DD0082305D02031D8B2959305B02031C1E
:100318009D2920006608A0006708A1006808A200BF
:10032800A301A401A501B42403189D29E601E7014E
:10033800E80120006608C9006708CA006808CB0001
:100348002A234A08D7004908D600532C4908CF0069
:100358004A08D0004B08D1000310500D510DD400AD
:100368004C08CF004D08D0004E08D1000310500DA6
:10037800510DD30054080319CD29530854025308CA
:100388000318D529CF005408CF0219304F02031C97
:10039800D4294C08C9004D08CA004E08CB000800F3
:1003A800530803190800540853020318E329540892
:1003B800CF005308CF0219304F0203180800063047
:1003C800D200CB1BD217CE1B5217CA17CB01CD17A1
:1003D800CE01530854020318082ACC35CD0DCE0D92
:1003E800D303530854060319032AD20352080739C2
:1003F8000319032AF129CB36CA0CC90CD40A5408AC
:1004080053060319222AFF29540853020318222AE3
:10041800C935CA0DCB0DD4035308540603191E2A37
:10042800D2035208073903191E2A0C2ACE36CD0CDE
:10043800CC0CD30A54085306031D1A2AD21F2D2A9E
:10044800FF30C906CA06CB06C90A0319CA0A031926
:10045800CB0A521F382AFF30CC06CD06CE06CC0A6E
:100468000319CD0A0319CE0AD2014908CC074A0854
:10047800CD3D4B08CE3DCE1F4C2AFF30CC06CD06D5
:10048800CE06CC0A0319CD0A0319CE0AD201D20A24
:100498004C08A0004D08A1004E08A2005408A30073
:1004A8005208A400D9232008C9002108CA0022083C
:1004B800CB0008003A08C0003B08C1003C08C20055
:1004C8000310410D420DC3004308031D6F2ABA01F2
:1004D800BB01BC0108003D08C0003E08C1003F0840
:1004E800C2000310410D420DC8004808031D802AB0
:1004F800BA01BB01BC01080048087B3EC3073C08A1
:10050800C8003F08C8068030C805FF30BB17BE17B3
:10051800BD05BE050730BF01C401C501C601C7003E
:100528003A1C9C2A3D08C4073E08C53D3F08C63D05
:10053800BC36BB0CBA0CBD35BE0DBF0DC70B942A1B
:100548000930C7003A1CAE2A3D08C4073E08C53D1D
:100558003F08C63DBC36BB0CBA0CC636C50CC40C2D
:10056800C70BA62A4408A0004508A1004608A20017
:100578004308A3004808A400D9232008BA0021088A
:10058800BB002208BC0008002E08B1002F08B200EA
:100598003008B3000310320D330DB8003808031DBE
:1005A800D92AAB01AC01AD0108002B08B1002C0819
:1005B800B2002D08B3000310320D330DB90039080D
:1005C800031DEA2AAB01AC01AD0108008930B50171
:1005D800B601B7013907B100B8023008B9002D08D3
:1005E800B9068030B9051830AF17B001AC17AD01A6
:1005F800B400B535B60DB70D2D083002031D0A2B12
:100608002C082F02031D0A2B2B082E02031C132B68
:100618002B08AE022C08AF3B2D08B03B3514AE3585
:10062800AF0DB00DB40BFD2A3508A0003608A100A7
:100638003708A2003808A3003908A400D9232008E5
:10064800AB002108AC002208AD0008004908CD0025
:100658004A08CE004B08CF0003104E0D4F0DD500B1
:100668005508031D3C2BC901CA01CB01CC01080068
:100678004908CD004A08CE004B08CF001730CF36C6
:10068800CE0CCD0C890B432B4D08D000CA17CB01DB
:100698004908D1004A08D2004B08D3008E30D40153
:1006A800D502D51F632B5508803A8F3E031C372B84
:1006B800D436D30CD20CD10CD50F5C2B702B183040
:1006C80055020318372B55080319702BD135D20D55
:1006D800D30DD40DD503672B500803197E2BD109F0
:1006E800D209D309D409D10A0319D20A0319D30AA2
:1006F8000319D40A5408CC005308CB005208CA0086
:100708005108C90008006908210026062000EB00EE
:100718006A08210027062000EC00EC1F962B200019
:100728006E14982B20006E106A08803AEB00803017
:100738006B02031DA12B013069020318B62B2000A0
:100748006E1CB62B21002708803A2000EB00803071
:100758006B02031DB22B0130210026020318B62BB1
:1007680020006E1020006E1CCB2B2000DB01DC016A
:100778005A2068302000EB00E430890BC12BEB0BCA
:10078800C12B0000210028082904031DB92B2000D3
:100798006A082100A700200069082100A60020009F
:1007A8006A08DC006908DB005A2823080319E12BD2
:1007B800220821042004031DE92BA001A101A201A4
:1007C8000800A30AA236A10CA00CFE3022050319CA
:1007D800F72BE52BA30AA00A0319A10A0319A20AF9
:1007E800A236A10CA00CFF3022050319042CEE2B15
:1007F80002302302031C062CA303A035A10DA20D71
:10080800A11FFC2B231CA113A3362308A700A601B4
:10081800A5012508A0042608A1042708A204240885
:10082800031DA2170800F0302100990018308C0031
:1008380023008C011E3024008C0021009513220017
:100848001D140C109425A001A101052527001216DE
:1008580048308B003430200098002100111420000B
:1008680018148B178430D600D701872421002A0852
:100878002B0403194E2C32302000E900EA018723AB
:1008880068302000ED00E430890B482CED0B482C33
:1008980000003A2C2000D601D70153244E2C5608CC
:1008A8005704031D5C2C5708A1005608A000052515
:1008B80020005708803AD80080305802031D662C63
:1008C80001305602031C702C22000C14200057081B
:1008D800A1005608A00005252000D71F0800220007
:1008E8000C10FF302000A000A1005708A3005608F4
:1008F800A2005A252108D7002008D6005708A100D1
:100908005608A000052D5708A9005608A8008425F8
:100918002808AE002908AF002A08B000F230AB0062
:100928000330AC004330AD00C8222B08BD002C08B2
:10093800BE002D08BF00E130BA01BB004330BC0047
:100948005E223A08C9003B08CA003C08CB002A23AB
:100958004A082100AB00200049082100AA0008002D
:10096800A21FC32C2008003CA0002108031C210F53
:10097800003CA1002208031C220F803CA200A51FF6
:10098800D22C2308003CA3002408031C240F003C9D
:10099800A4002508031C250F803CA5008030A20672
:1009A800A50625082202031D080024082102031DAC
:1009B8000800230820020800FB01FC0176087704E0
:1009C8000319002DFA01FA0AF71BED2CF635F70D7D
:1009D800E72CFB35FC0D77087902031DF52C76080A
:1009E8007802031CFC2C7608F8027708F93B7B1484
:1009F800F736F60CFA0BED2C7C08F7007B08F600AE
:100A080008002108803AA20084302202031D0E2D1E
:100A1800003020020318080020002108A300200845
:100A2800A200A336A20CA336A20C2208250091002E
:100A38002000200EF03930390C38250093000800CA
:100A480057085604550403192B2D8030D70658082B
:100A5800C9005908CA005A08CB005508CC005608E6
:100A6800CD005708CE00AA214908D5004A08D6006B
:100A78004B08D7000800AB01A91F492DA809A909EF
:100A8800A80A0319A90AAB01AB0A2808A00029087B
:100A9800A1008E30A201A3002B08A400D9232008AE
:100AA800A8002108A9002208AA000800A401A5019D
:100AB800201C622D2208A4072308A53DA235A30DFA
:100AC800A136A00C20082104031D5C2D2508A100D7
:100AD8002408A0000800F401F501701C772D7208A5
:100AE800F4077308F53DF235F30DF136F00C700894
:100AF8007104031D712D7508F1007408F0000800D9
:100B08002808A0002908A1008E30A201A300A40192
:100B1800D9232008A8002108A9002208AA00080053
:100B2800FF3020009B000C3025009300910120002D
:100B3800911004309C000800640080010131890B89
:080B4800A12D003496340034A5
:020000040001F9
:04000E00C4CFFFDF7D
:00000001FF
