:040000008031BE2865
:100008007E1480310B1C21282700131E21288B11F8
:100018002100D50A0319D60A22000C181728FF3028
:100028002100AF071B2801302100AF070030B03D89
:10003800B13DB23D270013128B152000111C5C281E
:100048008B11181021002808F7002708F600560819
:10005800F1005508F0002C30F2000130F300873130
:10006800E42780317108F9007008F8008F3188277B
:1000780080317708AC007608AB00D501D6012200A4
:100088000C18582821002B092000A00021002C0959
:100098002000A100A00A0319A10A20082100AB0032
:1000A800200021082100AC008B1520001110181425
:1000B800911DB1288B11210011102400141D8028D6
:1000C800941A722820006508A03E8600870101085E
:1000D800240091002000E50A24001516941E8028AB
:1000E80020006508A03E86008701010824009100D1
:1000F8002000E50A240015161419AC28941A8A2839
:100108002000E601E60A240011081516941EAC2802
:100118002000660803199628240011082000E5002D
:10012800E601A6282B3065020318A4286508A03E1E
:10013800860087012400110881002000E50AA6280E
:10014800240011082400951FAB28951311081516D3
:10015800200091118B15210011142000921DBC283C
:100168002400110820009211240015162000911176
:100178007E1009008031C0280130E600A030E4017B
:10018800E50184000030850037308731F927803158
:100198007E102000CF28F03021009900E321803123
:1001A8001E308C0023008C0124008C002100951344
:1001B80022001D140C108030240094003630950065
:1001C80016141716971517152100210824009200F8
:1001D8002000911192112100921591150B17D7212A
:1001E8008031A201A3014D21803127001216483029
:1001F8008B003430200098002100111420001814BE
:100208008B1721002E08E4002D08E300812180319E
:1002180068302000E300E430890B1029E30B102933
:10022800000005292C082D04031D20292D08A300F2
:100238002C08A2004D21803120002D08803AAE0004
:1002480080302E02031D2A2901302C02031C352977
:1002580022000C1420002D08A3002C08A2004D2118
:1002680080312000AD1F080022000C10FF30200054
:10027800A200A3002D08A5002C08A4006C21803141
:100288002308AD002208AC002D08A3002C08A2000A
:100298004D292308803AA40084302402031D5629DE
:1002A800003022020318080020002308A5002208B5
:1002B800A400A536A40CA536A40C2408250091009A
:1002C8002000220EF03930390C3825009300080040
:1002D800A601A701221C74292408A6072508A73D02
:1002E800A435A50DA336A20C22082304031D6E29EC
:1002F8002708A3002608A200080063085306200068
:10030800E1002100640854062000E200E21F8F2962
:100318002000641491292000641021006408803AA8
:100328002000E10080306102031D9D290130210079
:1003380063020318B2292000641CB2292100540862
:10034800803A2000E10080306102031DAE290130AF
:10035800210053020318B229200064102000641CF5
:10036800C9292000DF01E00182312C228031683068
:100378002000E100E430890BBF29E10BBF29000010
:1003880021002B082C04031DB52921006408D40082
:100398006308D30064082000E000210063082000FF
:1003A800DF0082312C2AFF3020009B000C30250012
:1003B800930091012000911004309C000800F33054
:1003C800A0004830A100A2010130A3000530A4001C
:1003D800A501A6019630A700A8012A30A900AA0104
:1003E800AB01AC01AD01AE01AF01B001B101B20189
:1003F8003D30B600CC30B500B400CD30B3003C3051
:10040800BA002330B900D730B8000A30B7003D3001
:10041800BE002330BD00D730BC000A30BB003E30E0
:10042800C2001930C1009930C0009A30BF003D3079
:10043800C600A330C500D730C4000A30C3003C3022
:10044800CA00F530C900C230C8008F30C7000800A4
:100458002100AB30DF01E001E101E2018600870104
:10046800403F20005F02A200413F603BA300A4017F
:10047800A31BA4032408A50001308731702782310B
:1004880025082100DE00200024082100DD002000CE
:1004980023082100DC00200022082100DB005E0880
:1004A8002000AD0021005D082000AC0021005C08A0
:1004B8002000AB0021005B082000AA001330A03EFA
:1004C80086008701403FAE00413FAF00423FB00089
:1004D800433FB100D52382312D082100E2002000DE
:1004E8002C082100E10020002B082100E00020005A
:1004F8002A082100DF005E082000C60021005D08F0
:100508002000C50021005C082000C40021005B0811
:100518002000C300210052082000CA002100510811
:100528002000C900210050082000C80021004F0801
:100538002000C70086311F26823146082100D200DC
:10054800200045082100D100200044082100D000E7
:10055800200043082100CF001B30A03E8600870101
:10056800403F2000AE00413FAF00423FB000433F54
:10057800B100210052082000AD00210051082000E0
:10058800AC00210050082000AB0021004F082000DB
:10059800AA00D5232D08C6002C08C5002B08C400C6
:1005A8002A08C300210062082000CA00210061084F
:1005B8002000C900210060082000C80021005F0851
:1005C8002000C70086311F26823146082100E2003C
:1005D800200045082100E100200044082100E00037
:1005E800200043082100DF005E082000DE00210013
:1005F8005D082000DD0021005C082000DC002100EF
:100608005B082000DB0021004E082000DA002100F2
:100618004D082000D90021004C082000D8002100F6
:100628004B082000D700022682315A08B100590829
:10063800B0005808AF005708AE001730A03E86003B
:100648008701403FAA00413FAB00423FAC00433F17
:10065800AD00D52382312D082100DA0020002C08B6
:100668002100D90020002B082100D80020002A08EA
:100678002100D7005A082000C60021005908200090
:10068800C500210058082000C40021005708200098
:10069800C300210062082000CA0021006108200070
:1006A800C900210060082000C80021005F08200060
:1006B800C70086311F26823146082100E20020004B
:1006C80045082100E100200044082100E000200046
:1006D80043082100DF005E08CE005D08CD005C08FD
:1006E800CC005B08CB0062082000A500210061084F
:1006F8002000A400210060082000A30021005F085A
:100708002000A2004430A9007F30A800C030A70014
:10071800A601A0258231031C992B44302100E20058
:100728007F30E100C030E000DF01C4302000A500C8
:100738007F30A400C030A300A2012100620820007D
:10074800A900210061082000A800210060082000FD
:10075800A70021005F082000A600A0258231031C05
:10076800BD2BC4302100E2007F30E100C030E00042
:10077800DF01210062082000A50021006108200097
:10078800A400210060082000A30021005F082000C9
:10079800A2008F31AD272308AD002208AC008131BB
:1007A80016292D08B6008030B6052D35B800AC1BCB
:1007B800381438080319E82B380FE62BAA01AB01C7
:1007C800AC01AD01AC17EC2BAA01AB01AC01AD013A
:1007D80031088039B6063135B700B01B37143708F1
:1007E8000319FE2B370FFC2BAE01AF01B001B1018D
:1007F800B017022CAE01AF01B001B1013708031DDB
:100808003808031D0C2CAA01AB01AC01AD0108008E
:100818002A08A2003008572582312308C20022087E
:10082800C100B900BA01BB01BC014208BD00BE014C
:10083800BF01C0012B08A2002F08572582312308C9
:10084800C2002208C100B90701300318BA0703180B
:10085800BB070318BC074208BD0701300318BE07D1
:100868000318BF070318C0072C08A2002E08572535
:1008780082312308C2002208C100B90701300318D9
:10088800BA070318BB070318BC074208BD070130A5
:100898000318BE070318BF070318C0073B08BC00AE
:1008A8003A08BB003908BA00B9012B08A2002E0883
:1008B800572582312308C2002208C100B90742081F
:1008C800BA3D0030BB3DBC3D2A08A2002F08572581
:1008D80082312308C2002208C100B9074208BA3D84
:1008E8000030BB3DBC3D3B08BC003A08BB003908A2
:1008F800BA00B9012A08A2002E0857258231230818
:10090800C2002208C100B9074208BA3D0030BB3D09
:10091800BC3D2B08A2003008572582312308C200AD
:100928002208C100BD074208BE3D0030BF3DC03DA2
:100938002C08A2002F08572582312308C20022085C
:10094800C100BD074208BE3D0030BF3DC03D2C0878
:10095800A2003008572582312308C2002208C100AE
:10096800B2004208B300B401B5013408B500330839
:10097800B4003208B300B2013208BD073308BE3DE7
:100988003408BF3D3508C03D3C08BD070130031899
:10099800BE070318BF070318C0073B08BC003A0886
:1009A800BB003908BA00B9013808C100C2013708CC
:1009B800C1070318C20A8230C107031CC203BF1B48
:1009C800F12CBD35BE0DBF0DC00DBC1B3D14FF3055
:1009D800B935BA0DBB0DBC0DE02CB701BC1F062DF7
:1009E8003908B2003A08B3003B08B4007F303C0530
:1009F800B50034043304320403193D18042D062DC0
:100A0800B701B70A37080319182D0130BD070030A0
:100A1800BE3DBF3DC03D401C182DC037BF0CBE0CAD
:100A2800BD0CC10A0319C20A4208803AB2008030DC
:100A38003202031D212DFF304102031C2B2D7F3074
:100A48002000C0008030BF00BE01BD014C2D200039
:100A58004208803AB20080303202031D352D013041
:100A6800410203183E2D2000BD01BE01BF01C00197
:100A7800B6014C2D20004108B800FF30BD05BE0569
:100A88007F30BF050030C0013818BF173836C000A6
:100A98003608C0044008AD003F08AC003E08AB0073
:100AA8003D08AA000800A700A501A6012208A80081
:100AB800A901271C632D2808A5072908A63DA835E4
:100AC800A90DA71C6B2D2808A5072908A63DA83540
:100AD800A90D271D732D2808A5072908A63DA835A7
:100AE800A90DA71D7B2D2808A5072908A63DA8350F
:100AF800A90D271E832D2808A5072908A63DA83576
:100B0800A90DA71E8B2D2808A5072908A63DA835DD
:100B1800A90D271F932D2808A5072908A63DA83544
:100B2800A90DA71F9B2D2808A5072908A63D26085B
:100B3800A3002508A20008008030AA01AB01240503
:100B4800AC007F302505AD002C042B042A04031DBE
:100B5800B12DA201A301A401A5018030AA01AB0116
:100B68002805AC007F302905AD002C042B042A048D
:100B7800031DC22DA601A701A801A901A51FD92DF2
:100B88008030AA01AB01AC01AD002208AA022308FB
:100B9800AB3B2408AC3B2508AD3B2D08A5002C0831
:100BA800A4002B08A3002A08A200A91FF02D80305A
:100BB800AA01AB01AC01AD002608AA022708AB3B8D
:100BC8002808AC3B2908AD3B2D08A9002C08A80033
:100BD8002B08A7002A08A6008030A506A906290820
:100BE8002502031D080028082402031D0800270801
:100BF8002302031D08002608220208008030DA06B6
:100C08005E08C6005D08C5005C08C4005B08C30038
:100C18005A08CA005908C9005808C8005708C70028
:100C280086311F264608DA004508D9004408D8004E
:100C38004308D70008004608D3008030D30546355E
:100C4800D500C51B551455080319322E550F302EE3
:100C5800C301C401C501C601C517352EC301C401AE
:100C6800C501C6014A08D4008030D405540853068B
:100C7800031D53174A35D400C91B541454080319CB
:100C88004D2E540F4B2EC701C801C901CA01C917FF
:100C9800502EC701C801C901CA01550854020318DA
:100CA800772E531F592E8030D3065508D600540886
:100CB800D5005608D4004308D6004708C300560894
:100CC800C7004408D6004808C4005608C8004508AC
:100CD800D6004908C5005608C9004608D6004A0883
:100CE800C6005608CA00D6015408CB00CC014C08EF
:100CF800CE0055084B02CD00031CCE034E08803AA7
:100D0800CF0080304F02031D8B2E1A304D02031C7A
:100D1800AD2E200046084504440443040319962ECA
:100D28000130972E0030D600C301C401C501C601A9
:100D38005408D500B22E561CA52E56360138D600BA
:100D4800A62ED6364318D617C637C50CC40CC30C06
:100D5800D50A200054085502031C9F2E531BD62E7B
:100D68005508031DBC2EC301C401C501C6010800F6
:100D78004708C3074808C43D4908C53D4A08C63D59
:100D8800461C3E2F561CCD2ED63656080138D600A6
:100D9800CE2ED6364318D617C637C50CC40CC30C8E
:100DA800D50A3E2F4608803ACB004A08803A4B02C3
:100DB800031DE82E49084502031DE82E4808440291
:100DC800031DE82E470843020318172FFF30CB00F6
:100DD800CC00CD00CE0043084702CF004408483B72
:100DE800D0004508493BD10046084A3BD2004F088D
:100DF800CB075008CC3D5108CD3D5208CE3D4E089A
:100E0800C6004D08C5004C08C4004B08C30080301C
:100E1800D306D609D60F1F2F0130C3070030C43DB3
:100E2800C53DC63D1F2F4708C3024808C43B4908B3
:100E3800C53B4A08C63B4608450444044304031D11
:100E48003C2F5608031D3C2FC301C401C501C60130
:100E58000800C335C40DC50DC60DD61B4314561C5A
:100E6800382F0314D60D392FD6355508031DD50351
:100E7800C51F2D2FD401D61F492F56087F390319B6
:100E88004318472F492FD401D40A540803195A2F5D
:100E98000130C3070030C43DC53DC63D461C5A2F2E
:100EA800C637C50CC40CC30C550FD50A550A031D0B
:100EB8005508031D662FC301C401C501C6015508A5
:100EC8000319D301551C6A2FC5176B2FC513553647
:100ED800C600D31BC6170800AA002A08031DA51FB1
:100EE800852F2209AC002309AD002409AE0025098D
:100EF800AF00AC0A0319AD0A0319AE0A0319AF0A09
:100F08008D2F2508AF002408AE002308AD00220865
:100F1800AC002508240423042204031D982FA201F1
:100F2800A301A401A50108009630AB00FE302F05EF
:100F38000319AF2FAB0AAF36AE0CAD0CAC0C9A2F21
:100F48000130AB0AAC070030AD3DAE3DAF3DAF362A
:100F5800AE0CAD0CAC0CFF302F050319BD2FA42F20
:100F680002302B02031CBF2FAB03AC35AD0DAE0D09
:100F7800AF0DAE1FB42F2B18C82FFF30AC05AD0531
:100F88007F30AE05FF30AF05AB362B08A900A801AE
:100F9800A701A6012608AC042708AD042808AE045A
:100FA8002908AF042A08031DA51FDB2FAF172F0838
:100FB800A5002E08A4002D08A3002C08A2000800F4
:100FC800F401F501701CEC2F7208F4077308F53D65
:100FD800F235F30DF136F00C70087104031DE62F9D
:100FE8007508F1007408F000080064008001013100
:060FF800890BFA2F003402
:101F1000FA01FB01760877040319A82FFC01FC0ADB
:101F2000F71B952FF635F70D8F2FFA35FB0D770838
:101F30007902031D9D2F76087802031CA42F7608D2
:101F4000F8027708F93B7A14F736F60CFC0B952F5C
:101F50007B08F7007A08F60008002208A60023088C
:101F6000A7002408A8002508A9000310280D290DA2
:101F7000AB002B08031DC12FA201A301A401A501E1
:101F800008002208A6002308A7002408A8002508A6
:101F9000A9001F30A936A80CA70CA60C890BCA2FC4
:101FA0002608AA009630A417A501AB02AB1FE42FA8
:101FB0002B08803A973E031CBC2FA536A40CA30C1B
:101FC000A20CAB0FDD2FF12F20302B020318BC2FFA
:101FD0002B080319F12FA235A30DA40DA50DAB03FA
:101FE000E82F2A0803190800A209A309A409A509D2
:101FF000A20A0319A30A0319A40A0319A50A0800CF
:020000040001F9
:04000E00C4CFFFDF7D
:00000001FF
