:020000040000FA
:040000008031BE2865
:100008007E1480310B1C21282700131E21288B11F8
:100018002100CD0A0319CE0A22000C181728FF3038
:100028002100AF071B2801302100AF070030B03D89
:10003800B13DB23D270013128B152000111C5C281E
:100048008B11181021002808F7002708F6004E0821
:10005800F1004D08F0002C30F2000130F300863139
:10006800872680317108F9007008F8008631622609
:1000780080317708AC007608AB00CD01CE012200B4
:100088000C18582821002B092000A00021002C0959
:100098002000A100A00A0319A10A20082100AB0032
:1000A800200021082100AC008B1520001110181425
:1000B800911DB1288B11210011102400141D8028D6
:1000C800941A722821004F08A03E86008701010873
:1000D800240091002100CF0A24001516941E8028C0
:1000E80021004F08A03E86008701010824009100E6
:1000F8002100CF0A240015161419AC28941A8A284E
:100108002100ED01ED0A240011081516941EAC28F3
:1001180021006D0803199628240011082100CF003A
:10012800ED01A6282B304F020318A4284F08A03E43
:10013800860087012400110881002100CF0AA62823
:10014800240011082400951FAB28951311081516D3
:10015800200091118B15210011142000921DBC283C
:100168002400110820009211240015162000911176
:100178007E1009008031C02821000130ED00FD010A
:100188002000A030EF01EB01EC01ED01EE0184004D
:100198000030850030308631AC2680312030840034
:1001A8000130850010308631AC267E102000883161
:1001B80006282100AB30E401E501E601E7018600ED
:1001C8008701403F20006502A600413F663BA7002B
:1001D800A801A71BA8032808A90001308E311D26F5
:1001E800803129082100E300200028082100E200CE
:1001F800200027082100E100200026082100E00057
:1002080063082000AD00210062082000AC00210036
:1002180061082000AB00210060082000AA0013300C
:10022800A03E86008701403FAE00413FAF00423FFD
:10023800B000433FB100912280312D082100E70032
:1002480020002C082100E60020002B082100E500F2
:1002580020002A082100E40063082000C6002100CD
:1002680062082000C500210061082000C4002100A8
:1002780060082000C30022002F082000CA002200C6
:100288002E082000C90022002D082000C8002200E6
:100298002C082000C70084315C24803146082200E5
:1002A800AF00200045082200AE00200044082200CC
:1002B800AD00200043082200AC001B30A03E8600A1
:1002C8008701403F2000AE00413FAF00423FB000F1
:1002D800433FB10022002F082000AD0022002E0865
:1002E8002000AC0022002D082000AB0022002C08C2
:1002F8002000AA0091222D08C6002C08C5002B0852
:10030800C4002A08C300210067082000CA00210091
:1003180066082000C900210065082000C8002100E7
:1003280064082000C70084315C248031460821001D
:10033800E700200045082100E600200044082100CD
:10034800E500200043082100E40063082000DE00E7
:10035800210062082000DD00210061082000DC0087
:10036800210060082000DB0022002B082000DA00B2
:1003780022002A082000D900220029082000D800DD
:10038800220028082000D7008F317B2780315A08A7
:10039800B1005908B0005808AF005708AE00173030
:1003A800A03E86008701403FAA00413FAB00423F84
:1003B800AC00433FAD00912280312D082100DF00C1
:1003C80020002C082100DE0020002B082100DD0081
:1003D80020002A082100DC005F082000C600210058
:1003E8005E082000C50021005D082000C40021002F
:1003F8005C082000C300210067082000CA00210013
:1004080066082000C900210065082000C8002100F6
:1004180064082000C70084315C248031460821002C
:10042800E700200045082100E600200044082100DC
:10043800E500200043082100E40063082200AB0027
:10044800210062082200AA00210061082200A900F8
:10045800210060082200A800210067082000B700DA
:10046800210066082000B600210065082000B500BC
:10047800210064082000B4004430BB007F30BA007B
:10048800C030B900B8018F310D278031031C542AC0
:1004980044302100E7007F30E600C030E500E40189
:1004A800C4302000B7007F30B600C030B500B401BA
:1004B800210067082000BB00210066082000BA0060
:1004C800210065082000B900210064082000B80058
:1004D8008F310D278031031C792AC4302100E700B1
:1004E8007F30E600C030E500E40121006708200005
:1004F800A500210066082000A4002100650820004E
:10050800A300210064082000A2008F31AD27230832
:10051800AD002208AC008B31B62B2D08B600803018
:10052800B6052D35B800AC1B381438080319A42AB1
:10053800380FA22AAA01AB01AC01AD01AC17A82A59
:10054800AA01AB01AC01AD0131088039B6063135DD
:10055800B700B01B371437080319BA2A370FB82A5F
:10056800AE01AF01B001B101B017BE2AAE01AF01B3
:10057800B001B1013708031D3808031DC82AAA01B4
:10058800AB01AC01AD0108002A08A2003008132411
:1005980080312308C2002208C100B900BA01BB019A
:1005A800BC014208BD00BE01BF01C0012B08A2006A
:1005B8002F08132480312308C2002208C100B9077C
:1005C80001300318BA070318BB070318BC07420811
:1005D800BD0701300318BE070318BF070318C0077B
:1005E8002C08A2002E08132480312308C2002208F8
:1005F800C100B90701300318BA070318BB0703186D
:10060800BC074208BD0701300318BE070318BF071F
:100618000318C0073B08BC003A08BB003908BA00F9
:10062800B9012B08A2002E08132480312308C20028
:100638002208C100B9074208BA3D0030BB3DBC3DA5
:100648002A08A2002F08132480312308C200220898
:10065800C100B9074208BA3D0030BB3DBC3D3B086C
:10066800BC003A08BB003908BA00B9012A08A20040
:100678002E08132480312308C2002208C100B907BC
:100688004208BA3D0030BB3DBC3D2B08A2003008F3
:10069800132480312308C2002208C100BD07420884
:1006A800BE3D0030BF3DC03D2C08A2002F081324DA
:1006B80080312308C2002208C100BD074208BE3DA0
:1006C8000030BF3DC03D2C08A20030081324803103
:1006D8002308C2002208C100B2004208B300B401D6
:1006E800B5013408B5003308B4003208B300B201CC
:1006F8003208BD073308BE3D3408BF3D3508C03D4C
:100708003C08BD0701300318BE070318BF070318CC
:10071800C0073B08BC003A08BB003908BA00B90159
:100728003808C100C2013708C1070318C20A82305D
:10073800C107031CC203BF1BAD2BBD35BE0DBF0DCA
:10074800C00DBC1B3D14FF30B935BA0DBB0DBC0D37
:100758009C2BB701BC1FC22B3908B2003A08B30062
:100768003B08B4007F303C05B50034043304320440
:1007780003193D18C02BC22BB701B70A3708031954
:10078800D42B0130BD070030BE3DBF3DC03D401CED
:10079800D42BC037BF0CBE0CBD0CC10A0319C20A4A
:1007A8004208803AB20080303202031DDD2BFF3050
:1007B8004102031CE72B7F302000C0008030BF00BF
:1007C800BE01BD01082C20004208803AB2008030EA
:1007D8003202031DF12B013041020318FA2B2000CD
:1007E800BD01BE01BF01C001B601082C20004108AF
:1007F800B800FF30BD05BE057F30BF050030C00121
:100808003818BF173836C0003608C0044008AD0095
:100818003F08AC003E08AB003D08AA000800A7004E
:10082800A501A6012208A800A901271C1F2C280839
:10083800A5072908A63DA835A90DA71C272C280817
:10084800A5072908A63DA835A90D271D2F2C28087E
:10085800A5072908A63DA835A90DA71D372C2808E6
:10086800A5072908A63DA835A90D271E3F2C28084D
:10087800A5072908A63DA835A90DA71E472C2808B5
:10088800A5072908A63DA835A90D271F4F2C28081C
:10089800A5072908A63DA835A90DA71F572C280884
:1008A800A5072908A63D2608A3002508A2000800D8
:1008B8004608D3008030D3054635D500C51B5514EE
:1008C800550803196F2C550F6D2CC301C401C501C0
:1008D800C601C517722CC301C401C501C6014A0867
:1008E800D4008030D40554085306031D53174A35E5
:1008F800D400C91B5414540803198A2C540F882C8B
:10090800C701C801C901CA01C9178D2CC701C8018F
:10091800C901CA01550854020318B42C531F962C58
:100928008030D3065508D6005408D5005608D400A0
:100938004308D6004708C3005608C7004408D60035
:100948004808C4005608C8004508D6004908C5002C
:100958005608C9004608D6004A08C6005608CA0004
:10096800D6015408CB00CC014C08CE0055084B02E8
:10097800CD00031CCE034E08803ACF0080304F02D2
:10098800031DC82C1A304D02031CEA2C200046080F
:100998004504440443040319D32C0130D42C0030FB
:1009A800D600C301C401C501C6015408D500EF2C07
:1009B800561CE22C56360138D600E32CD63643189E
:1009C800D617C637C50CC40CC30CD50A200054086A
:1009D8005502031CDC2C531B122D5508031DF92C42
:1009E800C301C401C501C60108004708C307480878
:1009F800C43D4908C53D4A08C63D461C7A2D561CCB
:100A0800092D56360138D6000A2DD6364318D61782
:100A1800C637C50CC40CC30CD50A7A2D4608803AD3
:100A2800CB004A08803A4B02031D242D4908450291
:100A3800031D242D48084402031D242D47084302A2
:100A48000318532DFF30CB00CC00CD00CE00430857
:100A58004702CF004408483BD0004508493BD10035
:100A680046084A3BD2004F08CB075008CC3D5108F6
:100A7800CD3D5208CE3D4E08C6004D08C5004C0875
:100A8800C4004B08C3008030D306D609D60F5B2DAF
:100A98000130C3070030C43DC53DC63D5B2D470846
:100AA800C3024808C43B4908C53B4A08C63B460838
:100AB800450444044304031D782D5608031D782D6E
:100AC800C301C401C501C6010800C335C40DC50D65
:100AD800C60DD61B4314561C742D0314D60D752D44
:100AE800D6355508031DD503C51F692DD401D61F5A
:100AF800852D56087F3903194318832D852DD40178
:100B0800D40A54080319962D0130C3070030C43D98
:100B1800C53DC63D461C962DC637C50CC40CC30C36
:100B2800550FD50A550A031D5508031DA22DC301EB
:100B3800C401C501C60155080319D301551CA62DCA
:100B4800C517A72DC5135536C600D31BC6170800F1
:100B5800F330A0000030502685312100A100A20109
:100B68000130502685312100A300A401A501A6016A
:100B78000230502685312100A700033050268531E8
:100B88002100A8000430502685312100A900053035
:100B9800502685312100AA00AB01AC01AD01AE01A0
:100BA800AF01B001B101B2010830502685312100F2
:100BB800B3000930502685312100B4000A30502690
:100BC80085312100B5000B30502685312100B60053
:100BD8000C30502685312100B7000D305026853164
:100BE8002100B8000E30502685312100B9000F30A1
:100BF800502685312100BA00103050268531210059
:100C0800BB001130502685312100BC00123050261F
:100C180085312100BD001330502685312100BE00EA
:100C28001430502685312100BF00153050268531FB
:100C38002100C0001630502685312100C100173030
:100C4800502685312100C2001830502685312100F8
:100C5800C3001930502685312100C4001A305026AF
:100C680085312100C5001B30502685312100C60082
:100C78001C30502685312100C7001D305026853193
:100C88002100C8001E30502685312100C9001F30C0
:100C980050262100CA0008002000A200542E20007F
:100CA800640023009518532E200022082300910089
:100CB80092013F309505151413080800FB01FC014B
:100CC800760877040319822EFA01FA0AF71B6F2EA9
:100CD800F635F70D692EFB35FC0D77087902031DF3
:100CE800772E76087802031C7E2E7608F80277089D
:100CF800F93B7B14F736F60CFA0B6F2E7C08F700DD
:100D08007B08F6000800F401F501701C8F2E7208AC
:100D1800F4077308F53DF235F30DF136F00C700861
:100D28007104031D892E7508F1007408F00008008D
:100D38008831592888315F28883169288831742892
:100D48008831EF2889315629893160298931F92973
:0C0D5800640080010131890BAD2E0034D5
:10100C00F030210099008531AC2588311E308C00E0
:10101C0023008C0124008C002100231818282100A7
:10102C0095171A282100951322001D140C108030DE
:10103C0024009400363095001614171697151715C2
:10104C0021002135240092002000911192112100E1
:10105C00921591150B176F278831A201A301EE266B
:10106C0088312700121648308B003430200098004D
:10107C0021001114200018148B1734302100E800C3
:10108C00F130890B4728E80B4728003220008C19D7
:10109C0054282430A20000309923883164002100A8
:1010AC00220B9F2A8B2A2000AC01AD01B62388317C
:1010BC00952A2E082000AD0021002D082000AC0040
:1010CC00B6238831952A2E082000E60021002D0831
:1010DC002000E5008031DD208831952A320831046A
:1010EC0030042F04031D7D1889280F307D14A03E79
:1010FC0086008701403F2000EB00413FEC00423F5F
:10110C00ED00433F0D2A2000EE1BCE286E08031D78
:10111C0099286D08031D99286C08031D9928013026
:10112C006B02031CCE2821002E082000A3002100F6
:10113C002D082000A2008A262308E6002208E500DC
:10114C008031DD20883121003208803AE80020000F
:10115C006E08803A21006802031DC42820006D0827
:10116C0021003102031DC42820006C08210030022C
:10117C00031DC42820006B0821002F02031CCE285D
:10118C007D102000AC01AD01B62388312100A201F5
:10119C002000EE1F952A21002E082000A30021001C
:1011AC002D082000A2008A2622092100E800200038
:1011BC0023092100E900E80A0319E90A680820005C
:1011CC00E500210069082000E6008031DD2088312F
:1011DC00DA293208310430042F04031D7D18042948
:1011EC000F307D14A03E86008701403F2000EB00AD
:1011FC00413FEC00423FED00433F0D2A20006E08BA
:10120C00E2006D08E1006C08E0006B08DF00ED23E4
:10121C006008E6005F08E5008031DD208831FB3096
:10122C002100E800FF30E900EA00EB00AF30860057
:10123C008701403FE807413FE93D423FEA3D433FDC
:10124C00EB3D20006E08803A2100EC006B08803AE0
:10125C006C022000031D422921006A0820006D0247
:10126C00031D42292100690820006C02031D42293C
:10127C002100680820006B02031C952A0530210010
:10128C00E8000F30E901EA01EB01A03E860087017E
:10129C00403FE807413FE93D423FEA3D433F652A75
:1012AC002E082000E80021002D082000E7009826D9
:1012BC008831952A3208310430042F04031D7D181F
:1012CC0075290F307D14A03E86008701403F200019
:1012DC00EB00413FEC00423FED00433F0D2A200064
:1012EC00EE1BBA296E08031D85296D08031D85297F
:1012FC006C08031D852901306B02031CBA292100DF
:10130C002E082000A30021002D082000A2008A2610
:10131C0088312308E8002208E7009826883121004C
:10132C003208803AE80020006E08803A21006802FA
:10133C00031DB02920006D0821003102031DB029C6
:10134C0020006C0821003002031DB02920006B081E
:10135C0021002F02031CBA297D102000AC01AD0125
:10136C00B62388312100A2012000EE1F952A21000E
:10137C002E082000A30021002D082000A2008A26A0
:10138C00883122092100E800200023092100E9000E
:10139C00E80A0319E90A68082000E7002100690837
:1013AC002000E8009826883120006E08803A210041
:1013BC00E8003208803A68022000031DF52921005C
:1013CC00310820006D02031DF52921003008200092
:1013DC006C02031DF52921002F0820006B02031C51
:1013EC00952A7D10842A3208310430042F04031D01
:1013FC007D18142A0F307D14A03E86008701403FD3
:10140C002000EB00413FEC00423FED00433FEE007B
:10141C002100AF01B001B101B201952A20006E0884
:10142C00E2006D08E1006C08E0006B08DF00ED23C2
:10143C0088316008E8005F08E70098268831FB30A7
:10144C002100E800FF30E900EA00EB00AF30860035
:10145C008701403FE807413FE93D423FEA3D433FBA
:10146C00EB3D20006E08803A2100EC006B08803ABE
:10147C006C022000031D522A21006A0820006D0214
:10148C00031D522A2100690820006C02031D522AF8
:10149C002100680820006B02031C952A05302100EE
:1014AC00E8000F30E901EA01EB01A03E860087015C
:1014BC00403FE807413FE93D423FEA3D433FEB3DBA
:1014CC006B08803AEC0020006E08803A21006C0218
:1014DC00031D802A20006D0821006A02031D802A4A
:1014EC0020006C0821006902031D802A20006B0873
:1014FC0021006802031C952A7D102000AC01AD016F
:10150C00B62388312100A201952A240884000830D2
:10151C00040203185928863104359C3E820034306D
:10152C002100E800F130890B992AE80B992A003246
:10153C00B52A2000AC01AD01B62388312200AC01E4
:10154C00AD01AE01AF01A801A901AA01AB01A40133
:10155C00A501A601A701A001A101A201A3012100DF
:10156C00260BB92A01002100250B54282108200044
:10157C00A200003099238831210023082000A2000A
:10158C00013099238831210027082000A200023065
:10159C0099238831210028082000A20003309923C8
:1015AC008831210029082000A200043099238831B9
:1015BC0021002A082000A20005309923883121003F
:1015CC0033082000A2000830992388312100340808
:1015DC002000A20009309923883121003508200011
:1015EC00A2000A3099238831210036082000A2007D
:1015FC000B3099238831210037082000A2000C30D1
:10160C0099238831210038082000A2000D3099233D
:10161C008831210039082000A2000E30992388312E
:10162C0021003A082000A2000F30992388312100B4
:10163C003B082000A20010309923883121003C087F
:10164C002000A20011309923883121003D08200090
:10165C00A20012309923883121003E082000A200FC
:10166C0013309923883121003F082000A200143048
:10167C0099238831210040082000A20015309923BD
:10168C008831210041082000A200163099238831AE
:10169C00210042082000A200173099238831210034
:1016AC0043082000A20018309923883121004408F7
:1016BC002000A20019309923883121004508200010
:1016CC00A2001A3099238831210046082000A2007C
:1016DC001B3099238831210047082000A2001C30C0
:1016EC0099238831210048082000A2001D3099233D
:1016FC008831210049082000A2001E30992388312E
:10170C0021004A082000A2001F3099238831343070
:10171C002100E800F130890B912BE80B912B003262
:10172C002100A5015428A300230095189A2B200012
:10173C00230823009100920120002208230093002B
:10174C003F30950503108B1B03148B131515553067
:10175C009600AA3096009514151103188B170800E3
:10176C002C082D04031DC02B2D08A3002C08A2004F
:10177C00EE26883120002D08803AAE0080302E02F3
:10178C00031DCA2B01302C02031CD52B22000C1478
:10179C0020002D08A3002C08A200EE268831200082
:1017AC00AD1F080022000C10FF302000A200A30087
:1017BC002D08A5002C08A400982788312308AD001B
:1017CC002208AC002D08A3002C08A200EE2E21004C
:1017DC00D801D901DA01DB0120006208A9006108F7
:1017EC00A8006008A7005F08A60021002F082000B1
:1017FC00A602210030082000A73B21003108200060
:10180C00A83B210032082000A93B01301D2688315D
:10181C0029082100D700200028082100D60020002C
:10182C0027082100D500200026082100D4005708E5
:10183C002000AD00210056082000AC002100550806
:10184C002000AB00210054082000AA001F30A03E4D
:10185C0086008701403FAE00413FAF00423FB000E1
:10186C00433FB1008231912288312D082100DB00E9
:10187C0020002C082100DA0020002B082100D900C0
:10188C0020002A082100D80057082000C60021009B
:10189C0056082000C500210055082000C400210076
:1018AC0054082000C300220027082000CA00220090
:1018BC0026082000C900220025082000C8002200AC
:1018CC0024082000C70084315C248831460822009B
:1018DC00A700200045082200A60020004408220092
:1018EC00A500200043082200A4002730A03E86005B
:1018FC008701403F2000AE00413FAF00423FB000A7
:10190C00433FB100220027082000AD00220026082A
:10191C002000AC00220025082000AB002200240887
:10192C002000AA008231912288312D08C6002C0893
:10193C00C5002B08C4002A08C30021005B08200046
:10194C00CA0021005A082000C900210059082000B3
:10195C00C800210058082000C70084315C2488315D
:10196C0046082100DB00200045082100DA00200099
:10197C0044082100D900200043082100D800570852
:10198C002000DE00210056082000DD002100550853
:10199C002000DC00210054082000DB00220023087A
:1019AC002000DA00220022082000D90022002108A1
:1019BC002000D800220020082000D7007B275A08DE
:1019CC00B1005908B0005808AF005708AE002330DA
:1019DC00A03E86008701403FAA00413FAB00423F3A
:1019EC00AC00433FAD008231912288312D0821009B
:1019FC00D30020002C082100D20020002B0821004D
:101A0C00D10020002A082100D00053082000C60075
:101A1C00210052082000C500210051082000C400FC
:101A2C00210050082000C30021005B082000CA00E0
:101A3C0021005A082000C900210059082000C800C4
:101A4C00210058082000C70084315C2488314608E6
:101A5C002100DB00200045082100DA0020004408AA
:101A6C002100D900200043082100D800570822008B
:101A7C00A300210056082200A200210055082200D4
:101A8C00A100210054082200A00021005B082000C6
:101A9C00B70021005A082000B60021005908200088
:101AAC00B500210058082000B40021002E082000A9
:101ABC00A30021002D082000A2008A2688312208CC
:101ACC00A6002308A700890D893B8909A800A90055
:101ADC0001301D2688312908BB002808BA002708C8
:101AEC00B9002608B8000D278831031CA22D21004F
:101AFC002E082000A30021002D082000A2008A2619
:101B0C0088312208A6002308A700890D893B890982
:101B1C00A800A90001301D26883129082100DB000E
:101B2C00200028082100DA00200027082100D90015
:101B3C00200026082100D80021002E082000A30038
:101B4C0021002D082000A2008A2688312209E300FA
:101B5C002309E400E30A0319E40A6308A6006408F5
:101B6C00A700890D893B8909A800A90001301D2611
:101B7C0088312908B7002808B6002708B5002608C0
:101B8C00B40021005B082000BB0021005A08200093
:101B9C00BA00210059082000B90021005808200083
:101BAC00B8000D278831031C072E21002E082000B9
:101BBC00A30021002D082000A2008A2688312209CA
:101BCC00E3002309E400E30A0319E40A6308A6000E
:101BDC006408A700890D893B8909A800A900013078
:101BEC001D26883129082100DB002000280821004F
:101BFC00DA00200027082100D90020002608210047
:101C0C00D80021005B082000A50021005A08200004
:101C1C00A400210059082000A3002100580820002E
:101C2C00A200AD272308E0002208DF000800AE0068
:101C3C002E08031DA91F322E2609B0002709B1005A
:101C4C002809B2002909B300B00A0319B10A031913
:101C5C00B20A0319B30A3A2E2908B3002808B200B5
:101C6C002708B1002608B0002908280427042604F8
:101C7C00031D452EA601A701A801A9010800963055
:101C8C00AF00FE30330503195C2EAF0AB336B20C2D
:101C9C00B10CB00C472E0130AF0AB0070030B13D8B
:101CAC00B23DB33DB336B20CB10CB00CFF303305C2
:101CBC0003196A2E512E02302F02031C6C2EAF0317
:101CCC00B035B10DB20DB30DB21F612E2F1CB21376
:101CDC00AF362F08AD00AC01AB01AA012A08B00445
:101CEC002B08B1042C08B2042D08B3042E08031DD4
:101CFC00A91F812EB3173308A9003208A800310898
:101D0C00A7003008A6000800A31F08002209A400A1
:101D1C002309A500A40A0319A50A2408A200250872
:101D2C00A3000800670821004B062000E9006808A2
:101D3C0021004C062000EA00EA1FA72E20006F1499
:101D4C00A92E20006F106808803AE90080306902E3
:101D5C00031DB22E013067020318C72E20006F1C22
:101D6C00C72E21004C08803A2000E900803069021F
:101D7C00031DC32E013021004B020318C72E200077
:101D8C006F1020006F1CDF2E2000E501E601803172
:101D9C00DD208831640034302000E900F130890BFB
:101DAC00D52EE90BD52E003221002B082C04031D57
:101DBC00CA2E200068082100CC00200067082100F2
:101DCC00CB0020006808E6006708E5008031DD28BC
:101DDC002308803AA40084302402031DF72E00301F
:101DEC0022020318080020002308A5002208A400E2
:101DFC00A536A40CA536A40C2408250091002000BF
:101E0C00220EF03930390C38250093000800803050
:101E1C00BC01BD013605BE007F303705BF003E0456
:101E2C003D043C04031D1E2FB401B501B601B701DE
:101E3C008030BC01BD013A05BE007F303B05BF00C0
:101E4C003E043D043C04031D2F2FB801B901BA0117
:101E5C00BB01B71F462F8030BC01BD01BE01BF00C6
:101E6C003408BC023508BD3B3608BE3B3708BF3BC7
:101E7C003F08B7003E08B6003D08B5003C08B4006A
:101E8C00BB1F5D2F8030BC01BD01BE01BF003808F7
:101E9C00BC023908BD3B3A08BE3B3B08BF3B3F0880
:101EAC00BB003E08BA003D08B9003C08B8008030C1
:101EBC00B706BB063B083702031D08003A0836027A
:101ECC00031D080039083502031D080038083402C8
:101EDC000800FF3020009B000C302500930091017E
:101EEC002000911004309C0008008030DA065E0857
:101EFC00C6005D08C5005C08C4005B08C3005A0836
:101F0C00CA005908C9005808C8005708C7008431CE
:101F1C005C244608DA004508D9004408D800430878
:101F2C00D7000800A601A701221CA02F2408A60791
:101F3C002508A73DA435A50DA336A20C2208230421
:101F4C00031D9A2F2708A3002608A20008002208C8
:101F5C00A6002308A7002408A8002508A900031040
:101F6C00280D290DAB002B08031DC12FA201A301C5
:101F7C00A401A50108002208A6002308A700240834
:101F8C00A8002508A9001F30A936A80CA70CA60C80
:101F9C00890BCA2F2608AA009630A417A501AB02FC
:101FAC00AB1FE42F2B08803A973E031CBC2FA536A1
:101FBC00A40CA30CA20CAB0FDD2FF12F20302B02A5
:101FCC000318BC2F2B080319F12FA235A30DA40D58
:101FDC00A50DAB03E82F2A0803190800A209A309D1
:101FEC00A409A509A20A0319A30A0319A40A03192F
:041FFC00A50A08002A
:020000040001F9
:04000E009CCFFFDFA5
:10E00000240001000000000000000000FF00FF00ED
:10E010000000000000000000000000000000000000
:10E0200000000000000000000000000000000000F0
:10E0300000000000000000000000000000000000E0
:00000001FF
