:020000040000FA
:040000008031C02863
:100008007E1480310B1C21282700131E21288B11F8
:100018002100D50A0319D60A22000C181728FF3028
:100028002100AF071B2801302100AF070030B03D89
:10003800B13DB23D270013128B152000111C5C281E
:100048008B11181021002808F7002708F600560819
:10005800F1005508F0002C30F2000130F3008D312A
:100068009E2580317108F9007008F8008D31B3259C
:1000780080317708AC007608AB00D501D6012200A4
:100088000C18582821002B092000A00021002C0959
:100098002000A100A00A0319A10A20082100AB0032
:1000A800200021082100AC008B1520001110181425
:1000B800911DB3288B11210011102400141D8028D4
:1000C800941A722820006E08A03E86008701010855
:1000D800240091002000EE0A24001516941E8028A2
:1000E80020006E08A03E86008701010824009100C8
:1000F8002000EE0A240015161419AE28941A8A282E
:100108002100DC01DC0A240011081516941EAE2813
:1001180021005C0803199728240011082000EE002C
:100128002100DC01A8282B3020006E020318A62825
:100138006E08A03E86008701240011088100200077
:10014800EE0AA828240011082400951FAD2895134D
:1001580011081516200091118B152100111420008B
:10016800921DBE28240011082000921124001516A3
:10017800200091117E1009008031C2282100013031
:10018800DC002000A030ED01EE0184000030850085
:1001980037308D3198257E1020008031D328F030FB
:1001A800210099008F314A2780311E308C002300AE
:1001B8008C0124008C0021002318E52821009517C4
:1001C800E7282100951322001D140C10803024000C
:1001D8009400363095001614171697151715210038
:1001E80021352400920020009111921121009215CE
:1001F80091150B17A7248031A201A301882480310F
:100208002700121648308B00343020009800210057
:100218001114200018148B1734302100DB00F13042
:10022800890B1429DB0B1429003220008C19212991
:100238002430A2000030E722803164002100220B24
:10024800002AEC292000AC01AD0104238031F629F5
:100258002E082000AD0021002D082000AC0004234A
:100268008031F6292E082000E00021002D0820000A
:10027800DF003B238031F629AD308600870141310C
:10028800811F6629B21B5F293208031D55293108D1
:10029800031D55293008031D552901302F02031C61
:1002A8005F292E082000E00021002D082000DF0033
:1002B8003B23803166292000AC01AD010423803145
:1002C8002100A20121002E08803ADB0080305B0269
:1002D800031D702901302D02031C86292100B21F3D
:1002E8007F292E082000E00021002D082000DF00D3
:1002F8003B23803186292000AC01AD0104238031E5
:100308002100A20121002D082E04031DF6292E0824
:100318002000E00021002D082000DF003B23803171
:10032800F6292E08D8002D08D7008D31D825803120
:10033800F629AD30860087014131811FC129B21BE2
:10034800BA293208031DB2293108031DB229300821
:10035800031DB22901302F02031CBA292E08D80028
:100368002D08D7008D31D8258031C1292000AC0156
:10037800AD01042380312100A20121002E08803A1A
:10038800DB0080305B02031DCB2901302D02031CEA
:10039800DF292100B21FD8292E08D8002D08D70040
:1003A8008D31D8258031DF292000AC01AD0104232F
:1003B80080312100A20121002D082E04031DF629F9
:1003C8002E08D8002D08D7008D31D8258031F62980
:1003D80024088400083004020318262988310435CB
:1003E800003E820034302100DB00F130890BFA290D
:1003F800DB0BFA290032052A2000AC01AD010423E9
:1004080080312100260B092A01002100250B212912
:1004180021082000A2000030E722803121002308B3
:100428002000A2000130E7228031210027082000A7
:10043800A2000230E7228031210028082000A20013
:100448000330E7228031210029082000A20004306F
:10045800E722803121002A082000A2000530E72287
:100468008031210033082000A2000830E7228031C3
:10047800210034082000A2000930E7228031210041
:1004880035082000A2000A30E72280312100360812
:100498002000A2000B30E72280312100370820001D
:1004A800A2000C30E7228031210038082000A20089
:1004B8000D30E7228031210039082000A2000E30DB
:1004C800E722803121003A082000A2000F30E722FD
:1004D800803121003B082000A2001030E722803143
:1004E80021003C082000A2001130E72280312100C1
:1004F8003D082000A2001230E722803121003E088A
:100508002000A2001330E722803121003F0820009C
:10051800A2001430E7228031210040082000A20008
:100528001530E7228031210041082000A200163052
:10053800E7228031210042082000A2001730E7227C
:100548008031210043082000A2001830E7228031C2
:10055800210044082000A2001930E7228031210040
:1005680045082000A2001A30E72280312100460801
:100578002000A2001B30E72280312100470820001C
:10058800A2001C30E7228031210048082000A20088
:100598001D30E7228031210049082000A2001E30CA
:1005A800E722803121004A082000A2001F30E722FC
:1005B800803134302100DB00F130890BE12ADB0B7C
:1005C800E12A00322129A30023009518E82A2000F7
:1005D80023082300910092012000220823009300A1
:1005E8003F30950503108B1B03148B1315155530DD
:1005F8009600AA3096009514151103188B17080059
:100608002C082D04031D0E2B2D08A3002C08A20076
:100618008824803120002D08803AAE0080302E02D8
:10062800031D182B01302C02031C232B22000C1451
:1006380020002D08A3002C08A20088248031200067
:10064800AD1F080022000C10FF302000A200A300FC
:100658002D08A5002C08A400B32480312308AD0080
:100668002208AC002D08A3002C08A200882CAB306F
:10067800E901EA01EB01EC0186008701403F5F02D6
:10068800A200413F603BA300A401A31BA4032408CC
:10069800A50001308E31DD2680312508E8002408C8
:1006A800E7002308E6002208E5006808AD006708AF
:1006B800AC006608AB006508AA001330A03E8600AF
:1006C8008701403FAE00413FAF00423FB000433F8B
:1006D800B1008431C82480312D08EC002C08EB00CF
:1006E8002B08EA002A08E9006808C6006708C50060
:1006F8006608C4006508C300210052082000CA002B
:10070800210051082000C900210050082000C8001D
:1007180021004F082000C7008631AF2680314608E7
:100728002100D200200045082100D1002000440803
:100738002100D000200043082100CF001B30A03E3C
:1007480086008701403F2000AE00413FAF00423F96
:10075800B000433FB100210052082000AD00210045
:1007680051082000AC00210050082000AB002100F7
:100778004F082000AA008431C82480312D08C60003
:100788002C08C5002B08C4002A08C3006C08CA003E
:100798006B08C9006A08C8006908C7008631AF2617
:1007A80080314608EC004508EB004408EA0043089D
:1007B800E9006808DE006708DD006608DC006508F7
:1007C800DB0021004E082000DA0021004D0820003F
:1007D800D90021004C082000D80021004B08200037
:1007E800D7008631932680315A08B1005908B000E5
:1007F8005808AF005708AE001730A03E86008701A2
:10080800403FAA00413FAB00423FAC00433FAD0030
:100818008431C82480312D08E4002C08E3002B081B
:10082800E2002A08E1006408C6006308C5006208FF
:10083800C4006108C3006C08CA006B08C9006A08D4
:10084800C8006908C7008631AF2680314608EC0029
:100858004508EB004408EA004308E900680821005D
:10086800CE00200067082100CD0020006608210086
:10087800CC00200065082100CB0020006C08A500F2
:100888006B08A4006A08A3006908A2004430A90004
:100898007F30A800C030A700A6018E317B268031AA
:1008A800031C5D2C4430EC007F30EB00C030EA00C4
:1008B800E901C430A5007F30A400C030A300A20124
:1008C8006C08A9006B08A8006A08A7006908A600B8
:1008D8008E317B268031031C782CC430EC007F30AD
:1008E800EB00C030EA00E9016C08A5006B08A40021
:1008F8006A08A3006908A2008E31282680312308DF
:10090800AD002208AC00042B2308803AA4008430F0
:100918002402031D912C0030220203180800200035
:100928002308A5002208A400A536A40CA536A40C0B
:100938002408250091002000220EF03930390C38A7
:10094800250093000800FF3020009B000C30250094
:10095800930091012000911004309C000800A6012A
:10096800A701221CBB2C2408A6072508A73DA435EF
:10097800A50DA336A20C22082304031DB52C2708B5
:10098800A3002608A20008002D08B6008030B6058E
:100998002D35B800AC1B381438080319DB2C380F78
:1009A800D92CAA01AB01AC01AD01AC17DF2CAA010F
:1009B800AB01AC01AD0131088039B6063135B7005D
:1009C800B01B371437080319F12C370FEF2CAE0181
:1009D800AF01B001B101B017F52CAE01AF01B00104
:1009E800B1013708031D3808031DFF2CAA01AB010C
:1009F800AC01AD0108002A08A20030084A2684315B
:100A08002308C2002208C100B900BA01BB01BC0119
:100A18004208BD00BE01BF01C0012B08A2002F087B
:100A28004A2684312308C2002208C100B9070130D0
:100A38000318BA070318BB070318BC074208BD0709
:100A480001300318BE070318BF070318C0072C0896
:100A5800A2002E084A2684312308C2002208C100B9
:100A6800B90701300318BA070318BB070318BC07F6
:100A78004208BD0701300318BE070318BF07031853
:100A8800C0073B08BC003A08BB003908BA00B901E6
:100A98002B08A2002E084A2684312308C200220807
:100AA800C100B9074208BA3D0030BB3DBC3D2A0829
:100AB800A2002F084A2684312308C2002208C10058
:100AC800B9074208BA3D0030BB3DBC3D3B08BC00FD
:100AD8003A08BB003908BA00B9012A08A2002E0852
:100AE8004A2684312308C2002208C100B9074208F7
:100AF800BA3D0030BB3DBC3D2B08A20030084A2659
:100B080084312308C2002208C100BD074208BE3D47
:100B18000030BF3DC03D2C08A2002F084A26843172
:100B28002308C2002208C100BD074208BE3D0030AC
:100B3800BF3DC03D2C08A20030084A268431230856
:100B4800C2002208C100B2004208B300B401B501D6
:100B58003408B5003308B4003208B300B2013208D3
:100B6800BD073308BE3D3408BF3D3508C03D3C08CD
:100B7800BD0701300318BE070318BF070318C007D5
:100B88003B08BC003A08BB003908BA00B90138086C
:100B9800C100C2013708C1070318C20A8230C10761
:100BA800031CC203BF1BE42DBD35BE0DBF0DC00D18
:100BB800BC1B3D14FF30B935BA0DBB0DBC0DD32D90
:100BC800B701BC1FF92D3908B2003A08B3003B0839
:100BD800B4007F303C05B5003404330432040319F3
:100BE8003D18F72DF92DB701B70A370803190B2E51
:100BF8000130BD070030BE3DBF3DC03D401C0B2E3F
:100C0800C037BF0CBE0CBD0CC10A0319C20A42088A
:100C1800803AB20080303202031D142EFF304102A8
:100C2800031C1E2E7F302000C0008030BF00BE0194
:100C3800BD013F2E20004208803AB20080303202C7
:100C4800031D282E013041020318312E2000BD015A
:100C5800BE01BF01C001B6013F2E20004108B80007
:100C6800FF30BD05BE057F30BF050030C001381814
:100C7800BF173836C0003608C0044008AD003F082A
:100C8800AC003E08AB003D08AA000800A700A5017B
:100C9800A6012208A800A901271C562E2808A50786
:100CA8002908A63DA835A90DA71C5E2E2808A5076A
:100CB8002908A63DA835A90D271D662E2808A507D1
:100CC8002908A63DA835A90DA71D6E2E2808A50739
:100CD8002908A63DA835A90D271E762E2808A507A0
:100CE8002908A63DA835A90DA71E7E2E2808A50708
:100CF8002908A63DA835A90D271F862E2808A5076F
:100D08002908A63DA835A90DA71F8E2E2808A507D6
:100D18002908A63D2608A3002508A200080080305F
:100D2800DA065E08C6005D08C5005C08C4005B08FA
:100D3800C3005A08CA005908C9005808C80057080B
:100D4800C700AF264608DA004508D9004408D8008D
:100D58004308D70008004608D3008030D30546353D
:100D6800D500C51B551455080319C22E550FC02EA2
:100D7800C301C401C501C601C517C52EC301C401FD
:100D8800C501C6014A08D4008030D405540853066A
:100D9800031D53174A35D400C91B541454080319AA
:100DA800DD2E540FDB2EC701C801C901CA01C917BE
:100DB800E02EC701C801C901CA0155085402031829
:100DC800072F531FE92E8030D3065508D600540844
:100DD800D5005608D4004308D6004708C300560873
:100DE800C7004408D6004808C4005608C80045088B
:100DF800D6004908C5005608C9004608D6004A0862
:100E0800C6005608CA00D6015408CB00CC014C08CD
:100E1800CE0055084B02CD00031CCE034E08803A85
:100E2800CF0080304F02031D1B2F1A304D02031CC8
:100E38003D2F200046084504440443040319262F87
:100E48000130272F0030D600C301C401C501C601F7
:100E58005408D500422F561C352F56360138D60077
:100E6800362FD6364318D617C637C50CC40CC30C54
:100E7800D50A200054085502031C2F2F531B652F39
:100E88005508031D4C2FC301C401C501C601080044
:100E98004708C3074808C43D4908C53D4A08C63D38
:100EA800461CCD2F561C5C2F56360138D6005D2FB8
:100EB800D6364318D617C637C50CC40CC30CD50A8A
:100EC800CD2F4608803ACB004A08803A4B02031DD2
:100ED800772F49084502031D772F48084402031D50
:100EE800772F470843020318A62FFF30CB00CC000A
:100EF800CD00CE0043084702CF004408483BD0004D
:100F08004508493BD10046084A3BD2004F08CB0769
:100F18005008CC3D5108CD3D5208CE3D4E08C60084
:100F28004D08C5004C08C4004B08C3008030D306E8
:100F3800D609D60FAE2F0130C3070030C43DC53DDA
:100F4800C63DAE2F4708C3024808C43B4908C53B05
:100F58004A08C63B4608450444044304031DCB2FF6
:100F68005608031DCB2FC301C401C501C6010800E3
:100F7800C335C40DC50DC60DD61B4314561CC72F4B
:100F88000314D60DC82FD6355508031DD503C51F24
:100F9800BC2FD401D61FD82F56087F390319431800
:100FA800D62FD82FD401D40A54080319E92F0130B9
:100FB800C3070030C43DC53DC63D461CE92FC637B2
:100FC800C50CC40CC30C550FD50A550A031D55088A
:100FD800031DF52FC301C401C501C6015508031936
:100FE800D301551CF92FC517FA2FC5135536C6005E
:060FF800D31BC617080020
:101000008131262981312C298131362981314029AC
:101010008131F6298131952981319D298131F62946
:101B3000640080010131890B992D0034F401F50115
:101B4000701CA62D7208F4077308F53DF235F30DED
:101B5000F136F00C70087104031DA02D7508F1001A
:101B60007408F0000800FB01FC01760877040319F3
:101B7000D32DFA01FA0AF71BC02DF635F70DBA2D51
:101B8000FB35FC0D77087902031DC82D7608780215
:101B9000031CCF2D7608F8027708F93B7B14F73643
:101BA000F60CFA0BC02D7C08F7007B08F600080045
:101BB00057085306D90058085406DA00DA1FE32DF7
:101BC00020006D14E52D20006D1021005808803A8A
:101BD000D90080305902031DEF2D01305702031840
:101BE000022E20006D1C022E21005408803AD900DC
:101BF00080305902031DFE2D013053020318022EBE
:101C000020006D1020006D1C1A2E2000DF01E00165
:101C100083313B238D31640034302100D900F13011
:101C2000890B102ED90B102E003221002B082C040A
:101C3000031D052E21005808D4005708D30058086A
:101C40002000E000210057082000DF0083313B2BFB
:101C50002208A6002308A7002408A8002508A90038
:101C60000310280D290DAB002B08031D3C2EA201EB
:101C7000A301A401A50108002208A6002308A700CB
:101C80002408A8002508A9001F30A936A80CA70C15
:101C9000A60C890B452E2608AA009630A417A5018C
:101CA000AB02AB1F5F2E2B08803A973E031C372EEA
:101CB000A536A40CA30CA20CAB0F582E6C2E203012
:101CC0002B020318372E2B0803196C2EA235A30DF7
:101CD000A40DA50DAB03632E2A0803190800A20961
:101CE000A309A409A509A20A0319A30A0319A40AAE
:101CF0000319A50A08008030AA01AB012405AC0035
:101D00007F302505AD002C042B042A04031D8C2EE6
:101D1000A201A301A401A5018030AA01AB012805FD
:101D2000AC007F302905AD002C042B042A04031DD0
:101D30009D2EA601A701A801A901A51FB42E8030E0
:101D4000AA01AB01AC01AD002208AA022308AB3BFB
:101D50002408AC3B2508AD3B2D08A5002C08A400A9
:101D60002B08A3002A08A200A91FCB2E8030AA01AD
:101D7000AB01AC01AD002608AA022708AB3B28083E
:101D8000AC3B2908AD3B2D08A9002C08A8002B0866
:101D9000A7002A08A6008030A506A9062908250262
:101DA000031D080028082402031D08002708230239
:101DB000031D0800260822020800AA002A08031DA5
:101DC000A51FF22E2209AC002309AD002409AE00A4
:101DD0002509AF00AC0A0319AD0A0319AE0A0319AD
:101DE000AF0AFA2E2508AF002408AE002308AD0084
:101DF0002208AC002508240423042204031D052F17
:101E0000A201A301A401A50108009630AB00FE3099
:101E10002F0503191C2FAB0AAF36AE0CAD0CAC0C62
:101E2000072F0130AB0AAC070030AD3DAE3DAF3DF2
:101E3000AF36AE0CAD0CAC0CFF302F0503192A2FBA
:101E4000112F02302B02031C2C2FAB03AC35AD0D30
:101E5000AE0DAF0DAE1F212F2B1CAE13AB362B08D2
:101E6000A900A801A701A6012608AC042708AD0413
:101E70002808AE042908AF042A08031DA51F412F16
:101E8000AF172F08A5002E08A4002D08A3002C08CA
:101E9000A2000800F330A0000030EE278F312100AF
:101EA000A100A2010130EE278F312100A300A4017F
:101EB000A501A6010230EE278F312100A7000330D3
:101EC000EE278F312100A8000430EE278F3121004A
:101ED000A9000530EE278F312100AA00AB01AC012B
:101EE000AD01AE01AF01B001B101B2010830EE2782
:101EF0008F312100B3000930EE278F312100B4006B
:101F00000A30EE278F312100B5000B30EE278F31DC
:101F10002100B6000C30EE278F312100B7000D30C4
:101F2000EE278F312100B8000E30EE278F312100CF
:101F3000B9000F30EE278F312100BA001030EE27A4
:101F40008F312100BB001130EE278F312100BC0002
:101F50001230EE278F312100BD001330EE278F3174
:101F60002100BE001430EE278F312100BF00153054
:101F7000EE278F312100C0001630EE278F3121006F
:101F8000C1001730EE278F312100C2001830EE2734
:101F90008F312100C3001930EE278F312100C4009A
:101FA0001A30EE278F312100C5001B30EE278F310C
:101FB0002100C6001C30EE278F312100C7001D30E4
:101FC000EE278F312100C8001E30EE278F3121000F
:101FD000C9001F30EE272100CA0008002000A2001F
:101FE000F22F2000640023009518F12F2000220812
:101FF0002300910092013F30950515141308080045
:020000040001F9
:04000E009CCFFFDFA5
:10E00000240001000000000000000000FF00FF00ED
:10E010000000000000000000000000000000000000
:10E0200000000000000000000000000000000000F0
:10E0300000000000000000000000000000000000E0
:00000001FF
