:020000040000FA
:040000008031C02863
:100008007E1480310B1C21282700131E21288B11F8
:100018002100D50A0319D60A22000C181728FF3028
:100028002100AF071B2801302100AF070030B03D89
:10003800B13DB23D270013128B152000111C5C281E
:100048008B11181021002808F7002708F600560819
:10005800F1005508F0002C30F2000130F300873130
:10006800EB2780317108F9007008F8008731C6273E
:1000780080317708AC007608AB00D501D6012200A4
:100088000C18582821002B092000A00021002C0959
:100098002000A100A00A0319A10A20082100AB0032
:1000A800200021082100AC008B1520001110181425
:1000B800911DB3288B11210011102400141D8028D4
:1000C800941A722820006E08A03E86008701010855
:1000D800240091002000EE0A24001516941E8028A2
:1000E80020006E08A03E86008701010824009100C8
:1000F8002000EE0A240015161419AE28941A8A282E
:100108002100DC01DC0A240011081516941EAE2813
:1001180021005C0803199728240011082000EE002C
:100128002100DC01A8282B3020006E020318A62825
:100138006E08A03E86008701240011088100200077
:10014800EE0AA828240011082400951FAD2895134D
:1001580011081516200091118B152100111420008B
:10016800921DBE28240011082000921124001516A3
:10017800200091117E1009008031C2282100013031
:10018800DC002000A030ED01EE0184000030850085
:1001980037308F31FA2780317E102000D328F03095
:1001A80021009900E02180311E308C0023008C0151
:1001B80024008C002100951322001D140C1080309F
:1001C8002400940036309500161417169715171545
:1001D8002100210824009200200091119211210091
:1001E800921591150B17D4218031A201A301512139
:1001F80080312700121648308B00343020009800D8
:1002080021001114200018148B1721002E08D80083
:100218002D08D7008521803168302100DB00E430CB
:10022800890B1429DB0B1429000009292C082D043B
:10023800031D24292D08A3002C08A2005121803178
:1002480020002D08803AAE0080302E02031D2E2992
:1002580001302C02031C392922000C1420002D081F
:10026800A3002C08A200512180312000AD1F0800F6
:1002780022000C10FF302000A200A3002D08A500CA
:100288002C08A400702180312308AD002208AC009E
:100298002D08A3002C08A20051292308803AA400A5
:1002A80084302402031D5A29003022020318080052
:1002B80020002308A5002208A400A536A40CA53612
:1002C800A40C2408250091002000220EF0393039B2
:1002D8000C38250093000800A601A701221C7829E4
:1002E8002408A6072508A73DA435A50DA336A20C0A
:1002F80022082304031D72292708A3002608A20048
:10030800080057085306D90058085406DA00DA1FBF
:10031800902920006D14922920006D1021005808A2
:10032800803AD90080305902031D9C2901305702B8
:100338000318AF2920006D1CAF2921005408803A0A
:10034800D90080305902031DAB290130530203182C
:10035800AF2920006D1020006D1CC6292000DF0188
:10036800E00182312922803168302100D900E4304F
:10037800890BBC29D90BBC29000021002B082C04AF
:10038800031DB22921005808D4005708D300580883
:100398002000E000210057082000DF008231292AD0
:1003A800FF3020009B000C302500930091012000B5
:1003B800911004309C000800F330A0004830A100E0
:1003C800A2010130A3000530A400A501A6019630C2
:1003D800A700A8012A30A900AA01AB01AC01AD0110
:1003E800AE01AF01B001B101B2013D30B600CC3071
:1003F800B500B400CD30B3003C30BA002330B900AA
:10040800D730B8000A30B7003D30BE002330BD00F9
:10041800D730BC000A30BB003E30C2001930C100E2
:100428009930C0009A30BF003D30C600A330C500E7
:10043800D730C4000A30C3003C30CA00F530C900C8
:10044800C230C8008F30C7000800AB30E901EA01AC
:10045800EB01EC0186008701403F5F02A200413FAB
:10046800603BA300A401A31BA4032408A50001303A
:10047800B62582312508E8002408E7002308E600AD
:100488002208E5006808AD006708AC006608AB0004
:100498006508AA001330A03E86008701403FAE00E1
:1004A800413FAF00423FB000433FB1006C232D08ED
:1004B800EC002C08EB002B08EA002A08E900680881
:1004C800C6006708C5006608C4006508C3002100A7
:1004D80052082000CA00210051082000C90021004C
:1004E80050082000C80021004F082000C7008631AE
:1004F8002326823146082100D20020004508210029
:10050800D100200044082100D00020004308210029
:10051800CF001B30A03E86008701403F2000AE0080
:10052800413FAF00423FB000433FB10021005208B5
:100538002000AD00210051082000AC002100500827
:100548002000AB0021004F082000AA006C232D08D2
:10055800C6002C08C5002B08C4002A08C3006C0874
:10056800CA006B08C9006A08C8006908C700863154
:10057800232682314608EC004508EB004408EA00CF
:100588004308E9006808DE006708DD006608DC004B
:100598006508DB0021004E082000DA0021004D0824
:1005A8002000D90021004C082000D80021004B0869
:1005B8002000D700992582315A08B1005908B000A7
:1005C8005808AF005708AE001730A03E86008701D4
:1005D800403FAA00413FAB00423FAC00433FAD0063
:1005E8006C232D08E4002C08E3002B08E2002A08FD
:1005F800E1006408C6006308C5006208C400610819
:10060800C3006C08CA006B08C9006A08C8006908FA
:10061800C7008631232682314608EC004508EB00E6
:100628004408EA004308E90068082100CE002000D9
:1006380067082100CD00200066082100CC002000BA
:1006480065082100CB0020006C08A5006B08A400F9
:100658006A08A3006908A2004430A9007F30A800F6
:10066800C030A700A60137258231031C422B443035
:10067800EC007F30EB00C030EA00E901C430A5008F
:100688007F30A400C030A300A2016C08A9006B0849
:10069800A8006A08A7006908A60037258231031C4C
:1006A8005C2BC430EC007F30EB00C030EA00E9017D
:1006B8006C08A5006B08A4006A08A3006908A200DA
:1006C800873173272308AD002208AC0081311A292D
:1006D8002D08B6008030B6052D35B800AC1B38148F
:1006E800380803197F2B380F7D2BAA01AB01AC0109
:1006F800AD01AC17832BAA01AB01AC01AD013108E8
:100708008039B6063135B700B01B371437080319DE
:10071800952B370F932BAE01AF01B001B101B01784
:10072800992BAE01AF01B001B1013708031D38089C
:10073800031DA32BAA01AB01AC01AD0108002A08D7
:10074800A2003008EE2482312308C2002208C1002A
:10075800B900BA01BB01BC014208BD00BE01BF011E
:10076800C0012B08A2002F08EE2482312308C20002
:100778002208C100B90701300318BA070318BB07DC
:100788000318BC074208BD0701300318BE07031849
:10079800BF070318C0072C08A2002E08EE248231D8
:1007A8002308C2002208C100B90701300318BA079C
:1007B8000318BB070318BC074208BD07013003181C
:1007C800BE070318BF070318C0073B08BC003A0858
:1007D800BB003908BA00B9012B08A2002E08EE2484
:1007E80082312308C2002208C100B9074208BA3D75
:1007F8000030BB3DBC3D2A08A2002F08EE24823100
:100808002308C2002208C100B9074208BA3D0030D7
:10081800BB3DBC3D3B08BC003A08BB003908BA00E8
:10082800B9012A08A2002E08EE2482312308C2004A
:100838002208C100B9074208BA3D0030BB3DBC3DA3
:100848002B08A2003008EE2482312308C2002208B7
:10085800C100BD074208BE3D0030BF3DC03D2C0869
:10086800A2002F08EE2482312308C2002208C1000A
:10087800BD074208BE3D0030BF3DC03D2C08A20068
:100888003008EE2482312308C2002208C100B200D9
:100898004208B300B401B5013408B5003308B40008
:1008A8003208B300B2013208BD073308BE3D340830
:1008B800BF3D3508C03D3C08BD0701300318BE07E1
:1008C8000318BF070318C0073B08BC003A08BB0061
:1008D8003908BA00B9013808C100C2013708C10790
:1008E8000318C20A8230C107031CC203BF1B882C2D
:1008F800BD35BE0DBF0DC00DBC1B3D14FF30B93555
:10090800BA0DBB0DBC0D772CB701BC1F9D2C390847
:10091800B2003A08B3003B08B4007F303C05B5008C
:1009280034043304320403193D189B2C9D2CB70161
:10093800B70A37080319AF2C0130BD070030BE3D98
:10094800BF3DC03D401CAF2CC037BF0CBE0CBD0C1A
:10095800C10A0319C20A4208803AB2008030320242
:10096800031DB82CFF304102031CC22C7F3020002D
:10097800C0008030BF00BE01BD01E32C200042084A
:10098800803AB20080303202031DCC2C0130410283
:100998000318D52C2000BD01BE01BF01C001B6015E
:1009A800E32C20004108B800FF30BD05BE057F30AC
:1009B800BF050030C0013818BF173836C0003608E8
:1009C800C0044008AD003F08AC003E08AB003D083D
:1009D800AA000800A700A501A6012208A800A901ED
:1009E800271CFA2C2808A5072908A63DA835A90D13
:1009F800A71C022D2808A5072908A63DA835A90D7A
:100A0800271D0A2D2808A5072908A63DA835A90DE0
:100A1800A71D122D2808A5072908A63DA835A90D48
:100A2800271E1A2D2808A5072908A63DA835A90DAF
:100A3800A71E222D2808A5072908A63DA835A90D17
:100A4800271F2A2D2808A5072908A63DA835A90D7E
:100A5800A71F322D2808A5072908A63D2608A300A8
:100A68002508A20008008030AA01AB012405AC00CB
:100A78007F302505AD002C042B042A04031D482DC6
:100A8800A201A301A401A5018030AA01AB01280598
:100A9800AC007F302905AD002C042B042A04031D6B
:100AA800592DA601A701A801A901A51F702D803005
:100AB800AA01AB01AC01AD002208AA022308AB3B96
:100AC8002408AC3B2508AD3B2D08A5002C08A40044
:100AD8002B08A3002A08A200A91F872D8030AA018D
:100AE800AB01AC01AD002608AA022708AB3B2808D9
:100AF800AC3B2908AD3B2D08A9002C08A8002B0801
:100B0800A7002A08A6008030A506A90629082502FC
:100B1800031D080028082402031D080027082302D3
:100B2800031D08002608220208008030DA065E0845
:100B3800C6005D08C5005C08C4005B08C3005A080D
:100B4800CA005908C9005808C8005708C7008631A4
:100B580023264608DA004508D9004408D800430887
:100B6800D7000800AA002A08031DA51FCB2D2209BB
:100B7800AC002309AD002409AE002509AF00AC0A7A
:100B88000319AD0A0319AE0A0319AF0AD32D2508B4
:100B9800AF002408AE002308AD002208AC002508E9
:100BA800240423042204031DDE2DA201A301A401B1
:100BB800A50108009630AB00FE302F050319F52D6E
:100BC800AB0AAF36AE0CAD0CAC0CE02D0130AB0A65
:100BD800AC070030AD3DAE3DAF3DAF36AE0CAD0C11
:100BE800AC0CFF302F050319032EEA2D02302B021F
:100BF800031C052EAB03AC35AD0DAE0DAF0DAE1F0E
:100C0800FA2D2B1CAE13AB362B08A900A801A7019F
:100C1800A6012608AC042708AD042808AE04290854
:100C2800AF042A08031DA51F1A2EAF172F08A50009
:100C38002E08A4002D08A3002C08A20008004608CE
:100C4800D3008030D3054635D500C51B551455084B
:100C58000319362E550F342EC301C401C501C60130
:100C6800C517392EC301C401C501C6014A08D400FD
:100C78008030D40554085306031D53174A35D40051
:100C8800C91B541454080319512E540F4F2EC70171
:100C9800C801C901CA01C917542EC701C801C90131
:100CA800CA015508540203187B2E531F5D2E80304D
:100CB800D3065508D6005408D5005608D400430872
:100CC800D6004708C3005608C7004408D60048089D
:100CD800C4005608C8004508D6004908C50056088B
:100CE800C9004608D6004A08C6005608CA00D601F8
:100CF8005408CB00CC014C08CE0055084B02CD005F
:100D0800031CCE034E08803ACF0080304F02031DEB
:100D18008F2E1A304D02031CB12E200046084504C0
:100D28004404430403199A2E01309B2E0030D60048
:100D3800C301C401C501C6015408D500B62E561C0E
:100D4800A92E56360138D600AA2ED6364318D617FD
:100D5800C637C50CC40CC30CD50A2000540855026C
:100D6800031CA32E531BD92E5508031DC02EC301E7
:100D7800C401C501C60108004708C3074808C43DA7
:100D88004908C53D4A08C63D461C412F561CD02E71
:100D980056360138D600D12ED6364318D617C63760
:100DA800C50CC40CC30CD50A412F4608803ACB00A9
:100DB8004A08803A4B02031DEB2E49084502031DE1
:100DC800EB2E48084402031DEB2E47084302031884
:100DD8001A2FFF30CB00CC00CD00CE0043084702CD
:100DE800CF004408483BD0004508493BD10046089D
:100DF8004A3BD2004F08CB075008CC3D5108CD3DA7
:100E08005208CE3D4E08C6004D08C5004C08C40027
:100E18004B08C3008030D306D609D60F222F0130E5
:100E2800C3070030C43DC53DC63D222F4708C30255
:100E38004808C43B4908C53B4A08C63B4608450420
:100E480044044304031D3F2F5608031D3F2FC301CD
:100E5800C401C501C6010800C335C40DC50DC60DC2
:100E6800D61B4314561C3B2F0314D60D3C2FD635E6
:100E78005508031DD503C51F302FD401D61F4C2F8D
:100E880056087F39031943184A2F4C2FD401D40A26
:100E9800540803195D2F0130C3070030C43DC53D18
:100EA800C63D461C5D2FC637C50CC40CC30C550F78
:100EB800D50A550A031D5508031D692FC301C4012E
:100EC800C501C60155080319D301551C6D2FC51757
:100ED8006E2FC5135536C600D31BC6170800220847
:100EE800A6002308A7002408A8002508A9000310C5
:100EF800280D290DAB002B08031D872FA201A30184
:100F0800A401A50108002208A6002308A7002408B8
:100F1800A8002508A9001F30A936A80CA70CA60C04
:100F2800890B902F2608AA009630A417A501AB02BA
:100F3800AB1FAA2F2B08803A973E031C822FA53699
:100F4800A40CA30CA20CAB0FA32FB72F20302B029D
:100F58000318822F2B080319B72FA235A30DA40D50
:100F6800A50DAB03AE2F2A0803190800A209A3098F
:100F7800A409A509A20A0319A30A0319A40A0319B3
:100F8800A50A0800FB01FC01760877040319E62F7F
:100F9800FA01FA0AF71BD32FF635F70DCD2FFB35DB
:100FA800FC0D77087902031DDB2F76087802031CF5
:100FB800E22F7608F8027708F93B7B14F736F60C2F
:100FC800FA0BD32F7C08F7007B08F6000800F40121
:100FD800F501701CF32F7208F4077308F53DF2351C
:100FE800F30DF136F00C70087104031DED2F750830
:080FF800F1007408F00008008C
:0C1FF400640080010131890BFB2F0034D8
:020000040001F9
:04000E00C4CFFFDF7D
:00000001FF
