:0200000048288E
:100008007E14803120007F08A0000B1C17282700D1
:10001800131E17288B1101302100B6070030B73D99
:10002800270013128B152000111C44288B1118105F
:1000380021002A08F7002908F6003708F1003608D9
:10004800F0002C30F2000130F30011267108F9009D
:100058007008F8008D2577082000EE007608ED007E
:100068002100B601B70122000C1840282000ED0934
:10007800EE09ED0A0319EE0A8B1520001110181469
:100088002008FF007E100900492849308400863086
:100098008500A0308600003087000B305D26EA011D
:1000A800EB01EC01ED01EE012100B301B401B50152
:1000B800B601B7017E102000DA2A00302000DF00E8
:1000C8000030E0000030E1000030E2000030E300E2
:1000D8000030E4006D08583EDD0002306E3DDE0061
:1000E8005608583ED6000230573DD7005D09D80063
:1000F8005E09D900D80A0319D90A56085807A90071
:100108005708593DAA00F02520002908DF002A08D1
:10011800E0002B08E100210026082000B90021009A
:1001280027082000BA00210028082000BB005F082B
:10013800BC006008BD006108BE009123200039089A
:10014800E2003A08E3003B08E4005F08C9006008E1
:10015800CA006108CB006A08CC006B08CD006C08A7
:10016800CE00E52120004908EA004A08EB004B08C8
:10017800EC00210020082000BC00210021082000FC
:10018800BD00210022082000BE006A08B9006B08E3
:10019800BA006C08BB00912320003908C9003A084E
:1001A800CA003B08CB006208CC006308CD00640895
:1001B800CE00E52120004908E2004A08E3004B0888
:1001C800E400210033082000A100210034082000A9
:1001D800A200210035082000A30054262000210891
:1001E800CC002208CD002308CE005F08C9006008B3
:1001F800CA006108CB00E52120004908BC004A0874
:10020800BD004B08BE00210023082000B9002100D2
:1002180024082000BA00210025082000BB009123F3
:1002280020003908DA003A08DB003B08DC005A08ED
:10023800C9005B08CA005C08CB006208CC006308F0
:10024800CD006408CE00E52120004908E2004A08F4
:10025800E3004B08E4005F082100B30020006008B9
:100268002100B400200061082100B50020006208C8
:10027800A1006308A2006408A3008030A400FF3036
:10028800A5004330A6005125031C512980302000C9
:10029800E200FF30E3004330E40000302000A1001A
:1002A8000030A2000030A3006208A4006308A50083
:1002B8006408A6005125031C682900302000E200CC
:1002C8000030E3000030E40000302000C9007F3037
:1002D800CA00C330CB000030B900FF30BA00433049
:1002E800BB008030A900FF30AA004330AB00620891
:1002F800AC006308AD006408AE004424200029085F
:10030800BC002A08BD002B08BE0091232000390834
:10031800CC003A08CD003B08CE00E5212000490872
:10032800E2004A08E3004B08E4005708803AD80086
:1003380082305802031DA229583056020318BB29DF
:1003480000302000A1000030A2000030A3006208A5
:10035800A4006308A5006408A60051250318BB295A
:1003680000302000E2000030E3000030E40020000C
:100378005708803AD80082305802031DC5295930E1
:100388005602031CDE2920006208A1006308A200AF
:100398006408A3000030A4000030A5000030A600C7
:1003A80051250318DE2900302000E2000030E30068
:1003B8000030E40061302000A4000030A500C12511
:1003C800080020004908CF004A08D0004B08D10097
:1003D8000310500D510DD2005208D5004C08CF0023
:1003E8004D08D0004E08D1000310500D510DD20019
:1003F8005208D400550803190D2A54085502031849
:10040800142A5503FF3A5407CF0019304F02031C32
:10041800142A4C08C9004D08CA004E08CB00080031
:10042800540803190800550854020318232A5403D2
:10043800FF3A5507CF0019304F020318080006305D
:10044800CF004F08D300CB1BD317CE1B5317CA17A7
:10045800FF30C905FF30CA050030CB05CD17FF3086
:10046800CC05FF30CD050030CE05540855020318E1
:100478005F2A0130CC35CD0DCE0D890B3E2A0130D7
:10048800D4025408550603195A2A0130D3025308D6
:10049800073903195A2A3D2A0130CB36CA0CC90C30
:1004A800890B512A0130CF004F08D507550854064B
:1004B8000319842A502A550854020318842A013043
:1004C800C935CA0DCB0D890B642A0130D5025408F1
:1004D80055060319802A0130D30253080739031936
:1004E800802A632A0130CE36CD0CCC0C890B772AB2
:1004F8000130CF004F08D40755085406031D762A4B
:10050800D31F962AFF30C906FF30CA06FF30CB0634
:100518000130C907003003180130CA07003003183A
:100528000130CB07531FA82AFF30CC06FF30CD0679
:10053800FF30CE060130CC07003003180130CD075C
:10054800003003180130CE07D3014908CC074A0808
:10055800CD3D4B08CE3DCE1FC32AFF30CC06FF3021
:10056800CD06FF30CE060130CC070030031801302D
:10057800CD07003003180130CE07D301D30A4C0849
:10058800A1004D08A2004E08A3005508CF004F084F
:10059800A4005308D0005008A500EC24200021082E
:1005A800C9002208CA002308CB000800F030210047
:1005B800990018308C0023008C011E3024008C0018
:1005C8002100951322001D140C103D260030200038
:1005D800A100A2002C262700121648308B003430C8
:1005E8002000980021001114200018140B14210079
:1005F800AB01AC012C08803A2000E9008030690288
:10060800031D092B0A3021002B020318242B32303A
:100618002000D6000030D700612000000130210002
:10062800AB070030AC3D2C08803A2000E900803050
:100638006902031D222B0A3021002B02031C0B2BFD
:100648002100AD01AE012E08803A2000E90080307B
:100658006902031D322B053021002D0203184C2B93
:1006680000302000D600D7006120000001302100B2
:10067800AD070030AE3D2E08803A2000E9008030FA
:100688006902031D4A2B053021002D02031C342B5F
:100698002100AF01B0013008803A2000E900803025
:1006A8006902031D5A2B0A3021002F020318752BEB
:1006B8006A302000D600FF30D700612000000130EA
:1006C8002100AF070030B03D3008803A2000E90033
:1006D80080306902031D732B0A3021002F02031C8E
:1006E8005C2B2100B101B2013208803A2000E900F8
:1006F80080306902031D832B053021003102031865
:10070800FB2A00302000D600D7006120000001300D
:100718002100B1070030B23D782B20003908BF0016
:100728003A08C0003B08C1000310400D410DC2004B
:100738004208C3004308031DA82B0030B90000304D
:10074800BA000030BB0008003C08BF003D08C000EC
:100758003E08C1000310400D410DC2004208C80008
:100768004808031DBE2B0030B9000030BA00003025
:10077800BB00080048087B3EBF003F08C307390894
:10078800BF003A08C0003B08C1001030C136C00C99
:10079800BF0C890BCA2B3F08C2004208C8003C089E
:1007A800BF003D08C0003E08C1001030C136C00C73
:1007B800BF0C890BDA2B3F08C2004208C8068030FC
:1007C800BF003F08C805BA17BD17FF30BC05FF308A
:1007D800BD050030BE050030C4000030C500003043
:1007E800C6000730BF003F08C700391C012C3C0871
:1007F800C4073D08C53D3E08C63D0130BB36BA0CAE
:10080800B90C890B022C0130BC35BD0DBE0D890B0E
:10081800082C0130C702031DF92B0930BF003F081F
:10082800C700391C1D2C3C08C4073D08C53D3E08BF
:10083800C63D0130BB36BA0CB90C890B1E2C0130F1
:10084800C636C50CC40C890B242C0130C702031D05
:10085800152C4408A1004508A2004608A300430837
:10086800BF003F08A4004808C0004008A500EC24C9
:1008780020002108B9002208BA002308BB0008009C
:1008880020002C08AF002D08B0002E08B10003107E
:10089800300D310DB2003208B7003708031D5B2C4C
:1008A8000030A9000030AA000030AB000800290879
:1008B800AF002A08B0002B08B1000310300D310D2D
:1008C800B2003208B8003808031D712C0030A900A6
:1008D8000030AA000030AB0008000030B40000303F
:1008E800B5000030B60089303807AF002F08B702CE
:1008F8002C08AF002D08B0002E08B1001030B1361A
:10090800B00CAF0C890B832C2F08B2003208B8004A
:100918002908AF002A08B0002B08B1001030B13602
:10092800B00CAF0C890B932C2F08B2003208B80614
:100938008030AF002F08B805AD17FF30AC05FF3089
:10094800AD050030AE05AA17FF30A905FF30AA058E
:100958000030AB051830AF002F08B3000130B435B4
:10096800B50DB60D890BB32C2B082E02031DC22C16
:100978002A082D02031DC22C29082C02031CCB2C8B
:100988002908AC022A08AD3B2B08AE3B34140130D1
:10099800AC35AD0DAE0D890BCC2C0130B302031D67
:1009A800B22C3408A1003508A2003608A300370885
:1009B800AF002F08A4003808B0003008A500EC24C8
:1009C80020002108A9002208AA002308AB0008007B
:1009D800200024080319F52C230822042104031DF0
:1009E800062D0030A1000030A2000030A30008004E
:1009F8000130A6002608A4070130A336A20CA10CDA
:100A0800890B012DFE30230503191F2DFC2C013005
:100A1800A6002608A4070130A107003003180130FA
:100A2800A207003003180130A3070130A336A20C37
:100A3800A10C890B1A2DFF30230503192C2D0B2D22
:100A48000130A4020130A135A20DA30D890B272D79
:100A5800A21B322D023024020318242D24183A2D0B
:100A6800FF30A1057F30A205FF30A3050310A40CB9
:100A78002408A600A701A8011030A635A70DA80DC7
:100A8800890B412D2608A1042708A2042808A304DD
:100A9800250803190800A31708002000A31F682DC4
:100AA8002109A7002209A8002309A900A70A0319F8
:100AB800A80A0319A90A00302707A1000030283D19
:100AC800A2008030293DA300A61F7E2D2409A7007F
:100AD8002509A8002609A900A70A0319A80A0319C5
:100AE800A90A00302707A4000030283DA50080305F
:100AF800293DA6008030A3068030A60626082302DA
:100B0800031D080025082202031D080024082102ED
:100B18000800FB01FC01760877040319BC2DFD01D0
:100B2800FD0AF71BA12D0130F635F70D890B982D1D
:100B38000130FA007A08FD07952D0130FB35FC0DD0
:100B4800890BA22D77087902031DAC2D760878024F
:100B5800031CB32D7608F8027708F93B7B140130A3
:100B6800F736F60C890BB42D0130FD02031DA12DBB
:100B78007C08F7007B08F6000800200024082504FC
:100B8800031DCB2D2508A2002408A1002C26200037
:100B98002508803AA60080302602031DD52D013095
:100BA8002402031CDF2D22000C1420002508A200BB
:100BB8002408A1002C262000A51F080022000C10E4
:100BC8002000A409A509A40A0319A50A2508A2005A
:100BD8002408A1002C2608002000AE01AA1FFB2D26
:100BE800A909AA09A90A0319AA0AAE01AE0A29087D
:100BF800A1002A08A200A3018E30AC002C08A40092
:100C08002E08AD002D08A500EC2420002108A9001D
:100C18002208AA002308AB000800F401F501701CA3
:100C2800192E7208F4077308F53D0130F235F30DFB
:100C3800890B1A2E0130F136F00C890B1F2E700823
:100C48007104031D132E7508F1007408F0000800E4
:100C580020002208803AA30084302302031D362E88
:100C68000030210203180800200021082500910007
:100C78000800273020009B000C30250093009101CC
:100C88002000911005309C000800123403343B34D6
:100C9800B734D1343834CD34CC343E34963400347F
:100CA8002000230822042104031908008030A30629
:0E0CB8000800FE0012001E00FE0B5E2E00342F
:020000040001F9
:04000E00C4CFFFDF7D
:00000001FF
