:02000000EB2DE6
:1000080070082000AB007108AA007208A9007308E4
:10001800A8007408A7007508A6007808A500790844
:10002800A4007A08A3007B08A2007C08A100803104
:100038000B1C27282700131E27288B112000B00A25
:10004800270013128B152000111C41288B11181042
:100058003008F000F1012C30F4000130F500582090
:100068002C08F4002D08F5008E207008B3007108E4
:10007800B400B0018B15111018142B08F0002A08D1
:10008800F1002908F2002808F3002708F4002608E0
:10009800F5002508F8002408F9002308FA002208CA
:0800A800FB002108FC00090027
:1000B0002000FB01FA01F9018030F800F10CF00C8E
:1000C000031C6B287408F90775080318750FFA07E5
:1000D0000318FB0A0310F01F73287408FA07750849
:1000E0000318750FFB07FB0CFA0CF90CF80C031C3A
:1000F0005E287B08F3007A08F2007908F10078089E
:04010000F000080003
:10010400FB09FA09F909F809F80A0319F90A0319A4
:08011400FA0A0319FB0A0800B6
:10011C002000F801F9011030FC00710DF80DF90DFB
:10012C007408F8027508031C750FF9020318A5284A
:10013C007408F80775080318750FF9070310F00D0C
:08014C00F10DFC0B93280800E3
:10015400803020006C06F00080307002031DB4284B
:1001640000306B020318BF286B08003CF0006C08D9
:10017400031C013EF101F102C3286B08F0006C0876
:04018400F10008007E
:1001880020001B08013EF000F1010030F13D6B0832
:10019800F400F50158200630F2007008F4007108E8
:1001A800F50072080319DC28F536F40CFF3ED62852
:1001B8000430F1007408F00071080319E628F035DE
:1001C800FF3EE12830307005F3007408F000750830
:1001D800F100F136F00CF136F00C700825009100B2
:0A01E8000F3093057308930408001C
:1001F2007408F8027508031C750FF9027608031CCF
:10020200760FFA027708031C770FFB02F30D073013
:10021200FC00730DF80DF90DFA0DFB0D7408731C3B
:100222002029F8027508031C750FF9027608031CD1
:10023200760FFA027708031C770FFB022D29F807C5
:1002420075080318750FF90776080318760FFA0771
:1002520077080318770FFB07F30DFC0B0A29720DC1
:10026200F80DF90DFA0DFB0D7408731C4629F802FE
:100272007508031C750FF9027608031C760FFA0243
:100282007708031C770FFB025329F8077508031838
:10029200750FF90776080318760FFA07770803181F
:1002A200770FFB07F20D0730FC00720DF80DF90D08
:1002B200FA0DFB0D7408721C6C29F8027508031CF8
:1002C200750FF9027608031C760FFA027708031CF1
:1002D200770FFB027929F80775080318750FF907DC
:1002E20076080318760FFA0777080318770FFB07CB
:1002F200F20DFC0B5629710DF80DF90DFA0DFB0DDF
:100302007408721C9229F8027508031C750FF90211
:100312007608031C760FFA027708031C770FFB029C
:100322009F29F80775080318750FF907760803184F
:10033200760FFA0777080318770FFB07F10D0730DE
:10034200FC00710DF80DF90DFA0DFB0D7408711C0E
:10035200B829F8027508031C750FF9027608031C08
:10036200760FFA027708031C770FFB02C529F807FC
:1003720075080318750FF90776080318760FFA0740
:1003820077080318770FFB07F10DFC0BA229700DFC
:10039200F80DF90DFA0DFB0D7408711CDE29F80237
:1003A2007508031C750FF9027608031C760FFA0212
:1003B2007708031C770FFB02EB29F807750803186F
:1003C200750FF90776080318760FFA0777080318EE
:1003D200770FFB07F00D0730FC00700DF80DF90DDB
:1003E200FA0DFB0D7408701C042AF8027508031C30
:1003F200750FF9027608031C760FFA027708031CC0
:10040200770FFB02112AF80775080318750FF90711
:1004120076080318760FFA0777080318770FFB0799
:10042200F00DFC0BEE297018242A7408F8077508E1
:100432000318750FF90776080318760FFA0777087D
:080442000318770FFB07080007
:10044A002000E801053068020318352A68086607A3
:10045A0086000030673D870020308100E80A272A9D
:10046A006808660786000030673D87008101E80357
:10047A0068086607E9000030673DEA000A30F400C0
:10048A00F5016408F0006508F1008E207808F00094
:10049A007908F1003030F007690886006A08870099
:1004AA00700881000A30F400F5016408F00065085C
:1004BA00F1008E207008E4007108E5000030710632
:1004CA00031D692A00307006031D6C2A6E2AE80390
:0404DA003D2A0800AF
:1004DE007408003A031D882A7508003A031D882AFD
:1004EE007608003A031D882A7708003A031D882AE9
:1004FE00FF30F000FF30F100FF30F2007F30F300EC
:10050E00202B2000FC01F71BFC0AFD01FB01FA0168
:10051E00F901F801730872047104700403191B2B9E
:10052E0073087706A000A01BFD09F71FA92AF4097E
:10053E00F509F609F709F40A0319F50A0319F60A7B
:10054E000319F70AF31FB62AF009F109F209F309A4
:10055E00F00A0319F10A0319F20A0319F30A7308D0
:10056E007704A000A01BD72AF920FC1BF42AFD1F3C
:10057E001B2BF009F109F209F309F00A0319F10A2C
:10058E000319F20A0319F30AF809F909FA09FB0922
:10059E00F80A0319F90A0319FA0A0319FB0A1B2BA5
:1005AE00F71FEE2AF31BE82A7308FB007208FA0005
:1005BE007108F9007008F800F301F201F101F00181
:1005CE00BE2AF301F201F101F001F00A0034F30941
:1005DE00F209F109F009FC17BB2AF80A0319F90A06
:1005EE000319FA0A0319FB0A74087802031DBE2ABE
:1005FE0075087902031DBE2A76087A02031DBE2AEB
:10060E0077087B02031DBE2AFB01FA01F901F801EE
:10061E00F00A0319F10A0319F20A0319F30AF31F78
:10062E00BE2AA0012016FF34A0017C1C1F2B8220A5
:04063E00003E080072
:100642002000E403E4036408003C03182D2BE403B8
:10065200000000000000242B000000000000000049
:04066200000008008C
:1006660020006408EB006508EC00AA208030F20048
:10067600803071067202031D422B7008FF3C03187E
:10068600452B742B00306506031D4B2B003064068A
:10069600031D502B6408EB00C42080302000650643
:1006A600F00080307002031D5A2B003064020318DC
:1006B600622B22000C1020006408EB00C42080305E
:1006C600F0008030200065067002031D6C2B640864
:1006D600003C0318742B22000C1420006408EB0065
:0406E600C420080024
:1006EA0020002230FC00F801F901FA01FB01FC03A9
:1006FA000319AA2B0310FB0CFA0CF90CF80CF30CD7
:10070A00F20CF10CF00C031C7C2BFC0303199C2B40
:10071A007408F80775080318750FF907760803189F
:10072A00760FFA0777080318770FFB07802B7408F0
:10073A00F80775080318750FF90776080318760F76
:0C074A00FA0777080318770FFB07080078
:0E0756000030F0007D30F100F201F3010800E8
:1007640001302000CE003908CD063C0884003D0845
:1007740085003908003A0319C22B3B088004C42BB6
:100784003A0880053E08E4002123CD094E080319E8
:10079400E12B4E084D05F000031DD32B3B088004CC
:1007A400D52B3A088005CE3502303E02E4002123E1
:1007B400000000000000000000000000C82B390801
:1007C400003A0319E82B3A088005EA2B3B08800419
:0807D4003E08E40021230800A7
:1007DC002000D301D4014D08D5004E08D60080303E
:1007EC004E06F00080307002031DFE2B00304D02CF
:1007FC0003180C2C0130D3000030D4004D08003C01
:10080C00D5004E08031C013ED601D6025508E40063
:10081C005608E5004F08E6005008E7002522063090
:10082C00D1000030D2005208003C031D1F2C51088F
:10083C00003C03183A2C51084F0786005208503DD3
:10084C00870001305102F0000030523BF10070087B
:10085C004F0784007108503D85000008810001306D
:10086C00D1020030D23B192C4F088600500887006B
:10087C0020308100530854040319602CD101D2019B
:10088C0051084F0784005208503D85000008203A5B
:10089C00031D542CD10A0319D20A462C0130D10263
:1008AC000030D23B51084F0786005208503D87005C
:0608BC002D308100080050
:1008C200200033084D02D30034084E3BD4005308B5
:1008D200F0005408F1003208F4000030F41BFF303D
:1008E200F50058207008D1007108D2005108CF00DD
:1008F2005208D00053083607F0005408373DF10083
:100902007008B6007108B7003508F4000030F41B17
:10091200FF30F50058207008D1077108D23D510808
:10092200CF005208D0002E085302F0002F08543B8B
:10093200F1003108F4000030F41BFF30F5005820BC
:1009420070085107F2007108523DF3007208CF009F
:100952007308D0005308AE005408AF00803073060D
:10096200F00080307002031DB82CFF307202031CAD
:10097200BD2CFF30CF00D0018030FF3AF000803034
:1009820050067002031DC72C4F08013C031CCD2CDE
:100992000130CF00FF30D0004F08E4005008E500DE
:0409A20033230800F3
:1009A60020004D08F2004E08F3007208F0007308AC
:1009B600F100F20A0319F30A700884007108850031
:1009C60000080319E72CD82C4D087202F0004E08D7
:0E09D600733BF1000130F0020030F13B0800ED
:1009E40012001E00F003031DF22CF103031DF22C70
:0209F4000800F9
:1009F60020004D08BC004E08BD004F08F000013035
:100A0600F200700803190A2DF235FF3E052D720813
:100A1600BF007209C0005008F1000130F0007108F3
:100A26000319182DF035FF3E132D7008BB00F00991
:100A36007008BA0080304D07840000304E3D8500B6
:100A46007208800470088005B901550803192C2D19
:100A5600B909803084023908003A0319352D3A085D
:100A66008005372D3B088004AB23E830F4000330C3
:100A7600F500F601F70175237008E0007108E10042
:100A86007208E2007308E3006008D6006108D70028
:100A96006208D8006308D9005108F0005208F10036
:100AA6005308F2005408F300F035F10DF20DF30D82
:100AB600F035F10DF20DF30D0A30F400F501F601F3
:100AC600F70175237008DA007108DB007208DC0094
:100AD6007308DD007008F4007108F5007208F6006E
:100AE6007308F7006008F0006108F1006208F20080
:100AF6006308F3006F227008DE007108DF007108DA
:100B0600F400F5017408750403198C2D0230F00009
:100B1600DD2D5E08BE005A08F4005B08F5005C088F
:100B2600F6005D08F7005608F0005708F10058086F
:100B3600F2005908F3006F227808F0007908F100F6
:100B46007A08F2007B08F3007008D6007108D70017
:100B56007208D8007308D9005A08F5005B08F60039
:100B66005C08F7005D08F800F837F70CF60CF50C92
:100B760080307806F400803073067402031DCD2D94
:100B860072087702031DCD2D71087602031DCD2D47
:100B9600700875020318D02DBE0A3E08F100F13622
:100BA6007108B800073071020318DC2D0130F0001F
:060BB600DD2DF001080036
:100BBC0021000C1120001C150C302500930408009A
:0A0BCC002500910113129312080096
:100BD60096302000AC00AD01AE01AF01B00101308E
:100BE600B1000130B200B301B4010130B500B60165
:100BF600B701F030210099001C308C0023008C01D5
:100C06001E3024008C002100951322001D140C10A8
:100C160020001C109C109F309B00E625DE2520003E
:100C2600EB01C4202700121648308B003430200018
:100C3600980021001114200018148B17E401E50117
:100C460033230C302000CD000030CE000230CF0020
:100C56000130D0008030D1002530D200D301D4013C
:100C6600D501FB246430CD000030CE006124200085
:100C76003308CD003408CE004330CF000030D0001A
:100C8600EE23C101C2014330CD000030CE00D32493
:100C960080304206F200803071067202031D552E26
:100CA600700841020318642E433041078400003067
:100CB600423D85000008CD00B223C10A0319C20ACD
:100CC600462E0A30CD00B2230D30CD00B2230530BA
:100CD600FB000F30FC00F130FD00FD0B702EFC0B0D
:0A0CE600702EFB0B702E352E772EBA
:020000040001F9
:04000E00C40F1317F1
:00000001FF
