:02000000992D38
:1000080070082000AB007108AA007208A9007308E4
:10001800A8007408A7007508A6007808A500790844
:10002800A4007A08A3007B08A2007C08A100803104
:100038000B1C29282700131E29288B112000AE0A23
:100048000319AF0A270013128B152000111C492829
:100058008B1118102E08F0002F08F1000530F4005D
:100068000030F5007C203C30F4000030F5007C20A6
:100078009630F400F50160207008AC007108AD00FE
:10008800AE01AF018B15111018142B08F0002A08C7
:10009800F1002908F2002808F3002708F4002608D0
:1000A800F5002508F8002408F9002308FA002208BA
:0800B800FB002108FC00090017
:1000C0002000F801F9011030FC00710DF80DF90D58
:1000D0007408F8027508031C750FF90203187728D5
:1000E0007408F80775080318750FF9070310F00D69
:0800F000F10DFC0B652808006E
:1000F8002000FB01FA01F9018030F800F10CF00C46
:10010800031C8F287408F90775080318750FFA0778
:100118000318FB0A0310F01F97287408FA077508DC
:100128000318750FFB07FB0CFA0CF90CF80C031CF1
:1001380082287B08F3007A08F2007908F100780831
:04014800F0000800BB
:10014C007408F8027508031C750FF9027608031C75
:10015C00760FFA027708031C770FFB02F30D0730BA
:10016C00FC00730DF80DF90DFA0DFB0D7408731CE2
:10017C00CD28F8027508031C750FF9027608031CCC
:10018C00760FFA027708031C770FFB02DA28F807C0
:10019C0075080318750FF90776080318760FFA0718
:1001AC0077080318770FFB07F30DFC0BB728720DBC
:1001BC00F80DF90DFA0DFB0D7408731CF328F802F9
:1001CC007508031C750FF9027608031C760FFA02EA
:1001DC007708031C770FFB020029F8077508031832
:1001EC00750FF90776080318760FFA0777080318C6
:1001FC00770FFB07F20D0730FC00720DF80DF90DAF
:10020C00FA0DFB0D7408721C1929F8027508031CF1
:10021C00750FF9027608031C760FFA027708031C97
:10022C00770FFB022629F80775080318750FF907D5
:10023C0076080318760FFA0777080318770FFB0771
:10024C00F20DFC0B0329710DF80DF90DFA0DFB0DD8
:10025C007408721C3F29F8027508031C750FF9020B
:10026C007608031C760FFA027708031C770FFB0243
:10027C004C29F80775080318750FF9077608031849
:10028C00760FFA0777080318770FFB07F10D073085
:10029C00FC00710DF80DF90DFA0DFB0D7408711CB5
:1002AC006529F8027508031C750FF9027608031C02
:1002BC00760FFA027708031C770FFB027229F807F6
:1002CC0075080318750FF90776080318760FFA07E7
:1002DC0077080318770FFB07F10DFC0B4F29700DF6
:1002EC00F80DF90DFA0DFB0D7408711C8B29F80231
:1002FC007508031C750FF9027608031C760FFA02B9
:10030C007708031C770FFB029829F8077508031868
:10031C00750FF90776080318760FFA077708031894
:10032C00770FFB07F00D0730FC00700DF80DF90D81
:10033C00FA0DFB0D7408701CB129F8027508031C2A
:10034C00750FF9027608031C760FFA027708031C66
:10035C00770FFB02BE29F80775080318750FF9070C
:10036C0076080318760FFA0777080318770FFB0740
:10037C00F00DFC0B9B297018D1297408F80775082F
:10038C000318750FF90776080318760FFA07770824
:08039C000318770FFB070800AE
:1003A400FB09FA09F909F809F80A0319F90A031902
:0803B400FA0A0319FB0A080014
:1003BC002100A003A0032008003C0318EA29A00395
:1003CC00000000000000E129000000000000000017
:0403DC000000080015
:0E03E0000030F0007D30F100F201F301080062
:1003EE0020001B08013EF000F1010030F13D21001C
:1003FE002008F400F5017C200630F2007008F400AD
:10040E007108F50072080319102AF536F40CFF3E38
:10041E000A2A0430F1007408F000710803191A2A30
:10042E00F035FF3E152A30307005F3007408F000E9
:10043E007508F100F136F00CF136F00C700825005D
:0C044E0091000F30930573089304080020
:10045A002100A4010530240203183D2A240822079A
:10046A0086000030233D870020308100A40A2F2A0D
:10047A002408220786000030233D87008101A40357
:10048A0024082207A5000030233DA6000A30F40004
:10049A00F5012008F0002108F10060207808F0003A
:1004AA007908F1003030F007210025088600260877
:1004BA008700700881000A30F400F5012008F00076
:1004CA002108F100602070082100A0007108A10035
:1004DA0000307106031D732A00307006031D762A48
:0804EA00782AA403452A08004A
:1004F20020002230FC00F801F901FA01FB01FC03A3
:100502000319AE2A0310FB0CFA0CF90CF80CF30CCD
:10051200F20CF10CF00C031C802AFC030319A02A34
:100522007408F80775080318750FF9077608031899
:10053200760FFA0777080318770FFB07842A7408E7
:10054200F80775080318750FF90776080318760F70
:0C055200FA0777080318770FFB07080072
:10055E007408003A031DC82A7508003A031DC82AFC
:10056E007608003A031DC82A7708003A031DC82AE8
:10057E00FF30F000FF30F100FF30F2007F30F3006B
:10058E00602B2000FC01F71BFC0AFD01FB01FA01A8
:10059E00F901F801730872047104700403195B2BDE
:1005AE0073087706A000A01BFD09F71FE92AF409BE
:1005BE00F509F609F709F40A0319F50A0319F60AFB
:1005CE000319F70AF31FF62AF009F109F209F309E4
:1005DE00F00A0319F10A0319F20A0319F30A730850
:1005EE007704A000A01B172BA620FC1B342BFD1F8D
:1005FE005B2BF009F109F209F309F00A0319F10A6C
:10060E000319F20A0319F30AF809F909FA09FB09A1
:10061E00F80A0319F90A0319FA0A0319FB0A5B2BE4
:10062E00F71F2E2BF31B282B7308FB007208FA0002
:10063E007108F9007008F800F301F201F101F00100
:10064E00FE2AF301F201F101F001F00A0034F30980
:10065E00F209F109F009FC17FB2AF80A0319F90A45
:10066E000319FA0A0319FB0A74087802031DFE2AFD
:10067E0075087902031DFE2A76087A02031DFE2AEA
:10068E0077087B02031DFE2AFB01FA01F901F8012E
:10069E00F00A0319F10A0319F20A0319F30AF31FF8
:1006AE00FE2AA0012016FF34A0017C1C5F2BD22154
:0406BE00003E0800F2
:1006C200803021002106F00080307002031D6B2B68
:1006D200003020020318762B2008003CF00021088D
:1006E200031C013EF101F1027A2B2008F0002108DF
:0406F200F10008000B
:1006F6002000DF01E0015908E1005A08E2008030DD
:100706005A06F00080307002031D8B2B0030590210
:100716000318992B0130DF000030E0005908003C37
:10072600E1005A08031C013EE201E20261082100D1
:10073600A000200062082100A10020005B08210023
:10074600A20020005C082100A3002D220630200014
:10075600DD000030DE005E08003C031DB42B5D08A2
:10076600003C0318CF2B5D085B0786005E085C3DE6
:10077600870001305D02F00000305E3BF10070083A
:100786005B07840071085C3D85000008810001302C
:10079600DD020030DE3BAE2B5B0886005C0887007E
:1007A600203081005F0860040319F52BDD01DE01AE
:1007B6005D085B0784005E085C3D85000008203A02
:1007C600031DE92BDD0A0319DE0ADB2B0130DD02EE
:1007D6000030DE3B5D085B0786005E085C3D8700F7
:0607E6002D308100080027
:1007EC0020005908D6005A08D7005B08F0000130E9
:1007FC00F20070080319052CF235FF3E002C72082C
:10080C00D3007209D0005C08F1000130F0007108CF
:10081C000319132CF035FF3E0E2C7008D500F0098F
:10082C007008D40080305907840000305A3D850090
:10083C007208800470088005D80161080319272C00
:10084C00D809803084025808003A0319302C540817
:10085C008005322C55088004F021E830F400033078
:10086C00F500F601F70179227008EC007108ED0033
:10087C007208EE007308EF006C08E2006D08E300EC
:10088C006E08E4006F08E5005D08F0005E08F100FA
:10089C005F08F2006008F300F035F10DF20DF30D76
:1008AC00F035F10DF20DF30D0A30F400F501F601FF
:1008BC00F70179227008E6007108E7007208E80079
:1008CC007308E9007008F4007108F5007208F6006E
:1008DC007308F7006C08F0006D08F1006E08F20068
:1008EC006F08F300AF227008EA007108EB00710882
:1008FC00F400F501740875040319872C0230F0001C
:10090C00D82C6A08D2006608F4006708F50068085D
:10091C00F6006908F7006208F0006308F10064084B
:10092C00F2006508F300AF227808F0007908F100B6
:10093C007A08F2007B08F3007008E2007108E3000B
:10094C007208E4007308E5006608F5006708F60015
:10095C006808F7006908F800F837F70CF60CF50C86
:10096C0080307806F400803073067402031DC82CA6
:10097C0072087702031DC82C71087602031DC82C5F
:10098C00700875020318CB2CD20A5208F100F1360C
:10099C007108D100073071020318D72C0130F00018
:0609AC00D82CF001080048
:1009B20020005908F2005A08F3007208F000730888
:1009C200F100F20A0319F30A700884007108850025
:1009D20000080319ED2CDE2C59087202F0005A08A7
:0E09E200733BF1000130F0020030F13B0800E1
:1009F00021000C1120001C150C3025009304080068
:100A0000200059082100A00020005A082100A10060
:100A100061238030F200803071067202031D122DB6
:100A20007008FF3C0318152D482D003020005A0691
:100A3000031D1C2D00305906031D222D59082100CD
:100A4000A000F721803020005A06F00080307002AC
:100A5000031D2C2D003059020318352D22000C10D7
:100A6000200059082100A000F7218030F0008030DC
:100A700020005A067002031D3F2D5908003C031840
:100A8000482D22000C14200059082100A000F72155
:020A900008005C
:100A920012001E00F003031D492DF103031D492D11
:020AA20008004A
:100AA40001302000DA005808D90656088400570897
:100AB40085005808003A0319622D55088004642DF6
:100AC4005408800552082100A000DE212000D90925
:100AD40020005A080319852D5A085905F000031DF2
:100AE400762D55088004782D54088005DA350230B7
:100AF40052022100A000DE210000000000000000DE
:100B0400000000006A2D20005808003A03198D2DBA
:100B1400540880058F2D5508800452082100A00038
:040B2400DE210800C6
:0A0B2800250091011312931208003A
:100B32002000AC01AD01AE01AF01F03021009900FF
:100B42001C308C0023008C011E3024008C002100FC
:100B5200951322001D140C1020001C109C109F30B5
:100B62009B009425F8242100A001F72127001216EA
:100B720048308B00343020009800210011142000EE
:100B820018148B17FF30D900DA0100250C30200031
:100B9200D9000030DA000230DB000130DC008030A6
:100BA200DD002530DE00DF01E001E101F623200057
:100BB2002C08D9002D08DA003030DB000030DC00D0
:100BC2007B23CE01CF013030D9000030DA00D924A6
:100BD20080304F06F200803071067202031DF32D41
:100BE20070084E020318032E30304E078400003086
:100BF2004F3D85000008D90052252000CE0A031976
:100C0200CF0AE42D0A30D90052250D302000D90038
:100C120052250530FB000F30FC00F130FD00FD0BCA
:0E0C2200102EFC0B102EFB0B102ED82D172EB3
:020000040001F9
:04000E00C40F1317F1
:00000001FF
